:020000040200F8
:10200000F80E002081210002852100021D28000217
:10201000892100028B2100028D21000200000000B6
:10202000000000000000000000000000ED200002A1
:1020300091210002000000002D2100029D300002CD
:1020400097210002A1290002972100029721000296
:10205000C930000297210002972100029721000257
:1020600097210002972100021D2C000297210002F7
:10207000972100024D310002392800029721000209
:1020800097210002F92B0002F52B0002F12B000230
:10209000C13400029721000297210002972100021B
:1020A000952B000297210002252C000297210002A7
:1020B000972100029721000297210002FD300002C3
:1020C000ED28000297210002972100020000010084
:1020D00000A00200DFF810D000F01AFB0048004713
:1020E00021480002AFF30080F80E0020214B196850
:1020F0000868B0E8F00F80F30988BFF36F8F4FF0E6
:10210000000080F311884EF00D0E704700000000B3
:10211000054880F3088862B661B6BFF34F8FBFF3FE
:102120006F8F00DF00BF00BFF80E0020EFF30980C3
:10213000BFF36F8F0F4B1A6820E9F00F106008B5DE
:102140004FF0080080F31188BFF34F8FBFF36F8FFC
:1021500004F0D6F94FF0000080F31188BDE8084084
:1021600019680868B0E8F00F80F30988BFF36F8F33
:10217000704700BF64000020EFF305807047000047
:1021800005480047FEE7FEE7FEE7FEE7FEE7FEE75D
:10219000FEE7FEE7FEE7FEE7D52000022DE9F05F4F
:1021A0000546002092469B468846064681464024C6
:1021B0001BE0284641464746224600F019F953469F
:1021C0005A46C01A914110D311461846224600F0D3
:1021D00016F82D1A67EB01084F4622460120002110
:1021E00000F00DF817EB00094E41201EA4F1010488
:1021F000DFDC484631462A464346BDE8F09F202AA8
:1022000004DB203A00FA02F1002070479140C2F14D
:10221000200320FA03F319439040704740EA01037A
:102220009B0703D009E008C9121F08C0042AFAD28C
:1022300003E011F8013B00F8013B521EF9D2704750
:10224000D2B201E000F8012B491EFBD270470022F8
:10225000F6E710B513460A4604461946FFF7F0FFA5
:10226000204610BD034611F8012B00F8012B002A6F
:10227000F9D1184670472DE9FE4F804681EA0300E8
:10228000C00F0C46009021F0004123F00045B8EB50
:102290000200A94105D24046214690461C460B4605
:1022A000024623F00040104347D0270DC7F30A0031
:1022B000C3F30A510290401A019040286BDAC3F32D
:1022C000130040F4801B0098924620B10023D2EB0B
:1022D000030A63EB0B0B01985946C0F140025046CC
:1022E000FFF78DFF06460D4650465946019A00F00D
:1022F0008FF810EB08006141002487EA115284EA4C
:10230000E7731A4340D0009A62B3019A012A4FEA58
:10231000075215DC001B61EB02014FF0004202EA9C
:102320000752CDE90042001C41F5801132462B4690
:1023300000F08FF803B0BDE8F08F40462146F9E782
:10234000001B61EB0201001C41F5801300185B418A
:102350002018A2F5001747EB030140EAD570B61923
:102360006D4111E06D084FEA360645EAC0754FEA47
:102370000752001B61EB0201001C41F58011490866
:102380004FEA30000019514132462B4603B0BDE8F8
:10239000F04F00F04FB80098012240000023D0EB2E
:1023A000020263EBE073009821464FEAE074B8EB59
:1023B000000061EB0401E9E783F000435BE781F093
:1023C000004158E730B50B46014600202022012489
:1023D00009E021FA02F59D4205D303FA02F5491BF3
:1023E00004FA02F52844151EA2F10102F1DC30BD09
:1023F000202A04DB203A21FA02F00021704721FA5A
:1024000002F3D040C2F120029140084319467047C0
:10241000202A06DBCB17203A41FA02F043EAE073A8
:1024200006E041FA02F3D040C2F120029140084395
:102430001946704710B5141E73F1000408DA401CE9
:1024400041F1000192185B411A4301D120F00100D3
:1024500010BD2DE9F04D92469B4611B1B1FA81F2C3
:1024600002E0B0FA80F220329046FFF7C8FE044640
:102470000F4640EA0A0041EA0B0153465A46084318
:1024800013D0114653EA010019D0C8F1400250465A
:10249000FFF7AEFF05460E46504659464246FFF747
:1024A000AEFE084305D0012004E020463946BDE8D1
:1024B000F08D0020054346EAE0762C4337430A9826
:1024C0006305E40AA0EB08000022FD0A44EA475431
:1024D0000A3002D500200146E9E7010510196941DB
:1024E000DDE9084500196941BDE8F04DA2E72DE995
:1024F000FE4F81EA030404F0004421F000410094FF
:102500004FF0000B23F0004350EA01045ED052EA82
:1025100003045BD0C3F30A54C1F30A552C44A4F25C
:10252000F3340194A0FB0254C1F3130141F4801170
:10253000C3F3130343F4801301FB024400FB034E77
:10254000840A970A44EA815447EA8357A4FB076840
:1025500002958D0A05FB07854FEA932C04FB0C546A
:102560002705029D4FEA065847EA1637B5EB0805DE
:102570006EEB070C870E920E47EA811742EA831230
:10258000A7FB0201B6EB0B0164EB00042B0D43EA41
:102590000C335E1844EB1C50DA465146E7FB02014F
:1025A000C5F313044FEA0B3343EA14534FEA0432E2
:1025B000019C43EA0603A4F10C040294009CCDE9BB
:1025C00000B4FFF746FF03B0BDE8F08F00200146DE
:1025D000F9E72DE9F04D81EA030404F0004B21F006
:1025E000004514464FF0000A23F0004150EA05026E
:1025F00020D054EA01021DD0C5F30A570246C5F3A4
:102600001303C1F31300C1F30A5640F4801543F4D9
:102610008013A7EB0608101BD64608F2FD3873EBB3
:10262000050002D308F1010801E092185B41B8F1FE
:10263000000F03DA00200146BDE8F08D00204FF4C2
:102640008011064684460EE0171B73EB050705D381
:10265000121B63EB050306434CEA010C49084FEAE1
:10266000300092185B4150EA0107EDD152EA0300B5
:1026700012D082EA040083EA0501084305D0101B4A
:10268000AB4106D20122002306E000224FF00043B6
:1026900002E06FF0010253101AEB06004CEB0851F8
:1026A00010EB0A0041EB0B01BDE8F04DFFF7C2BE95
:1026B000C1F30A52C1F3130140F2FF3341F4801118
:1026C0009A4202DA00200146704740F233439A42B0
:1026D000A2F2334202DC5242FFF78ABEFFF78FBDFF
:1026E00030B5041E71F1000404DB4FF00044404299
:1026F00064EB0101141E73F1000405DB1C464FF06E
:102700000043524263EB0403994208BF904230BD3C
:10271000064C074D06E0E06840F0010394E807002E
:1027200098471034AC42F6D3FFF7D8FCAC6A0002ED
:10273000CC6A000230B58C1810F8012B12F00F0390
:1027400001D110F8013B120906D110F8012B03E06A
:1027500010F8015B01F8015B5B1EF9D101E001F8A3
:10276000013B521EFBD1A142E6D3002030BD10B583
:10277000012304688B409C438A401443046010BDCD
:1027800070B50E46152801D3134D00E0134D01D34B
:10279000A0F115000446032E14D00EB1012200E072
:1027A0000022E1B205F12800FFF7E1FF46B1002267
:1027B0005FFA84F105F13400BDE87040FFF7D7BF40
:1027C0000122F5E7E1B2002205F12800FFF7CFFF73
:1027D000E1B20022EEE7000000600140005001403D
:1027E000152801D30B4A00E00B4A01D3A0F11500D4
:1027F0004FF0010331B1116B03FA00F341EA030119
:1028000011637047D16A03FA00F341EA0301D16210
:1028100070470000006001400050014001A000F03E
:10282000D1FFFEE7486172644661756C745F486170
:102830006E646C65720D0A0070B5184E304600F07B
:1028400046F80446000703D50821304600F032F868
:10285000A0070BD50025304600F032F8024610A143
:10286000002000F051FA6D1C042DF4DBA00508D403
:1028700070BD304600F024F802460CA1002000F0A4
:1028800043FA304600F01FF80028F2D03046BDE889
:1028900070404FF4007100F00DB8000000300140AE
:1028A0003E3E3E20253032580A0000003E202530B2
:1028B00032580A008269C1F309010A4382617047F4
:1028C000006AC0B27047806900F0010070478069FB
:1028D000C0F30900704781617047806900F0030010
:1028E0007047C069C0F304207047000070B50D4EFA
:1028F0003046FFF7F2FF01463046FFF7ECFF304667
:10290000FFF7EFFF0546002409E0304600F012F81B
:10291000024605A1002000F0F7F9641CE4B2AC42C5
:10292000F3D370BD00000140646174613A307825D2
:10293000780D0A000069704710B50621012202488F
:1029400000F016F8C0B210BD14A0004010B5002170
:102950000B22024800F00CF880B210BD1CA0004011
:10296000052101221346014800F00BB810A00040D9
:102970004FF0FF33C2F120020068D340C840184036
:10298000704730B54FF0FF34C2F12002D4400268E6
:1029900004FA01F52340AA438B401A43026030BD7C
:1029A00010B5FFF7DDFF0DE0FFF7D0FF044602464C
:1029B00007A1002000F0A8F90AA001F0C9FC2046F8
:1029C00001F000FFFFF7B8FF0028EDD010BD0000B8
:1029D0006B65792064617461207472673A30782580
:1029E000780A0000310D0A00024901EB0010406E28
:1029F00070470000005000402DE9F0410446204897
:102A0000069F00EB82064FF0FF357F2C2AD0C817B7
:102A100001EB5070C21001F007004FF0800C2CFA4F
:102A200000FC601E04EB840E164C002104EB8E0E9D
:102A30001EF802E01EEA0C0F01D129460FE0002823
:102A400016DB00BF00EB800504EB8505AD5C15EAE5
:102A50000C0F00D0491C401EF4D5002908DA0846A6
:102A6000BDE8F081F9B2DAB20B463046294603E000
:102A7000FCB2DAB23046234602F089FA0020EFE7D2
:102A8000406000408C66000238B50C4650B1012809
:102A900007D1002005230422672100902046FFF77C
:102AA000ABFF38BD0F200523032265210090F5E719
:102AB0002DE9F0410A464FF0FF352A2810D2334B5A
:102AC00000EB800103EB810303EBD206511E02F001
:102AD000070736788022002422FA07F73E4203D106
:102AE00029460846BDE8F081002911DBCD1701EB2E
:102AF000557503EBE50501F007062D7822FA06F679
:102B0000354200D0641C491EF0D52100E9D400E014
:102B10002146162809D800F00302C2EBC2031C4A62
:102B200020F00300104407222BE0172805D0184C92
:102B300018341B2806D818380FE01548152306222C
:102B400014301EE01D2803D8A8220FE0204618E00C
:102B50000F4C1C34202806D81E3800EB40004006DD
:102B6000030E0622F2E7232805D88E2202EB80000E
:102B7000C3B20422EAE740004838C3B20448022244
:102B8000203002F004FA0020ACE700008C6600025E
:102B90000060004010B5002000F022F8C0F30214DD
:102BA000214607A001F0D4FB07E00020FFF71CFF3F
:102BB000014607A001F0CCFB641E002CF5DC10BD23
:102BC0007265616420636F756E743A2025780A001F
:102BD00072656164206E756D3A2025780A000000E8
:102BE000024901EB4010406870470000005000406F
:102BF00001F000BF01F0EABF02F0D4B8024901EBD6
:102C00008010006A7047000000900040024901EB0C
:102C10008010C0687047000000900040002001F064
:102C200059BE000010B5084C204600F01CF80028E2
:102C300008D006A1002000F067F82046BDE810404B
:102C400000F00CB810BD000000C001407274696D46
:102C5000657220696E740D0A00000000816841F001
:102C60004001816070478068C0F38510704700F0B4
:102C70002DBC00002DE9F04107460B4815460E46D5
:102C8000007808B900F022FCEFF31184202080F3D3
:102C900011882A463146384600F008F8E1B281F33F
:102CA0001188BDE8F0810000E003002070B50E46F9
:102CB000144900EB400001EBC0051446E86A1835E2
:102CC00020B101280FD0022805D113E0284600F0DA
:102CD00031FCA04201D2002411E0224631462846B0
:102CE00000F04EFD0BE0284600F024FCA042F4D298
:102CF0000446F2E73146284600F015FD044620461A
:102D000070BD0000E00300200FB408B504A90091D5
:102D10006A46039900F003F801B05DF814FB2DE951
:102D2000F04198B0064607A8029040200025CDE962
:102D30000305CDE9055690460C4614F8011B002901
:102D400073D0252908D002A800F0CEFC05980028F1
:102D5000F3DA18B0BDE8F081002001212278232A9F
:102D60001ED02B2A19D02D2A02D0302A08D102E0F9
:102D700040F0010001E040F00200641C0029EDD1A8
:102D800000222178A1F130030A2B0CD202EB82023F
:102D900001EB4202303A641CF3E740F00400ECE738
:102DA00040F00800E9E70023CFB22E2F0BD114F832
:102DB000011FA1F130070A2F05D203EB830301EBBA
:102DC0004303303BF3E76C290DD068290BD0702901
:102DD00054D00BDC252916D0582931D063290CD0CA
:102DE000642913D114E014F8011FECE7732934D0DF
:102DF00075291BD0782909D122E0D8F80000011DDF
:102E0000C8F80010017802A800F06EFC641C9DE771
:102E1000D8F800100F1DC8F800700968CDE900202F
:102E20000A2202A800F092FBF0E733E0D8F8001085
:102E30000F1DC8F800700968CDE900200A2208E0DB
:102E4000D8F800100F1DC8F800700968CDE90020FF
:102E5000102202A800F0DEFBD8E7D8F80000011D20
:102E6000C8F80010076817F8011B0029CED002A887
:102E700000F03AFC05980028F5DAC7E7D8F800001A
:102E8000011DC8F8001001680820CDE900050346BF
:102E90001022DEE7059800287FF75BAF049820B189
:102EA000024607A93046FFF7E5FEDDE904100844B5
:102EB00005904EE7012100F011B870B500240546D9
:102EC000012606FA04F0284202D02046FFF7F2FF5E
:102ED000641CE4B2162CF4D370BD000070B5484CED
:102EE0000246474808340D46162A72D2DFE802F03F
:102EF0000B0D151B21272D3843874C4F555B616700
:102F0000696F727B8181152200E01622294602F04A
:102F100035F812222946204655E00222294602F0C1
:102F20002DF80022F6E70322294602F027F80122B5
:102F3000F0E70122294602F021F81122EAE70522F2
:102F4000294602F01BF80A22E4E72D480922294607
:102F5000001D02F013F82A480C222946483032E0BE
:102F60000A22294602F00AF813222946204602F0D6
:102F700005F81422CEE70C22294601F0FFFF204875
:102F800000222946001F1EE00E22294627E00F22BC
:102F9000294601F0F3FF0C22BCE71022294601F07C
:102FA000EDFF0822B6E71122294601F0E7FF0422CF
:102FB000B0E71222294601F0E1FF0522AAE7132219
:102FC00000E000222946BDE8704001F0D7BF06228C
:102FD000F8E714E00A4C052274342946204601F033
:102FE000CDFF072296E71C22294601F0C7FF1522D4
:102FF00090E70422294601F0C1FF02228AE770BD52
:103000000C00004070B50D46044600F011F8A0FB1E
:10301000050122460023FFF7C1F80321801CB0FB05
:10302000F1F0002803D000E000BF401EFCD170BDCD
:1030300070B5094CA06940000AD500F00FF80546AC
:10304000A0690422142101F03CFBB5FBF0F070BD37
:10305000BDE8704000F01AB8002010400A4810B5D2
:10306000C369D8020ED5C3F34502C3F3C53042434A
:1030700000F00CF8C3F3C711A0FB01010023FFF718
:103080008DF810BD002010BD0000104001480069FF
:10309000014870470020104000366E0110B508202E
:1030A00080F31188BFF34F8FBFF36F8F03F078FA6F
:1030B00018B104494FF080500860002080F3118857
:1030C00010BD000004ED00E010B508A10020FFF7DE
:1030D0001BFE094C00221146204600F023F8204632
:1030E0000F22BDE81040002100F02AB874696D6518
:1030F0007230206973720A000020004010B505A1EB
:103100000020FFF701FE0F22BDE810400021044817
:1031100000F016B874696D657231206973720A0027
:103120000030004010B5C36989000F248C40A343D0
:10313000C36102F00F028A40C1690A43C26110BD37
:1031400002F00F0289008A408261704701F068BF77
:10315000016070472DE9F14F82B0D649029801EB2A
:10316000C0046068416985690D404169C9076FD134
:10317000002D6DD0D04A0299EB0602EB012909F12E
:10318000200A28D5816921F0100181616068006AF8
:10319000C0F3434200F00F01022A02D0062A0FD0EA
:1031A00014E0C0F30A168EB109EB0117324657F846
:1031B0008C1F029801F000F938683044386005E04F
:1031C000C0F30A125146029801F0F6F8606881696E
:1031D00041F01001816128034FF0000840F6083BE0
:1031E00046D560680026D0F81818D0F81C080840AA
:1031F000070C3BE0F80737D0F1B262680BEB4110E7
:1032000011581150D2F8140808400090C00724D07B
:103210007EB14FF4316109EB061001EB461150F815
:10322000903F5158C1F312015A1AC0E90082F1B21D
:103230000AE0D9F8900060B1D2F8101BC1F3120176
:10324000421AC9E924820021029802F097FC04E0A6
:1032500029E15146029801F08FF80098000703D544
:103260005146029802F05CFC7F08761C002FC1D109
:10327000680342D560680026D0F81818D0F81C08FA
:10328000084087B237E0F80733D06168F3B2D1F86D
:103290001028D1F8340803F00F0C20FA0CF000F0DD
:1032A000010042EAC01240F6081000EB4313C85870
:1032B000C85010400090C00714D0EEB34FF4116115
:1032C000636809EB061001EB4611026B5958C1F314
:1032D0001201521AC0E90C82F0B240F0800102984B
:1032E00002F034FC0098000603D5F1B2029801F018
:1032F00059F97F08761C002FC5D1E8047ED5616896
:103300004FF4805048616068D0F8041821F0010142
:10331000C0F804181021029801F09EF8029801F0FC
:1033200075F8DE4600204FF0904C4FF4316B40F6BC
:1033300008134FF6FF3228E0FFE76168D9F8300044
:10334000D1F81019C1F31201421AC9E90C82802187
:10335000029802F0FBFBB9F8260018B199F820009A
:103360000006BFD45146029801F006F8BAE760B1F2
:103370004FF41067666807EB401756F80780B8F1FE
:10338000000F0CDA46F807C00AE066684FF00061EB
:10339000C6F800196668C6F8001B00210EE0F1515E
:1033A0004FF43067666807EB401756F80780B8F1AE
:1033B000000F02DA46F807C000E0F1514FF4116641
:1033C000676806EB4016B951666803EB4017F25187
:1033D00067680BEB4016B95167680EEB4016BA519F
:1033E000401CC0B20628C2D36168D1F81C0840F066
:1033F0000110C1F81C080920616800E011E0C1F863
:10340000140861680120C1F8100848464FF4807123
:10341000FEF71DFF029802F0C9FB5146029800F02A
:10342000ABFFA8041AD561684FF40050486160688A
:10343000D0F8080810F0060037D0022837D0062848
:1034400035D00F221D480168029801F02DF8606800
:10345000D0F8041841F48071C0F80418A80203D50C
:1034600061684FF400104861E80203D561684FF4C9
:1034700080104861280506D560684FF400614161FD
:10348000029802F0DFFB002D06DA61684FF0004081
:103490004861029802F0C6FB680704D5606841687D
:1034A00042680A434260BDE8FE8F0022CAE7032259
:1034B000C8E70000A0000020E0020020A8000020D3
:1034C00010B50020FFF746FE002010BD10B5124CCD
:1034D00001202061606111A0A06104F14800E06159
:1034E0004FF4806020620020A0620CA16062C4E9F9
:1034F0000B0104F58961616310212064C4E90E1099
:10350000606409A1E01DFEF7ADFE08A12046FEF7AC
:10351000A9FE2020A07110BDE00300205465726D4B
:10352000696E616C000000005254540053454747D7
:10353000455200000269C1688A4203D88068401A77
:10354000104400E0501A401E704700002DE9FC5F57
:103550000E008146DDE90C47C6F10000984693460F
:10356000824600D40846012503E000BF90FBFBF033
:103570006D1C5845FADAA84500D9454624B1002EFD
:1035800001DB780700D5641EB80702D5B8F1000F3B
:103590000FD0F8070DD164B1A5420AD220214846C8
:1035A000641E00F0A1F8D9F80C000028F3DABDE899
:1035B000FC9FD9F80C000028F9DB002E02DA5646F1
:1035C0002D2102E0780707D52B21484600F08CF822
:1035D000D9F80C000028EADB07F0030002280FD11D
:1035E000B8F1000F0CD15CB1A54209D23021484698
:1035F000641E00F079F8D9F80C000028F3DAD6E759
:10360000CDE9004743465A463146484600F002F8A5
:10361000CDE700002DE9F84F8246DDE90A4B01268F
:10362000984691460D460846374602E0B0FBF9F051
:103630007F1C4845FAD2B84500D947465FEACB70AF
:1036400017D1B4B15FEA8B7002D5B8F1000F02D088
:10365000202000900BE03020FBE75046641E0099CC
:1036600000F042F8DAF80C00002838DB0CB1A74271
:10367000F3D3DAF80C00002831DB00BFB8F1010FFA
:1036800002D9A8F1010803E0B5FBF6F0484502D3E2
:1036900006FB09F6F2E7DFF84C8000BFB5FBF6F059
:1036A00000FB165518F80010504600F01DF8DAF827
:1036B0000C00002803DBB6FBF9F6002EEED15FEA22
:1036C000CB700CD0002C0AD0A74208D22021504643
:1036D000641E00F009F8DAF80C000028F2DABDE800
:1036E000F88F00007C66000210B50446D4E9013072
:1036F000421C934205D323681954A260E068401C21
:10370000E060D4E90102824209D121682069FFF713
:10371000B1FAA168884203D04FF0FF30E06010BDDD
:103720000020A06010BD2DE9F047C4681746894607
:1037300006464FF000083069A04201D9051B02E09F
:10374000B168201A0D1AB0686D1E001BA84200D87F
:103750000546BD4200D33D4670682A46204449468E
:10376000FEF75CFDB0687F1B2C44A844A944A0422E
:1037700000D10024F460002FDDD14046BDE8F08781
:103780002DE9F04104468846D4E90207C51BE168EB
:10379000606816460844B54206D94146FEF73EFD2C
:1037A000B819E060BDE8F0812A464146FEF736FDD3
:1037B000761B08EB050132466068FEF72FFDE660D8
:1037C000F0E700000FB4054B10B503A9044A0298B6
:1037D00000F086F910BC5DF814FB0000B54600024D
:1037E000AC0000207CB50C001D461646014601D0F9
:1037F000601E00E00020CDE90010064B6A46294615
:10380000304600F06DF9002C02D0009A00211170B2
:103810007CBD0000E741000202E008C8121F08C199
:10382000002AFAD170477047002001E001C1121F41
:10383000002AFBD1704700002DE9F8430746C888ED
:103840004FF480780D4640450CD92878000609D4FD
:1038500033A0FFF7B7FF37A0FFF7B4FF3CA0FFF797
:10386000B1FF3BE0C7EB071000EBC0013A48002670
:1038700000EB810404F12C00A060E988E160E98894
:10388000216126750090E88868B1287800060AD47E
:10389000022084F82E01EB8800213846A26801F04E
:1038A00025FFBDE8F88304F110036A46294638462F
:1038B00002F036FB80B1EA882069904200D20246CD
:1038C000E26042450FD916A0FFF77CFF19A0FFF771
:1038D00079FF1FA0FFF776FF84F82E61802138461C
:1038E00001F0E2FEDDE7A0680099884201D001F016
:1038F000E7FBE368012613B184F82E6102E00320A0
:1039000084F82E0180213846A26801F0F1FFE98891
:1039100020698142C5D98006C3D12675C1E7000060
:103920001B5B33316D5B452F757362645F636F7230
:10393000655D2000526571756573742062756666F9
:10394000657220746F6F20736D616C6C0D0A0000DE
:103950001B5B306D00000000B00000202DE9FF5F10
:1039600082B00021DDE90430020DDDF840B00343F0
:1039700018D044F61050A2F2FF32424315141198A9
:1039800001281FD0A5EB0B00401C5FEA000A4FF096
:1039900000064E4FDFF83891B046504615D5CAF1B3
:1039A000000413E0119801244AA3012801D16FEA11
:1039B0000B010298119AC0E90031C0E9024206B039
:1039C000BDE8F09FCBF10000DFE704460021404A4C
:1039D000491842EB0450CDE9001012E0E00707D08F
:1039E00032463B4640464946FEF781FD80468946C1
:1039F00032463B4610461946FEF779FD06460F460D
:103A00006410002CEAD1DDE90401DDE90023BAF1FC
:103A1000000F06DAFEF76BFD42464B46FEF767FDE8
:103A200005E0FEF7D6FD42464B46FEF7D2FD0446C2
:103A30000E460022284BFEF753FE03D84FF0FF300E
:103A4000014607E00022254B20463146FEF713FCD5
:103A5000FEF72EFE102409E0002C0ADB0A220023C8
:103A6000FEF79CFB039B30321A55641E50EA01029C
:103A7000F2D1641C039AC4F111031444119A012A6F
:103A800003D0012208430DD10AE0084304D00020EE
:103A90004FF0110B119072E7A3EB0B056D1E0DE0BB
:103AA0005B4504DD4FF0000205F1010504E003DA97
:103AB0004FF00002A5F10105002AECD002981199FF
:103AC000C0E90231C0E9004579E700000000144078
:103AD0000000F03F300000000000F0430000E03F35
:103AE0002DE9FF4F95B09A46884606460025EEE13F
:103AF000252877D100242746F94A0121039400E0C4
:103B0000044316F8013F203B01FA03F01042F7D1BD
:103B100030782A2811D06FF02F033078A0F13002CE
:103B2000092A16D8039A44F0020402EB820203EB3E
:103B300042021044761C0390EFE758F8042B0392DE
:103B4000002A03DA504244F40054039044F0020483
:103B5000761C30782E2816D116F8010F44F0040494
:103B60002A280DD06FF02F023078A0F13003092BF6
:103B700009D807EB870302EB4303C718761CF3E76A
:103B800058F8047B761C30786C280FD006DC4C2863
:103B900017D068280DD06A2814D104E0742810D0FA
:103BA0007A280FD10DE044F400140AE044F48014A4
:103BB00001E044F440147278824202D104F580148A
:103BC000761C761C307866280BD013DC582877D00A
:103BD00009DC002875D04528F6D04628F4D04728BF
:103BE0001AD193E118E0632835D0642879D065288C
:103BF00012D18BE1702873D008DC6728F1D06928D6
:103C00006FD06E280DD06F2806D1ACE073282CD071
:103C1000752874D0782853D05246179990476D1C58
:103C200054E1C4F30250022809D003280DD0D8F87B
:103C3000001004280DD00D6008F1040846E1D8F802
:103C40000010EA17C1E90052F6E7D8F800100D801D
:103C5000F2E70D70F0E718F8041B8DF80010002053
:103C60008DF80100EB46012003E058F804BB4FF04B
:103C7000FF3061074FF0000102D40DE009F10101AE
:103C80008946B9420FDA8145F8DB1BF80910002993
:103C9000F4D108E009F1010189468142FADB1BF801
:103CA00009100029F6D103985346A0EB09072146D5
:103CB0003846179A00F080FA284400EB090507E01F
:103CC00044E008E10DE01BF8010B524617999047BC
:103CD000B9F10109F7D2534621463846179AF2E066
:103CE00039E00A21C4F302524FF0000B0091022A7E
:103CF00006D058F8040BC117032A09D00AE023E0C4
:103D000008F1070020F00702F2E80201904605E002
:103D100000B2C117042A01D140B2C117002906DA46
:103D20000A460021404261EB02012D2202E02205F9
:103D300004D52B228DF80420012203E0E20701D0F4
:103D40002022F7E7914657E00A2100E010214FF0CA
:103D5000000B00910BE010214FF0000B44F0040425
:103D60000827009103E008204FF0000B0090C4F3F7
:103D70000252022A05D058F8040B0021032A08D069
:103D800008E008F1070020F00702F2E8020190467F
:103D900003E080B2042A00D1C0B24FF0000922072C
:103DA0002AD53278702A07D0DDF800C08CF0100CCC
:103DB0005CEA0B0C05D00EE040228DF804200122B5
:103DC00008E050EA010306D030238DF804308DF866
:103DD000052002229146009B83F0080353EA0B035F
:103DE0000AD150EA010201D1620705D530228DF8CF
:103DF00004204FF001097F1E3278582A04D039A2DE
:103E00000C920CAA02920BE03BA2F9E75B46009AE7
:103E1000FEF7C4F90C9B9B5C029A521E029213702F
:103E200050EA0102F2D1029804A9081A00F1200B0D
:103E3000600702D524F4803400E001275F4502DDED
:103E4000A7EB0B0000E0002000EB0B0100900398B3
:103E50004944401A0390E00306D453462146179A7A
:103E6000039800F0A9F90544002706E001A852468E
:103E7000C05D179990476D1C7F1C4F45F6DBE00332
:103E80000CD553462146179A039800F095F905443E
:103E900004E030205246179990476D1C0099481E47
:103EA00000900029F5DC08E002980299524600785B
:103EB000491C0291179990476D1CBBF10001ABF1B1
:103EC000010BF1DC5BE100F065F90544761C30780C
:103ED00000287FF40DAE19B02846BDE8F08F000031
:103EE00009280100303132333435363738396162D0
:103EF0006364656600000000303132333435363794
:103F0000383941424344454600000000600700D470
:103F1000062708F1070020F00700F0E8022380469A
:103F200003F0004C5FEA0C0001D097A009E02005E7
:103F300001D596A005E0E00701D095A001E0AFF221
:103F40004C001390307823F0004365280CD006DC39
:103F5000452809D046281DD047287FD13BE0662858
:103F600018D067287AD136E00021112F01DB11200B
:103F700000E0781CCDE9000104A90CA8FFF7EEFCD5
:103F8000DDE90D010C9A4FF0000B07F101091092C9
:103F900000914EE04FF000400097CDE9011004A9D8
:103FA0000CA8FFF7DBFCDDE90D020C9B0F994FF02D
:103FB000000B91461093009211B9791C00EB010996
:103FC000B7EB090003D4C0F1FF3B07F10109A9EBEE
:103FD0000700019042E0012F00DA01270021112F94
:103FE00001DD112000E03846CDE9000104A90CA84C
:103FF000FFF7B4FCDDE90D010C9A00914FF0000BC6
:10400000B946109221070FD4009A4A4503DA914627
:1040100001E0A9F10109B9F1010F05DD109AA9F13B
:104020000101515C3029F4D0B84202DA10F1040FDA
:1040300003DA0121CDE9011010E0002803DC8344FC
:10404000A9EB000102E0411C494500DD8946A0EBD7
:104050000B00401C01904FF000400290200705D457
:104060000198484502DB4FF0FF30019000208DF8A9
:104070004B0002980DF14B07B0F1004F25D0022004
:104080000C902B200D90029800280CDA40420290F0
:104090002D200D9007E00A210298FEF793F93031A8
:1040A000029007F8011D0C99481E0C900029F2DCC3
:1040B00002980028EFD1791E0D980870307800F032
:1040C000200040F0450007F8020D11A8C01BC01DDC
:1040D00002901398007800B1012000EB09010198CB
:1040E00001EBE071029801440398401A401E0390CE
:1040F000E00306D453462146179A039800F05CF873
:1041000005441398007818B15246179990476D1CD2
:10411000E00323D553462146179A039800F04CF844
:1041200005441BE0BBF1000F07DB0098584504DD98
:104130001098179910F80B0001E01799302052469B
:10414000904701980BF1010B401E05F1010501900C
:1041500004D12E205246179990476D1CB9F10001E9
:10416000A9F10109DEDC05E017F8010B52461799A9
:1041700090476D1C0299481E02900029F4DC5346BA
:104180002146179A03989EE62D0000002B000000A0
:10419000200000002DE9F041044600251E46174688
:1041A000880404D405E039462020B0476D1C641E05
:1041B000F9D52846BDE8F0812DE9F04104460025F7
:1041C0001E469046C80301D5302700E0202788040A
:1041D00004D505E041463846B0476D1C641EF9D54C
:1041E0002846BDE8F0814A68002A06D00A68531CB8
:1041F0000B6010704868401E48607047C26B0A43ED
:10420000C2637047416B406BC1F30521C0F301608D
:1042100041EA80107047C06B7047C06A0860704701
:10422000406BC0F380307047406BC0F3C0507047A4
:10423000C1627047C900B1FBF2F2D109A2EBC11211
:10424000521C52084162B1F5803F0CD259B1A1F520
:104250007F43FF3B04D08262C16AC1620020704785
:1042600000218162F8E74FF0FF3070478069C0F3AA
:10427000001070478069C0F3C01070478069C0F3B8
:1042800040107047C06B704770B505460020164659
:104290000C4628636864A86368606862A862E86284
:1042A000D4E903122846FFF7C5FF10B14FF0FF30E5
:1042B00070BD60782278C0F38001C90141EA4211E3
:1042C000A27800F0030041EA0211E27841EAC2015B
:1042D00041EA4000E862B4F8090040BA6863AE639E
:1042E000A0792179E27940EA41206179090241EA25
:1042F000C2310843217A40EA81302863002070BD32
:104300000A46014601A0FFF75DFAFEE76173736597
:104310007274206661696C65643A2066696C652018
:1043200025732C206C696E652025640D0A00000041
:1043300070B5064D04462846FFF7A0FF0128FAD0C5
:1043400021782846FEF704FF002070BD00100140D0
:104350000FB4802100B5A1B06846FDF778FF23AB0C
:1043600080216846229AFFF73DFA0146684602F02E
:10437000FFF821B05DF814FB0E49002201EBC000EC
:104380004168C1F8102B4168D1F8102B42F400228B
:10439000C1F8102B4168D1F8102B42F01802C1F877
:1043A000102B4068D0F8101B41F0C041C0F8101B22
:1043B00070470000A000002010B5D21C074C9308E5
:1043C000002204EBC00005E0446804F58054246832
:1043D000521C10C19A42F7D310BD0000A00000206B
:1043E00070B5094DDB1C05EBC0059C084FF48050EF
:1043F000002300EB013003E06E6802CA31505B1C01
:10440000A342F9D370BD0000A000002018B500221F
:10441000104C0F49531E04EBC0000092009C641C1A
:1044200000948C420CD844682469002CF6DA00927F
:10443000446810222261009A521C00928A4201D9DB
:10444000184618BD42681269D206F4D4002018BD7F
:10445000400D0300A000002038B50023114C104A85
:104460005D1E04EBC0000093009C641C0094944209
:104470000ED844682469002CF6DA0093202343EA1E
:104480008111436819610099491C0091914201D939
:10449000284638BD416809698906F4D4002038BD32
:1044A000400D0300A0000020032A3ED12A4A2B4BD6
:1044B0000A449A4201D20F2138E0294A294B0A4482
:1044C0009A4201D20E2131E0274A284B0A449A42EF
:1044D00001D20D212AE0264A264B0A449A4201D2F3
:1044E0000C2123E0244A254B0A449A4201D20B2195
:1044F0001CE0234A234B0A449A4201D20A2115E0C8
:10450000214A224B0A449A420FD3214A214B0A44A2
:104510009A4201D2082109E01F4A11441F4A9142E0
:1045200001D2072102E0062100E009211C4A02EB2A
:10453000C0004268D36843F00703D3604268D36881
:1045400023F47053D3604068C2684FF4705303EA99
:1045500081210A43C2607047405327FF00350C0099
:10456000401E1BFF40420F0000DC0BFF804F12007B
:10457000808CF9FE20D6130060B6E5FE60E31600DD
:1045800000D3CEFE40771B00C05BB3FEC09121007C
:1045900000CA91FE20753800E05459FEE09C4100AD
:1045A000A00000202DE9F04F81463C480E4600EB6C
:1045B000092000EB0614D4E90C01401A218D814238
:1045C00000D20846C01C4FEA90084FF410603449EE
:1045D00000EB461A40F6181001EBC90500EB461730
:1045E00042E000BFA1EB020B218D594500D28B4662
:1045F00094F82A10012928D1D0F80818C90550F8D4
:104600000A1009D421F0805251464250686850F88F
:104610000A1041F0005208E021F000525146425089
:10462000686850F80A1041F0805240F80A204FF4B0
:104630001160696800EB46100A5822F0C0420A5027
:1046400069680A5842F000520A501FFA8BF331464B
:104650004846E26AFFF7C4FEE16A01EB0B00E06244
:10466000616B01EB0B0060636868C1598AB2424517
:1046700005D3D4E90C128A4201D20029B2D1D4E97F
:104680000C12914208D806F00F0201219140D0F897
:1046900034288A43C0F83428BDE8F08FE0020020B7
:1046A000A000002001700A0A42700A0C8270090EF4
:1046B000C170704713B500216846FFF739FE0098B6
:1046C0001CBDC84001219140491E084000D1012075
:1046D000704710B50020FEF7EDFB0120FEF7EAFB66
:1046E000002400212046FEF7E3F901212046FEF7D1
:1046F00047F800212046FEF773F8641CE4B2032C4F
:10470000EFD3052400212046FEF7D2F901212046EF
:10471000FEF736F800212046FEF762F8641CE4B28A
:10472000292CEFD310BD0000FFF7D3FF154DA8785B
:1047300008B1002000E00120A8700024A9782046DC
:10474000FEF74EF82B7822460FA10020FEF7DCFA88
:10475000641CE4B2032CF1D30524A9782046FEF7AB
:104760003FF82B78224608A10020FEF7CDFA641C02
:10477000E4B22A2CF1D34FF47A700146FEF742FCE2
:10478000D5E7000022000020676574206770696F1C
:104790002076616C2070696E202564203A25640DB6
:1047A0000A000000C0EB0010054900EBC00001EB5F
:1047B000800090F82C01002800D0012070470000F4
:1047C000B000002070B50E4C0C4D218825F811006A
:1047D000491C89B22180092902D8B0F5806F0CD11B
:1047E00008A10020FEF790FA0020014625F81010DD
:1047F000401CC0B20A28F9D3218070BD54090020A2
:10480000380000202D2D2D2D2D2D2D2D2D2D2D2D34
:104810002D2D2D2D2D2D2D2D2D2D2D0D0A00000092
:1048200072B61C481C49086062B61B49091D08681D
:104830004FF6FF021040194A1043086045F6C05475
:104840004FF0E020611E4161154AF82182F8141DE5
:10485000002181610721016100F0A8FB11A0FFF791
:1048600077FDFEF704FA14A10020FEF74DFAFFF7DA
:104870005BFF4FF47A7642F2107512A0FEF7A2FFAA
:1048800030463146FEF7BEFB29462046FEF7BAFB0E
:10489000F3E700000020000208ED00E00000FA0548
:1048A0000FE000E0646562756720756172745F7483
:1048B0006573740D0A000000646562756720727488
:1048C000740D0A0068656C6C6F20776F726C640DF4
:1048D0000A0000002DE9F8430020284D00902846EA
:1048E000FFF799FC064626A10020FEF70DFAF00618
:1048F00017D527A10020FEF707FADFF8A880404669
:10490000FFF780FC0746002409E069464046FFF7B0
:1049100084FC25A10020009AFEF7F6F9641CBC4235
:10492000F3D3700709D40DE069462846FFF775FCFC
:104930001DA10020009AFEF7E7F92846FFF770FC5A
:104940000028F1D000241E4E07E0072C00D90024D7
:104950002846315DFFF76CFC641C2846FFF764FCB9
:104960000028F2D0FF212846FFF748FC15A10020BF
:10497000FEF7CAF90020BDE8F883000000001640E9
:104980003E3E3E696E70757420696E74200D0A009B
:104990003E3E3E73706920656E6420696E742065CA
:1049A0006E0D0A0000E000403E3E3E7370692072CA
:1049B0007820646174613A307825780D0A0000002F
:1049C0005C0000203E3E3E73706920656E640D0AF7
:1049D000000000000648416B096829B1416BC968B5
:1049E000C9684968816270474FF0FF31FAE70000FB
:1049F0006400002070B50020FEF700F90446002096
:104A0000FEF704F90546214620A0FEF7DBFEA9B219
:104A100022A0FEF7D7FE2648008A81B21FA0FEF72B
:104A2000D1FEA00502D523A0FEF7CCFEE00502D5FD
:104A300027A0FEF7C7FE200602D52CA0FEF7C2FE77
:104A4000600602D530A0FEF7BDFEA00602D535A057
:104A5000FEF7B8FEE00602D539A0FEF7B3FE200748
:104A600002D53EA0FEF7AEFE600702D542A0FEF7DB
:104A7000A9FEA00702D547A0FEF7A4FEE00702D0DA
:104A80004BA0FEF79FFE002070BD000073746174A0
:104A9000653A307825780D0A000000007063617077
:104AA0002076616C653A307825780D0A00000000A8
:104AB00000900040514445435F494E545F42554683
:104AC0005F46554C4C5F53544154450D0A0000005D
:104AD000514445435F494E545F5044435F454E4403
:104AE0005F53544154450D0A0000000051444546AF
:104AF0005F494E545F45545247535F434D425F53A5
:104B0000544154450D0A0000514445435F494E54F9
:104B10005F4C445242535F434D425F5354415445AE
:104B20000D0A0000514445435F494E545F4C4452C6
:104B300041535F434D425F53544154450D0A0000B9
:104B4000514445435F494E545F435043535F434D87
:104B5000425F53544154450D0A00000051444543FF
:104B60005F494E545F435042535F434D425F53543D
:104B70004154450D0A000000514445435F494E54DD
:104B80005F435041535F434D425F53544154450D81
:104B90000A000000514445435F494E545F4C4F5654
:104BA00046535F434D425F53544154450D0A000044
:104BB000514445435F494E545F434F5646535F430C
:104BC0004D425F53544154450D0A000070B500201A
:104BD000FEF714F804460020FEF718F805462146B3
:104BE00020A0FEF7EFFDA9B222A0FEF7EBFD2648BC
:104BF000B0F8500081B21FA0FEF7E4FDA00502D579
:104C000022A0FEF7DFFDE00502D527A0FEF7DAFDC2
:104C1000200602D52BA0FEF7D5FD600602D530A0F8
:104C2000FEF7D0FDA00602D534A0FEF7CBFDE006CE
:104C300002D539A0FEF7C6FD200702D53DA0FEF73C
:104C4000C1FD600702D542A0FEF7BCFDA00702D55A
:104C500046A0FEF7B7FDE00702D04BA0FEF7B2FD7D
:104C6000002070BD73746174653A307825780D0A40
:104C700000000000706361702076616C653A3078E6
:104C800025780D0A00000000009000405144454383
:104C90005F494E545F4255465F46554C4C5F5354F6
:104CA0004154450D0A000000514445435F494E54AC
:104CB0005F5044435F454E445F53544154450D0A91
:104CC00000000000514445465F494E545F45545230
:104CD00047535F434D425F53544154450D0A000012
:104CE000514445435F494E545F4C445242535F43E5
:104CF0004D425F53544154450D0A00005144454311
:104D00005F494E545F4C445241535F434D425F53A1
:104D1000544154450D0A0000514445435F494E54E7
:104D20005F435043535F434D425F53544154450DDD
:104D30000A000000514445435F494E545F435042CE
:104D4000535F434D425F53544154450D0A000000E8
:104D5000514445435F494E545F435041535F434D77
:104D6000425F53544154450D0A00000051444543ED
:104D70005F494E545F4C4F5646535F434D425F531D
:104D8000544154450D0A0000514445435F494E5477
:104D90005F434F5646535F434D425F535441544522
:104DA0000D0A000070B50020FDF728FF0446002022
:104DB000FDF72CFF0546214620A0FEF703FDA9B212
:104DC00022A0FEF7FFFC2648008A81B21FA0FEF752
:104DD000F9FCA00502D523A0FEF7F4FCE00502D5FE
:104DE00027A0FEF7EFFC200602D52CA0FEF7EAFC78
:104DF000600602D530A0FEF7E5FCA00602D535A07E
:104E0000FEF7E0FCE00602D539A0FEF7DBFC200748
:104E100002D53EA0FEF7D6FC600702D542A0FEF701
:104E2000D1FCA00702D547A0FEF7CCFCE00702D0DA
:104E30004BA0FEF7C7FC002070BD000073746174C6
:104E4000653A307825780D0A0000000070636170C3
:104E50002076616C653A307825780D0A00000000F4
:104E600000900040514445435F494E545F425546CF
:104E70005F46554C4C5F53544154450D0A000000A9
:104E8000514445435F494E545F5044435F454E444F
:104E90005F53544154450D0A0000000051444546FB
:104EA0005F494E545F45545247535F434D425F53F1
:104EB000544154450D0A0000514445435F494E5446
:104EC0005F4C445242535F434D425F5354415445FB
:104ED0000D0A0000514445435F494E545F4C445213
:104EE00041535F434D425F53544154450D0A000006
:104EF000514445435F494E545F435043535F434DD4
:104F0000425F53544154450D0A000000514445434B
:104F10005F494E545F435042535F434D425F535489
:104F20004154450D0A000000514445435F494E5429
:104F30005F435041535F434D425F53544154450DCD
:104F40000A000000514445435F494E545F4C4F56A0
:104F500046535F434D425F53544154450D0A000090
:104F6000514445435F494E545F434F5646535F4358
:104F70004D425F53544154450D0A000010B50123C2
:104F8000046893409C4391400C43046010BD30B5CD
:104F900001249440641E04FA03F2D54302682140C0
:104FA0002A4099400A43026030BD000000B585B038
:104FB00003208DF80000012000218DF804008DF8F9
:104FC00001108DF805008DF808108DF802008DF89D
:104FD00006008DF809008DF80A000F4803904FF481
:104FE000612004908DF803108DF807100846FDF736
:104FF00061FF4FF40830FDF760FF0F210120FDF73E
:1050000057FD02210020FDF73FFD3022694603488D
:10501000FFF73AF905B000BD00366E0100100140FF
:105020002DE9F0411A4E1B4F1B4D3046FFF72AF970
:1050300004002BD07464E00605D40DE031682868C4
:105040003954401C28603046FFF710F90128F5D18B
:1050500012A10020FDF758FE600605D40DE030686F
:1050600029687854491C29603046FFF7FFF8012869
:10507000F5D10DA10020FDF747FE29680020054A63
:1050800078540CA12860FDF73FFECEE7BDE8F08123
:1050900000100140540800200000002066756C6C70
:1050A00020696E69740D0A0074696D65206F7574EE
:1050B000000000000A647374203D2025730A00007C
:1050C0002DE9F0410746054680071646B0EB817F83
:1050D00005D02CE011F8010B05F8010B761EA8078E
:1050E0000FD0002EF6D10CE001C9103E01C501C958
:1050F00001C551F8080B45F8080B51F8040C45F8A8
:10510000040C102EF0D202E001C9361F01C5042E96
:10511000FAD203E011F8010B05F8010B761EF9D263
:1051200034E000BF11F8010B05F8010B761E1EB12B
:105130008807F7D10C4617E00C4625E02846216881
:10514000FFF7B0FA2D1D28466168FFF7ABFA2D1D59
:105150002846A168FFF7A6FA2D1DE16828461034FD
:10516000FFF7A0FA2D1D103E102EE7D205E002CC6D
:105170002846FFF797FA2D1D361F042EF7D203E0BD
:1051800014F8010B05F8010B761EF9D23846BDE87C
:10519000F08100002DE9F04188460746C0EB07107A
:1051A000124900EBC0001546002401EB800616E012
:1051B00006EB8400D0F834015DB170B1C36863B10F
:1051C000A978007E814208D12A4641463846984750
:1051D00003E010B1C368002BF6D1641CE4B296F86A
:1051E0008401A042E4D8BDE8F0810000B0000020B6
:1051F0002DE9F0410C78C0EB0015224E04F00304B9
:1052000005EBC50506EB8505012C02D0022C1FD04D
:1052100033E0002495F8847117E000BF05EB8406A5
:10522000D6F834617EB1D6F800C0BCF1000F0AD0C8
:1052300096F818C091F804E0F44504D13468A44607
:10524000BDE8F0416047641CE4B2A742E6D814E030
:10525000002495F884710EE005EB8406D6F83461DD
:105260003EB1D6F804C0BCF1000F02D0BDE8F04159
:105270006047641CE4B2A742EED84FF0FF30BDE8AF
:10528000F0810000B000002030B5174B174A03EB47
:10529000C00321F080040D0602EB002221F0800102
:1052A000586802EB01120AD44FF4306101EB44114B
:1052B000445824F40014445092F88A0009E04FF452
:1052C000106101EB4411445824F40014445092F846
:1052D0002A00032801D0022804D15868425842F01D
:1052E00080524250002030BDA0000020E00200208B
:1052F000F8B5002521F080020B064449009501EB2A
:10530000C0004FF0020741684FF001044CF25036E4
:105310003DD44FF4306303EB421351F803C0BCF1AA
:10532000000F22DA51F803C04CF0006C41F803C0C2
:10533000416851F803C04CF0804C41F803C040F67E
:105340000831D0F804C001EB421100BFDDF800E0E5
:105350000EF1010ECDF800E0B64504D85CF801E08E
:105360005FEA8E7EF2D54CF801704168D1F83C6856
:1053700002F00702944026EA0442C1F83C28416842
:10538000D1F81C2822EA0442C1F81C2839E04FF465
:10539000106303EB421351F803C0BCF1000F20DA95
:1053A00051F803C04CF0006C41F803C0416851F85B
:1053B00003C04CF0804C41F803C040F6081101EBEB
:1053C000421C4168DDF800E00EF1010ECDF800E06E
:1053D000B64504D851F80CE05FEA8E7EF2D541F86C
:1053E0000C704168D1F83C6802F007029440A2B208
:1053F0009643C1F83C684168D1F81C489443C1F811
:105400001C484068C5500020F8BD0000A0000020E6
:1054100070B50D4E21F0800306EBC0000D0640680C
:105420004FF000014FF0010402D44FF4306501E069
:105430004FF4106505EB4313C058800201D514707A
:1054400000E01170002070BDA00000202DE9F041A7
:105450008A780C4622F08001062917D352A0FEF765
:10546000B1F94FF4367354A25DA165A0FEF7AAF915
:105470006AA0FEF7A7F94CA0FEF7A4F9A17869A0ED
:10548000FEF7A0F965A0FEF79DF9FEE75FEA026C62
:105490006A4D6C4A6A4F4FF0010302EBC00205EB04
:1054A00000262AD4A088C0F30A0506EB011020F8D4
:1054B000885FE57805F0030585705068D0F81C58C2
:1054C00001F11006B3406FF30F031D43C0F81C58E1
:1054D00050684FF4306202EB4111425812045FD41D
:1054E0004258A388C3F30A031A43E37803F0030383
:1054F00047EA83431A43425052E05568002925D0B9
:105500004FF4807C0CEB810C55F80C50B4F804C0BF
:105510002D0CCCF30A0CBCEB850F19D922A0FEF799
:1055200051F940F2EE2324A247A135A0FEF74AF933
:105530003AA0FEF747F91CA0FEF744F9A17852A063
:10554000FEF740F935A0FEF73DF9FEE7AD6ADDE76D
:1055500006EB0115A5F828C0E67806F0030685F8E5
:105560002A605568D5F81C688B409BB21E43C5F86D
:105570001C6853684FF4106202EB41129D582D04D1
:105580000CD49D58A688E478C6F30A06A407240B19
:10559000354344EA815425433D439D50FEF75CFF6B
:1055A0000020BDE8F08100001B5B33316D5B452FAF
:1055B0005553425D2000000074686972645C436862
:1055C000657272795553425C706F72745C64776374
:1055D000325C7573625F64635F647763322E63006D
:1055E00065705F696478203C20434F4E4649475FB1
:1055F0005553424445565F45505F4E554D0000009F
:10560000415353455254204641494C205B25735D1C
:1056100020402025733A25640D0A00001B5B306D85
:1056200000000000457020616464722025303278EB
:10563000206F766572666C6F770D0A00E0020020BD
:1056400000800010A0000020286669666F5F736903
:105650007A65202A203429203E3D205553425F4759
:1056600045545F4D41585041434B455453495A4569
:105670002865702D3E774D61785061636B6574537A
:10568000697A652900000000457020616464722019
:1056900025303278206669666F206F766572666C99
:1056A0006F770D0A0000000010B521F080020C0693
:1056B0000D4901EBC003586808D44FF4306107E08E
:1056C0005AB1425822F08042425006E04FF4106135
:1056D00001EB42114458002CF2DA5868425842F467
:1056E00000124250002010BDA00000202DE9F04122
:1056F00021F08006940716D053A0FEF763F840F21D
:10570000B93355A25EA165A0FEF75CF86AA0FEF76A
:1057100059F84DA0FEF756F869A0FEF753F866A0B9
:10572000FEF750F8FEE722B91BB14FF0FF30BDE89D
:10573000F0816C4C4FF4306521F0800105EB411194
:1057400004EBC0041EB165686D586D0539D0664D17
:1057500005EB002707EB06150020C5F88C20C5E9EE
:1057600024304FF43160626800EB461052F800C0FC
:10577000DFF878E10CEA0E0C42F800C0626852F8DB
:1057800000C06FF3120C42F800C0EBB146B3B5F89D
:1057900088205E1E1644B6FBF2F2666837586FF03A
:1057A000604C0CEAC2421743375062681658C3F384
:1057B00012031E4342F8006095F88A00012826D0A3
:1057C0003BE06FF00100B2E76268135843F4002336
:1057D000135062681358B5F888502B4313502CE0CF
:1057E000B7F88800984200D20346C7F89030606846
:1057F000D0F8102B42F40022C0F8102B6068D0F8CB
:10580000102BC3F312031A43C0F8102BD4E76068BF
:10581000D0F80828D205425807D422F080524250CE
:105820006068425842F0005206E022F000524250B6
:105830006068425842F0805242506068425842F0DC
:1058400004424250002072E71B5B33316D5B452FF1
:105850005553425D2000000074686972645C4368BF
:10586000657272795553425C706F72745C647763D1
:10587000325C7573625F64635F647763322E6300CA
:1058800021282875696E7433325F742964617461EC
:105890002025203078303429000000004153534542
:1058A0005254204641494C205B25735D2040202501
:1058B000733A25640D0A00001B5B306D0000000088
:1058C000647763322064617461206D757374206243
:1058D0006520342D6279746520616C69676E65643A
:1058E0000D0A0000A0000020E0020020FFFF07E0FA
:1058F0002DE9F04121F08005940716D05EA0FDF758
:1059000061FF40F2753360A269A170A0FDF75AFFF4
:1059100075A0FDF757FF58A0FDF754FF74A0FDF7E1
:1059200051FF71A0FDF74EFFFEE722B91BB14FF00A
:10593000FF30BDE8F0814FF4106421F0800104EBEA
:105940004111744C04EBC0041DB1666876587605AD
:105950003BD0714E06EB002707EB05160020F262E4
:10596000C6E90C304FF41160626800EB451052F844
:1059700000C0DFF8A8E10CEA0E0C42F800C0626833
:1059800052F800C06FF3120C42F800C003B355B3D5
:10599000328D5F1E1744B7FBF2F2676857F800C0FC
:1059A0006FF0604E0EEAC2424CEA020C47F800C0AB
:1059B00062681758C3F3120C47EA0C0742F80070EC
:1059C00096F82A20012A24D043E06FF00100B0E7C6
:1059D0006268135843F4002313506068425842F041
:1059E0000442425045E03A8D9A4200D213463B634E
:1059F0006268D2F8107947F40027C2F8107962681B
:105A0000D2F81079C3F3120C47EA0C07C2F81079E8
:105A1000D6E76268D2F80868F605565807D426F02B
:105A2000805656506268565846F0005606E026F0FA
:105A3000005656506268565846F080565650626876
:105A4000165826F0C04616506268165846F00056A2
:105A500016506068425842F0044242504BB16068B0
:105A6000D0F8341805F00F0301229A401143C0F812
:105A7000341800205DE700001B5B33316D5B452F60
:105A80005553425D2000000074686972645C43688D
:105A9000657272795553425C706F72745C6477639F
:105AA000325C7573625F64635F647763322E630098
:105AB00021282875696E7433325F742964617461BA
:105AC0002025203078303429000000004153534510
:105AD0005254204641494C205B25735D20402025CF
:105AE000733A25640D0A00001B5B306D0000000056
:105AF000647763322064617461206D757374206211
:105B00006520342D6279746520616C69676E656407
:105B10000D0A0000A0000020E0020020FFFF07E0C7
:105B200070B50546C0EB0510074A00EBC00002EB5C
:105B3000800408222046FFF7C3FA21462846BDE824
:105B40007040FDF779BE0000B000002030B4C0EB1B
:105B5000001303EBC304084B03EB840301F07F0441
:105B600004EB440403EB8403D3F89031002B01D001
:105B700030BC184730BC7047B000002030B4C0EBD8
:105B8000001303EBC304084B03EB840301F07F0411
:105B900004EB440403EB8403D3F8D831002B01D089
:105BA00030BC184730BC7047B00000207CB50646BA
:105BB000002100F00FF9C6EB061000EBC0011848F9
:105BC000002400EB8105072085F82D4185F82C4144
:105BD00085F82E418DF8000005208DF80100402049
:105BE000ADF804008DF8034080208DF802008DF898
:105BF00006406946304605F59675FFF727FC8DF897
:105C0000024069463046FFF721FC00220121304660
:105C1000FFF7C0FAD5F8EC200121304690477CBD53
:105C2000B0000020C0EB001101EBC10304490022C9
:105C300001EB830181F83221D1F8182206211047A7
:105C4000B0000020C0EB001101EBC102074901EBDD
:105C5000820191F82D21002A06D0012281F83221FB
:105C6000D1F818220521104770470000B00000202D
:105C70002DE9F0410C46250AE6B200212E4CC0EB7E
:105C8000001000EBC0000F4604EB8000032D09D08C
:105C90000F2D14D0042D01D0052D05D34FF0000099
:105CA000BDE8F081EE2E01D0846926E0C1690029AB
:105CB000F4D009681160C0690068007806E0416AA4
:105CC0000029EBD009681160406A40681860012023
:105CD000E6E700BF94F801E0AE450DD1B1420AD12C
:105CE0000127022D1AD0072D18D00CF0FF001860E4
:105CF00014603846D4E7491C644494F800C0BCF1F1
:105D0000000FE7D10DA0FDF75DFD3246294610A03A
:105D1000FDF758FD1BA0FDF755FDEAE76188196006
:105D2000E179C1F3801180F82F11E179C1F34011BD
:105D300080F83011DCE70000B00000201B5B33313D
:105D40006D5B452F757362645F636F72655D2000E4
:105D500064657363726970746F72203C74797065E6
:105D60003A3078253032782C696E6465783A30782C
:105D7000253032783E206E6F7420666F756E642118
:105D80000D0A00001B5B306D000000001CB50446CE
:105D900008A0FDF717FDE188A088CDE90001638820
:105DA000627821780848FDF70DFDBDE81C4007A08A
:105DB000FDF708BD1B5B33326D5B492F7573626461
:105DC0005F636F72655D20004C6A00021B5B306D83
:105DD000000000000A4A02EBC0004268D2F8003816
:105DE00023F4FE63C2F800384068D0F800284FF46E
:105DF000FE6303EA01110A43C0F80028002070473F
:105E0000A000002070B58A781A4B1506C0EB00166A
:105E10008C8802F07F0206EBC60602EB420203EB1F
:105E20008603C4F30A0403EB82020ED5A2F88A416A
:105E30008C788A8804F07F0404EB440403EB840329
:105E4000C2F3C12283F889210DE0A2F8D2418C78F7
:105E50008A8804F07F0404EB440403EB8403C2F358
:105E6000C12283F8D121FFF7F1FA08B1002070BDFB
:105E7000012070BDB00000202DE9F74F8346C0EB34
:105E80000B1026494FF0000A00EBC00001EB800028
:105E90004FF0FF09C846564657465546846932E0DA
:105EA0006078022804D0042805D005281BD10EE014
:105EB0000025678817E094F80280019994F8039010
:105EC000884510D1029989450DD1A2460BE0019970
:105ED000884508D10298214660B1814503D15846D2
:105EE000FFF790FF0646207805440444BD420AD3DC
:105EF0004FB10BE05846A178FFF7FAF908B1002638
:105F0000F1E70126EFE720780028C9D152460821A1
:105F10005846FFF73FF93046BDE8FE8FB00000203D
:105F200070B50D780C4615F0600104D0202921D001
:105F3000402930D131E0214615F0030504D0012D70
:105F400005D0022D0AD105E000F068F804E000F069
:105F50008BF901E000F00EF9002828D160780628BE
:105F600003D16088B0F5C06F15D012A0FDF72AFCF0
:105F700015A008E02146FFF73BF9002817DA0DA02D
:105F8000FDF720FC17A0FDF71DFC1CA0FDF71AFC77
:105F90002046FFF7FBFE002070BD214600F0F2F91D
:105FA000002804DA03A0FDF70DFC16A0EBE70120A2
:105FB00070BD00001B5B33316D5B452F75736264F0
:105FC0005F636F72655D20007374616E64617264FB
:105FD0002072657175657374206572726F720D0A37
:105FE00000000000636C61737320726571756573E6
:105FF00074206572726F720D0A0000001B5B306DB9
:106000000000000076656E646F72207265717565C0
:106010007374206572726F720D0A00002DE9FF5FC4
:1060200098460B46074601265B78514CC7EB07158F
:10603000498805EBC50530464FF0000A04EB85049E
:106040000A2B3ED2DFE803F0051C3D1C3D30373DF6
:106050003F491368514683F800A094F82F310BB1E3
:106060001368187094F8310120B11068037843F078
:1060700002030370106841700221C8F8001028E084
:10608000012908D1032B09D084F831A1D4F81822B2
:106090000A2138469047C8F800A01AE084F8310178
:1060A0000921D4F81822F4E7C9B284F82D11384632
:1060B000FFF790FEEFE743463846FFF7D9FD064667
:1060C00007E0002605E0126894F82C111170C8F85A
:1060D000000004B03046BDE8F09FC8B25FEA000B94
:1060E00009D000200190FF20009003900020029032
:1060F0008146A56929E084F82CA1CCE769780229BA
:1061000004D004290CD0052918D10CE06979039139
:10611000594513D1698801204FF0000902910DE023
:10612000E97800910AE00399594507D1DDE90012A9
:10613000914203D129463846FFF764FE2978029A36
:1061400089440D44914500D312B929780029D5D14D
:1061500060B184F82CB184F832A1002207213846BE
:10616000FFF718F80721D4F8182292E7002692E7E3
:10617000B00000202DE9F84F1E4617460D46824616
:1061800091F804900124FEF70DFB002809D06878EF
:106190004FF0000838B101281AD003282BD0002472
:1061A0002046BDE8F88F6A4649465046FFF730F969
:1061B0009DF8000018B139680120087002E03968C4
:1061C00081F800803968022081F801803060E7E7BB
:1061D000688870B912A0FDF7F5FA494615A0FDF7D9
:1061E000F1FA1AA0FDF7EEFA49465046FFF74CF8CF
:1061F000D6E7002410E068880028FAD108A0FDF74F
:10620000E1FA494613A0FDF7DDFA10A0FDF7DAFA2E
:1062100049465046FFF748FAC6F80080C0E700003C
:106220001B5B33316D5B452F757362645F636F7207
:10623000655D200065703A2530327820636C6561B9
:10624000722068616C740D0A000000001B5B306DE9
:106250000000000065703A253032782073657420A4
:1062600068616C740D0A00002DE9FF4F488883B007
:10627000000A0290002091F804B081460090FF20AF
:10628000019003980D46C0EB001000EBC0013C48A4
:106290001E4600EB810817464FF0010AD8F8184057
:1062A0000398FEF77FFA002849D068780C284DD271
:1062B000DFE800F0064C4C4C4C4C0D4C4C4C4F590C
:1062C00039680020087039684870022048E0029858
:1062D00021281ED0222820D038E06178022904D05D
:1062E000042907D021290ED107E061884FF0000969
:1062F000009108E0A178019105E00199594502D18A
:106300003C60207819E0009981440444894500D319
:10631000E1B920780028E0D118E0002098F8842125
:1063200012E000BF08EB8001D1F8341151B10C7EAE
:106330005C4507D10869386048693060012007B0C2
:10634000BDE8F08F401CC0B28242EBD84FF0000A8B
:1063500007E008EB0B00396890F874010870012021
:1063600030605046EBE708EB0B01A87881F8740128
:10637000AA7829790398FFF77FFD0020F0E7000055
:10638000B00000202DE9F04782460C46C0EB0A1011
:1063900000EBC0013C48904600EB81051F46E869D0
:1063A0004FF0FF3980B36178027991423CD1A188E6
:1063B000042902D005291DD105E08168C8F8001024
:1063C000E86980680AE0C068618850F82110C8F860
:1063D0000010E8696188C06850F8210001784278AF
:1063E00001EB02218278C078120402EB00600844BD
:1063F000186029E025A0FDF7E5F929A0FDF7E2F9ED
:106400002DA0FDF7DFF93CE0FFE7286A60B1617875
:106410008279914208D1A1880729EBD10168C8F897
:106420000010286A8088E3E7A86A80B16178027862
:1064300091420CD1A1880229DCD1D0F80510D0F806
:106440000120C8F8002019600020BDE8F087002670
:1064500013E000BF05EB8600D0F8340158B1D0F846
:1064600008C0BCF1000F06D03B46424621465046CC
:10647000E0470028E9D0761CF6B295F88401B042D6
:10648000E8D84846E1E70000B00000201B5B33314C
:106490006D5B452F757362645F636F72655D20008D
:1064A000756E6B6E6F776E2076656E646F722063AB
:1064B0006F64650D0A0000001B5B306D000000007A
:1064C000D0E9013201699A60D0E901235A604A6833
:1064D000824201D182684A60002202610868401E3F
:1064E00008600868704742684A6093688B609368E8
:1064F0005960916008610168491C016070470000A3
:1065000070B5134C206B10B10120E06170BD00200C
:10651000E06120690F4EB0FA80F0C0F11F0000EB7F
:10652000800556F8250020B940F6B7310AA0FDF7DE
:10653000E7FE06EB850000F108024168496841600A
:10654000914201D149684160C868206070BD000077
:10655000640000206809002074686972645C4672F7
:10656000656552544F535C7461736B732E63000006
:106570002DE9F0410E4607460024084D09E0284663
:10658000FDF778FE0028FAD0395D2846FCF7E0FDDB
:10659000641CB442F3DBBDE8F08100000010014050
:1065A0002DE9F0412D4C0027206B40B1A069401C23
:1065B000A061E06900B101273846BDE8F081E668D6
:1065C000761CE66010D1606B006820B140F67F2138
:1065D00023A0FDF795FE606BA16B6163A063206A49
:1065E000401C2062FEF7F6F9A06ADFF88C80864234
:1065F00009D3606B006880B1606BC068C56868686B
:1066000086420DD2A0622068C06A00EB800158F873
:1066100021000128CDD90127CBE74FF0FF30F1E76A
:10662000281DFFF74DFFA86A18B105F11800FFF704
:1066300047FFE86A0121226981401143216100EB93
:10664000800108EB8100291DFFF74DFFE86A2168F2
:10665000C96A8842CDD30127CBE70000640000203F
:1066600074686972645C4672656552544F535C7419
:1066700061736B732E630000680900203031323380
:10668000343536373839414243444546DFFFFFAAA7
:10669000AA48808008020A7FFFFE0020080E1F9093
:1066A000DFFFFF55552440400401067FFFFD001029
:1066B000040E9F90DFFFFFAAA89020200200827F97
:1066C000FFFC8008020E5FD0DFFFFF555648101018
:1066D000010042FFFFFC4004010F1FB0FFFFFFAAB3
:1066E000A926080800802B7FFFFC2002008E1F9047
:1066F000DFFFFF55549304040040167FFFFC100198
:10670000004E3F90DFFFFFAAAA4802020022027F4C
:10671000FFFC0800802E1FD0DFFFFF55552601012A
:106720000011027FFFFC0400401E9FB0DFFFFFAAA4
:10673000A892800080088A7FFFFC0200280E5F90EC
:10674000DFFFFF55564A40004004467FFFFC010032
:10675000140F1F90DFFFFFAAA92620002000227F30
:10676000FFFC0080020E1FD0DFFFFF555490100089
:106770001000127FFFFC0040010E3FB0DFFFFFAAB8
:10678000AA49088008020A7FFFFE0020008E1F90A1
:10679000DFFFFF55552504400401067FFFFD001073
:1067A000004E9F90DFFFFFAAA89102200200827F87
:1067B000FFFC8008002E5FD0DFFFFF555649011017
:1067C0000100427FFFFC4004001E1FB0DFFFFFAA54
:1067D000A925800800802A7FFFFC2002080E1F9058
:1067E000DFFFFF55549040040040167FFFFC10016E
:1067F000040E3F90DFFFFF55424820020022027F37
:10680000FFFC0800820E1FD0DFFFFFAA81241001C9
:106810000011027FFFFC0400410E9FB0DFFFFF5517
:106820004091080080088A7FFFFC0200208E5F9064
:10683000DFFFFFAAAA4B04004004467FFFFC0100D3
:10684000104E1F90DFFFFF55552702002000227FCA
:10685000FFFC0080002E1FD0D011F2AAA88B0100EF
:106860001000104047C4004000102AA0C809E95594
:10687000566480800800082027B200200800151008
:10688000C405E4AAA91040400400061017890010AE
:1068900004000A80C203F255548820200200000838
:1068A0000FC4800802001540C101E9AAAA641010B3
:1068B0000100000407B0400401000AA0C000005518
:1068C0005400080800800000000020020080000042
:1068D000C00000AAA800040400400000000010014D
:1068E00000400000C081E455551202020020080259
:1068F0000788080080201510C041F2AAA88801016D
:106900000010040107C4040040100A80C021E955AA
:10691000566480008008020087B0020028001540FD
:10692000C00000AAA80040004004000000000100D0
:1069300014000000C000005554002000200000009A
:106940000000008002000000C00000AAA8001000A3
:10695000100000000000004001000000C80000001E
:106960000000000000000020000000000000000007
:10697000D000000000000000000000400000000007
:1069800000000000C4000000000000000000001033
:106990000000000000000000C20000000000000035
:1069A000000000080000000000000000C10000001E
:1069B00000000000000000040000000000000000D3
:1069C000C080000000000000000000020000000085
:1069D00000000000595A5B5C5D5E5F606364616249
:1069E0000000000101010101020202020A0F14006D
:1069F000050A0F140A0F0005030405060708090A13
:106A00000D0E0B0C240D0000250D0000000D0000E4
:106A1000090D0006120D000C1B0D001214000E00D3
:106A200002000E080B000E0C1D000E1010000F00CF
:106A300007000F0619000F0822000F0311001100B4
:106A4000080011061A00110823001103536574751C
:106A5000703A20626D526571756573745479706512
:106A6000203078253032782C20625265717565733C
:106A700074203078253032782C207756616C75651B
:106A8000203078253034782C2077496E6465782062
:106A90003078253034782C20774C656E6774682008
:106AA0003078253034780D0A00000000CC6A0002EE
:106AB00000000020E003000034270002246B0002E5
:106AC000E0030020180B00002838000251301E4659
:106AD000696E697368656420746F207265636569A7
:106AE00076652061206672616D65210A3239281849
:106AF0000119021A031B880C010D06120713322D0F
:106B00004320043225432004330A10680100960014
:106B1000AA003209FF122334455667788901FF0124
:046B2000FF018300EE
:04000005020020D500
:00000001FF
