:020000040200F8
:10200000881C0020ED200002F1200002752800024B
:10201000F5200002F7200002F92000020000000075
:10202000000000000000000000000000FB20000293
:10203000FD20000200000000FF200002D538000251
:1020400003210002252A0002032100024528000284
:10205000E5380002032100020321000203210002EF
:102060000321000203210002753200020321000255
:10207000032100026939000279280002B927000211
:102080000321000299300002CD2E0002012D000232
:10209000E1430002032100020321000203210002A8
:1020A0009D2C000203210002813200020321000264
:1020B000032100020321000203210002153900025E
:1020C0003D29000203210002B126000200000100A8
:1020D00000A00200DFF810D000F0D0FA004800475E
:1020E000F95E0002AFF30080881C0020054800471D
:1020F000FEE7FEE7FEE7FEE7FEE7FEE7FEE7FEE7B8
:10210000FEE7FEE7D52000022DE9F05F054600203E
:1021100092469B4688460646814640241BE0284658
:1021200041464746224600F088F953465A46C01AAF
:10213000914110D311461846224600F06FF92D1A2E
:1021400067EB01084F4622460120002100F066F9A6
:1021500017EB00094E41201EA4F10104DFDC4846C4
:1021600031462A464346BDE8F09F40EA01039B07FB
:1021700003D009E008C9121F08C0042AFAD203E0FC
:1021800011F8013B00F8013B521EF9D27047D2B260
:1021900001E000F8012B491EFBD270470022F6E750
:1021A00010B513460A4604461946FFF7F0FF2046CD
:1021B00010BD034611F8012B00F8012B002AF9D1BC
:1021C000184670472DE9FE4F804681EA0300C00F94
:1021D0000C46009021F0004123F00045B8EB0200CE
:1021E000A94105D24046214690461C460B46024670
:1021F00023F00040104347D0270DC7F30A00C3F374
:102200000A510290401A019040286BDAC3F3130080
:1022100040F4801B0098924620B10023D2EB030AC1
:1022200063EB0B0B01985946C0F14002504600F099
:10223000F5F806460D4650465946019A00F00DF94C
:1022400010EB08006141002487EA115284EAE77329
:102250001A4340D0009A62B3019A012A4FEA07520A
:1022600015DC001B61EB02014FF0004202EA07524D
:10227000CDE90042001C41F5801132462B4600F0AA
:102280000DF903B0BDE8F08F40462146F9E7001B89
:1022900061EB0201001C41F5801300185B4120181E
:1022A000A2F5001747EB030140EAD570B6196D415E
:1022B00011E06D084FEA360645EAC0754FEA07524D
:1022C000001B61EB0201001C41F5801149084FEA37
:1022D00030000019514132462B4603B0BDE8F04FA3
:1022E00000F0CDB80098012240000023D0EB02029C
:1022F00063EBE073009821464FEAE074B8EB00000E
:1023000061EB0401E9E783F000435BE781F0004102
:1023100058E72DE9F04D81EA030404F0004B21F069
:10232000004514464FF0000A23F0004150EA050230
:1023300020D054EA01021DD0C5F30A570246C5F366
:102340001303C1F31300C1F30A5640F4801543F49C
:102350008013A7EB0608101BD64608F2FD3873EB76
:10236000050002D308F1010801E092185B41B8F1C1
:10237000000F03DA00200146BDE8F08D00204FF485
:102380008011064684460EE0171B73EB050705D344
:10239000121B63EB050306434CEA010C49084FEAA4
:1023A000300092185B4150EA0107EDD152EA030078
:1023B00012D082EA040083EA0501084305D0101B0D
:1023C000AB4106D20122002306E000224FF0004379
:1023D00002E06FF0010253101AEB06004CEB0851BB
:1023E00010EB0A0041EB0B01BDE8F04D00F047B8DF
:1023F00030B50B46014600202022012409E021FAD5
:1024000002F59D4205D303FA02F5491B04FA02F5D1
:102410002844151EA2F10102F1DC30BD202A04DBA4
:10242000203A00FA02F1002070479140C2F12003E7
:1024300020FA03F3194390407047202A04DB203A26
:1024400021FA02F00021704721FA02F3D040C2F1D4
:1024500020029140084319467047202A06DBCB171B
:10246000203A41FA02F043EAE07306E041FA02F34F
:10247000D040C2F12002914008431946704710B580
:10248000141E73F1000408DA401C41F10001921897
:102490005B411A4301D120F0010010BD2DE9F04D40
:1024A00092469B4611B1B1FA81F202E0B0FA80F295
:1024B00020329046FFF7B2FF04460F4640EA0A007A
:1024C00041EA0B0153465A46084313D0114653EADA
:1024D000010019D0C8F140025046FFF7AEFF054693
:1024E0000E46504659464246FFF798FF084305D02E
:1024F000012004E020463946BDE8F08D0020054368
:1025000046EAE0762C4337430A986305E40AA0EBD9
:1025100008000022FD0A44EA47540A3002D5002090
:102520000146E9E7010510196941DDE9084500198F
:102530006941BDE8F04DA2E72DE9FE4F81EA0304B1
:1025400004F0004421F0004100944FF0000B23F010
:10255000004350EA01045ED052EA03045BD0C3F3A7
:102560000A54C1F30A552C44A4F2F3340194A0FB9D
:102570000254C1F3130141F48011C3F3130343F474
:10258000801301FB024400FB034E840A970A44EACD
:10259000815447EA8357A4FB076802958D0A05FB1F
:1025A00007854FEA932C04FB0C542705029D4FEA44
:1025B000065847EA1637B5EB08056EEB070C870E91
:1025C000920E47EA811742EA8312A7FB0201B6EB9B
:1025D0000B0164EB00042B0D43EA0C335E1844EB53
:1025E0001C50DA465146E7FB0201C5F313044FEADB
:1025F0000B3343EA14534FEA0432019C43EA0603C7
:10260000A4F10C040294009CCDE900B4FFF746FF4E
:1026100003B0BDE8F08F00200146F9E7C1F30A528C
:10262000C1F3130140F2FF3341F480119A4202DA00
:1026300000200146704740F233439A42A2F23342EF
:1026400002DC5242FFF7F9BEFFF7E8BE30B5041EC8
:1026500071F1000404DB4FF00044404264EB0101DF
:10266000141E73F1000405DB1C464FF00043524278
:1026700063EB0403994208BF904230BD064C074DFE
:1026800006E0E06840F0010394E807009847103442
:10269000AC42F6D3FFF722FD00680002206800027A
:1026A0000146C86CC0F30220704701464869704774
:1026B00038B50D48FFF7F4FF04460AE00A48FFF773
:1026C000F4FF00900421684603F092FB601EC4B240
:1026D00000BF0548FFF7E4FF0028EFD100210248C2
:1026E00000F016FA38BD000000A0014030B501240A
:1026F00004FA02F304689C4301FA02F52C430460D7
:1027000030BD000010B501F0010313B10123834077
:1027100000E000231A4601F002032BB100F1080388
:10272000012404FA03F300E000231A4301F0040338
:102730002BB100F11003012404FA03F300E000239D
:102740001A43014B1A6310BD00C0004070B5054626
:102750000C462668206820F001002060094901EB42
:1027600045101C222146FFF700FD2660054800EBBE
:102770004510006840F00101024800EB451001607F
:1027800070BD000040C0004001460A4B1A6B22FA9F
:1027900001F303F00100CB1D22FA03F303F002035F
:1027A000184301F10E0322FA03F303F00403184364
:1027B0007047000000C0004010B50020FFF7E4FFA4
:1027C000044621460020FFF79DFF012003490870C1
:1027D00003490020FFF7BAFF10BD00005E00002093
:1027E0002016002010B5152801DB084B00E0084B2F
:1027F0001946152802DBA0F1150300E003461A462E
:102800004B6E0124944023434B6610BD0060014091
:10281000005001400146152901DB084800E0084846
:102820000246152902DBA1F1150000E00846034627
:10283000506ED84000F00100704700000060014079
:102840000050014010B50920FFF7E4FF30B104A1AA
:10285000002000F0A1FD0920FFF7C4FF10BD00001B
:10286000696E74206770696F30207469676765727C
:102870000D0A000000BFFEE770B51A4800F04DF8E1
:10288000044604F0080018B10821164800F036F894
:1028900004F0020068B1002509E0124800F034F8A5
:1028A0000646324610A1002000F076FD6D1C042D76
:1028B000F3DB04F4007098B108E00A4800F024F853
:1028C000064632460BA1002000F066FD054800F0E8
:1028D0001FF80028F1D04FF40071024800F00EF804
:1028E00070BD0000003001403E3E3E202530325891
:1028F0000A0000003E20253032580A008269C1F3E8
:1029000009031A43826170470146086AC0B27047E2
:102910000146886900F00100704701468869C0F3EC
:1029200009007047816170470146886900F0030023
:1029300070470146C869C0F3042070472DE9F04193
:102940000E48FFF7F1FF074639460C48FFF7EAFF4C
:102950000A48FFF7EEFF054600240AE0074800F0AA
:1029600015F80646324606A1002000F015FD601C51
:10297000C4B2AC42F2D3BDE8F081000000000140D7
:10298000646174613A307825780D0A00014608695F
:102990007047000070B5062401252A4621460348E9
:1029A00000F022F8C6B2304670BD000014A000400E
:1029B00070B500240B252A462146034800F014F880
:1029C00086B2304670BD00001CA0004070B50524E2
:1029D0000125012633462A462146024800F010F818
:1029E00070BD000010A0004030B503464FF0FF342A
:1029F000C2F12005EC401D68CD4005EA040030BD61
:102A000070B514464FF0FF32C4F12005EA40056866
:102A100002FA01F6B54303EA02068E40354305602B
:102A200070BD000010B5FFF7D1FF0DE0FFF7C0FF4C
:102A30000446224607A1002000F0AEFC0AA003F0E5
:102A4000F3F9204603F020FAFFF7A4FF0028EDD0A9
:102A500010BD00006B657920646174612074726739
:102A60003A307825780A0000310D0A0008B51420A4
:102A70008DF8000001208DF8010002208DF8020081
:102A800001208DF80300684600F002F808BD000040
:102A900070B5002100230F22C47804B3154C2468BC
:102AA00004F4E064C4F5E064210AC1F10403CA40FF
:102AB000447804FA03F184781440214309010E4C50
:102AC0000678A155047804F01F050124AC40057870
:102AD0006D11AD0005F1E025C5F8004109E004786D
:102AE00004F01F050124AC40044D0678761145F82A
:102AF000264070BD0CED00E000E400E080E100E065
:102B00000146024800EB01104068704760500040E9
:102B100070B504460D46002229462046FFF7E6FD23
:102B2000012229462046FFF7E1FD70BD2DE9F0475F
:102B30000546884616461F46DDF820907F2D0CD1AD
:102B4000104901EB860009F0FF03FAB24FF0FF31A4
:102B500003F0FFFA0020BDE8F0872946404603F065
:102B6000BFFA0446002C01DA2046F4E7054901EBE0
:102B7000860009F0FF03FAB2214603F0EAFA0020CA
:102B8000E9E700004060004038B505460C4615B145
:102B9000012D12D108E00F200523032265210090AA
:102BA0002046FFF7C3FF09E0002005230422672128
:102BB00000902046FFF7BAFF00E000BF00BF38BD1D
:102BC00070B504460E463146204603F0D1FA05465C
:102BD000002D01DA284670BD162C0CDC04F0030130
:102BE000C1EBC103A1102C4A02EB81000722294648
:102BF00003F0AFFA4DE0172C07D115230622294622
:102C00002548143003F0A5FA43E01B2C0CDCA4F19A
:102C1000180000EB40004006030E062229461E481D
:102C2000183003F096FA34E01D2C0BDCA4F11C00E4
:102C300080001830C3B2042229461748183003F028
:102C400088FA26E0202C0CDCA4F11E0000EB4000EA
:102C50004006030E062229460F481C3003F079FA7D
:102C600017E0232C0BDCA4F1210080001230C3B24A
:102C70000422294608481C3003F06BFA09E0A4F14D
:102C800024004006030E022229460348203003F0A8
:102C900060FA00209FE7000000600040F8B50020C7
:102CA00000F026F8054600950098C0F3021421466E
:102CB00007A003F0B9F808E00020FFF721FF06465F
:102CC000314607A003F0B0F8641E002CF4DCF8BD18
:102CD0007265616420636F756E743A2025780A000E
:102CE00072656164206E756D3A2025780A000000D7
:102CF0000146024800EB4110406870470050004018
:102D000010B5002000F0AEFA0446224625A10020AE
:102D100000F042FB04F0010018B126A1002000F0F1
:102D20003BFB04F0020018B129A1002000F034FBA5
:102D300004F0040018B12DA1002000F02DFB04F0D8
:102D4000080018B130A1002000F026FB04F01000AC
:102D500018B134A1002000F01FFB04F0200018B1CE
:102D600037A1002000F018FB04F0400018B13BA18F
:102D7000002000F011FB04F0800018B13EA10020FB
:102D800000F00AFB04F4807018B142A1002000F0AA
:102D900003FB04F4007018B145A1002000F0FCFA18
:102DA00010BD000073746174653A307825780D0A9F
:102DB00000000000514445435F494E545F42554670
:102DC0005F46554C4C5F53544154450D0A0000007A
:102DD000514445435F494E545F5044435F454E4420
:102DE0005F53544154450D0A0000000051444546CC
:102DF0005F494E545F45545247535F434D425F53C2
:102E0000544154450D0A0000514445435F494E5416
:102E10005F4C445242535F434D425F5354415445CB
:102E20000D0A0000514445435F494E545F4C4452E3
:102E300041535F434D425F53544154450D0A0000D6
:102E4000514445435F494E545F435043535F434DA4
:102E5000425F53544154450D0A000000514445431C
:102E60005F494E545F435042535F434D425F53545A
:102E70004154450D0A000000514445435F494E54FA
:102E80005F435041535F434D425F53544154450D9E
:102E90000A000000514445435F494E545F4C4F5671
:102EA00046535F434D425F53544154450D0A000061
:102EB000514445435F494E545F434F5646535F4329
:102EC0004D425F53544154450D0A000010B5002097
:102ED00000F0C8F90446224625A1002000F05CFA63
:102EE00004F0010018B126A1002000F055FA04F00A
:102EF000020018B129A1002000F04EFA04F00400ED
:102F000018B12DA1002000F047FA04F0080018B114
:102F100030A1002000F040FA04F0100018B134A1F4
:102F2000002000F039FA04F0200018B137A1002089
:102F300000F032FA04F0400018B13BA1002000F08C
:102F40002BFA04F0800018B13EA1002000F024FA12
:102F500004F4807018B142A1002000F01DFA04F4BE
:102F6000007018B145A1002000F016FA10BD000055
:102F700073746174653A307825780D0A000000009A
:102F8000514445435F494E545F4255465F46554C58
:102F90004C5F53544154450D0A00000051444543D1
:102FA0005F494E545F5044435F454E445F53544124
:102FB00054450D0A00000000514445465F494E54F7
:102FC0005F45545247535F434D425F53544154450C
:102FD0000D0A0000514445435F494E545F4C445232
:102FE00042535F434D425F53544154450D0A000024
:102FF000514445435F494E545F4C445241535F43F3
:103000004D425F53544154450D0A0000514445431D
:103010005F494E545F435043535F434D425F5354A7
:103020004154450D0A000000514445435F494E5448
:103030005F435042535F434D425F53544154450DEB
:103040000A000000514445435F494E545F435041DC
:10305000535F434D425F53544154450D0A000000F5
:10306000514445435F494E545F4C4F5646535F436E
:103070004D425F53544154450D0A000051444543AD
:103080005F494E545F434F5646535F434D425F5333
:10309000544154450D0A000010B5002000F0E2F83C
:1030A0000446224625A1002000F076F904F0010034
:1030B00018B126A1002000F06FF904F0020018B149
:1030C00029A1002000F068F904F0040018B12DA136
:1030D000002000F061F904F0080018B130A10020D0
:1030E00000F05AF904F0100018B134A1002000F0EB
:1030F00053F904F0200018B137A1002000F04CF97A
:1031000004F0400018B13BA1002000F045F904F0A4
:10311000800018B13EA1002000F03EF904F4807058
:1031200018B142A1002000F037F904F4007018B182
:1031300045A1002000F030F910BD000073746174E7
:10314000653A307825780D0A000000005144454367
:103150005F494E545F4255465F46554C4C5F535451
:103160004154450D0A000000514445435F494E5407
:103170005F5044435F454E445F53544154450D0AEC
:1031800000000000514445465F494E545F4554528B
:1031900047535F434D425F53544154450D0A00006D
:1031A000514445435F494E545F4C445242535F4340
:1031B0004D425F53544154450D0A0000514445436C
:1031C0005F494E545F4C445241535F434D425F53FD
:1031D000544154450D0A0000514445435F494E5443
:1031E0005F435043535F434D425F53544154450D39
:1031F0000A000000514445435F494E545F4350422A
:10320000535F434D425F53544154450D0A00000043
:10321000514445435F494E545F435041535F434DD2
:10322000425F53544154450D0A0000005144454348
:103230005F494E545F4C4F5646535F434D425F5378
:10324000544154450D0A0000514445435F494E54D2
:103250005F434F5646535F434D425F53544154457D
:103260000D0A00000146024800EB8110C06A704759
:103270000090004010B5002002F0B4FE10BD000028
:1032800010B5064800F019F830B105A1002000F093
:1032900083F8024800F00CF810BD000000C00140A7
:1032A0007274696D657220696E740D0A0000000009
:1032B000816841F040018160704701468868C0F331
:1032C0008510704710B501F0AFFC10BD2DE9F0413D
:1032D00004460D46164600BF0D48007808B901F0B7
:1032E000A3FC00BFEFF311800746202080F3118874
:1032F00000BF00BF32462946204600F00BF880464A
:10330000F8B280F3118800BF00BF4046BDE8F081ED
:10331000740000202DE9F047074688461646C2464D
:1033200007EB47011B4800EBC109D9F8140020B195
:10333000012811D0022826D11EE0484601F0ACFC3D
:103340000546B54201D2002405E0344632465146D6
:10335000484601F0F6FD18E0484601F09DFC0546A0
:10336000B54201D2284600E0304604462246514686
:10337000484601F0E6FD08E032465146484601F075
:10338000A7FD044601E0002400BF00BF2046BDE8C1
:10339000F08700008C0000200FB438B5044606A862
:1033A00000906A462046059900F007F8054600207F
:1033B0000090284638BC5DF814FB2DE9F04F99B019
:1033C00082460D46144603A8149040201590002014
:1033D0001690CDF860A0179000BF2E786D1C06B92E
:1033E000DDE0252E79D100274FF0010900BF2E78AE
:1033F000232E12D02B2E0CD02D2E02D0302E10D1F9
:1034000003E047F001076D1C0EE047F002076D1C5A
:103410000AE047F004076D1C06E047F008076D1C42
:1034200002E04FF0000900BF00BFB9F1000FDED18C
:103430004FF0000800BF2E78302E01DB392E00DD62
:1034400007E06D1CA6F1300008EB880100EB410895
:10345000F1E700BF002013902E782E2E12D16D1CA4
:1034600000BF2E78302E01DB392E00DD09E06D1C07
:10347000A6F13000139901EB810100EB410013909C
:10348000EFE700BF2E7800BF6C2E01D0682E02D16E
:103490006D1C2E7800E000E0F6E700BF702E5DD0D6
:1034A00008DC252E6AD0582E35D0632E09D0642E24
:1034B00069D113E0732E3CD0752E1DD0782E62D1C9
:1034C00028E02168081D2060D1F8009009F0FF0B6A
:1034D000594614A801F0DAFC56E058E02168081DAE
:1034E0002060D1F80090CDE900870A22494614A84F
:1034F000139B01F0DFFB47E02168081D2060D1F835
:103500000090CDE900870A22494614A8139B01F0D8
:1035100047FC39E000BF2168081D2060D1F8009009
:10352000CDE900871022494614A8139B01F038FC0E
:103530002AE02168081D2060D1F800B000BF9BF888
:1035400000600BF1010B06B906E0314614A801F04A
:103550009DFC17980028F2DA00BF15E02168081DCD
:103560002060D1F80090002008210B461022CDE900
:103570000010494614A801F013FC05E0252114A809
:1035800001F084FC00E000BF00BF6D1C03E0314689
:1035900014A801F07BFC17980028BFF61EAF00BFEF
:1035A000179800280ADD169820B103A95046169AEC
:1035B000FFF78CFEDDE9161008441790179819B034
:1035C000BDE8F08F10B504460121204600F012F846
:1035D00010BD70B50546002408E00120A040284039
:1035E00010B12046FFF7EEFF601CC4B2162CF4DBCE
:1035F00070BD000070B504460D46162C73D2DFE88E
:1036000004F00B17232F3B47536073FF7F8B97A367
:10361000AFBBC1C7CDDAE6F3152229467A4802F0DE
:103620008DFD122229467848083002F087FDE8E037
:1036300016222946744802F081FD1222294672485A
:10364000083002F07BFDDCE0022229466E4802F0E1
:1036500075FD002229466C48083002F06FFDD0E06D
:1036600003222946684802F069FD0122294666487E
:10367000083002F063FDC4E001222946624802F0EE
:103680005DFD112229466048083002F057FDB8E080
:10369000052229465C4802F051FD0A2229465A4873
:1036A000083002F04BFDACE0092229465648001DC7
:1036B00002F044FD0C2229465348483002F03EFDFA
:1036C0009FE00A222946504802F038FD132229467D
:1036D0004D48083002F032FD142229464A4808308D
:1036E00002F02CFD8DE08BE00C222946464802F0CA
:1036F00025FD002229464448001F02F01FFD80E0FE
:103700000E222946404802F019FD072229463E486C
:10371000083002F013FD74E00F2229463A4802F007
:103720000DFD0C2229463848083002F007FD68E0FC
:1037300010222946344802F001FD08222946324869
:10374000083002F0FBFC5CE0112229462E4802F012
:10375000F5FC042229462C48083002F0EFFC50E02A
:1037600012222946284802F0E9FC0522294626486B
:10377000083002F0E3FC44E013222946224802F01C
:10378000DDFC3EE0002229461F4802F0D7FC38E06D
:10379000062229461C4802F0D1FC32E005222946C7
:1037A0001948743002F0CAFC0722294616487430C2
:1037B00002F0C4FC25E01C222946134802F0BEFC9E
:1037C000152229461048083002F0B8FC19E00422FE
:1037D00029460D4802F0B2FC022229460A48083068
:1037E00002F0ACFC0DE0FFE704222946064802F097
:1037F000A5FC022229460448083002F09FFC00E0A4
:1038000000BF00BF70BD00000C0000402DE9F04774
:1038100004460E4600F018F88146A9FB06700146E2
:10382000224600233846FEF76FFC0546A81C0321FC
:10383000B0FBF1F50DB9BDE8F08700E000BF681EF0
:10384000051EFBD100BFF6E710B50A48806900F0FD
:10385000804058B100F010F80446064988690422F7
:10386000142102F003FBB4FBF0F010BD00F024F8CB
:10387000FBE70000002010402DE9F0410D48C4692D
:1038800004F4801098B1C4F34500C4F3C53100FBC3
:1038900001F500F011F8C4F3C711A0FB0160014667
:1038A0002A4600233046FEF72FFCBDE8F0810020B9
:1038B000FBE700000000104004480069C0F300214D
:1038C00009B1034870470248FCE70000002010409F
:1038D00000366E0102480068401C014908607047CC
:1038E0000000002010B507A10020FFF755FD0022C1
:1038F0001146074800F022F80F220021044800F08A
:103900002CF810BD74696D657230206973720A00FD
:103910000020004010B505A10020FFF73DFD0F225B
:103920000021054800F019F810BD000074696D65AC
:103930007231206973720A000030004030B5C369EB
:103940008D000F24AC40A343C36102F00F038C0031
:10395000A340C4692343C36130BD10B502F00F0317
:103960008C00A340836110BD10B502F04BFC10BD6C
:1039700001607047014621F0800001F080029AB199
:103980004FF0FF33144A02EB001213600023124A77
:1039900002EB00125360104A02EB001293600E4AD1
:1039A00002EB0012D36016E04FF0FF330A4A603298
:1039B00002EB001213600023074A603202EB001290
:1039C0005360054A603202EB00129360024A603293
:1039D00002EB0012D36070478017002070B50346D9
:1039E0000024002023F0800203F0800595B11A4DD9
:1039F00005EB021122B9194D2D6805F07F0408E08E
:103A0000164D1035561E05EB46152D69C5F31204EB
:103A100000BF13E0104D603505EB021122B9104DC7
:103A20002D6805F07F0408E00D4D1035561E05EB9E
:103A300046152D69C5F3120400BF00BF0D7B05F0CC
:103A4000020545B18D682D1B4D604FF0FF350D60AF
:103A500000258D60012070BD8017002010091840DE
:103A6000100B184010B5002017490870487000214D
:103A7000802001F037F800240EE0611CC9B241F04B
:103A80008000002101F02EF8611CC9B241F08000D5
:103A900000F044F9601CC4B2052CEEDB002108469E
:103AA00001F020F800240CE0611C01F07F000021EF
:103AB00001F018F8611C01F07F0000F02FF9601C84
:103AC000C4B2052CF0DB10BD7C17002070B5054694
:103AD0000226A87820F080046978154850F8340050
:103AE00061F38B20124941F83400A988104850F83E
:103AF000340061F316300E4941F83400A878C20949
:103B0000084650F8341062F3082140F83410E97880
:103B1000A87800F0FBF9064850F8340020F4007152
:103B200001F50071024840F83410304670BD0000C5
:103B3000401800202DE9FC4106464FF0000826F011
:103B4000800506F0800090B1264800EB051425B9E9
:103B50002548006800F07F0808E023481030691EFF
:103B600000EB41100069C0F3120800BF13E01D48CC
:103B7000603000EB051425B91C48006800F07F0890
:103B800008E01A481030691E00EB41100069C0F3CC
:103B9000120800BF00BF2068401C10B90120BDE81A
:103BA000FC81A068A0EB08072068C01B206060684B
:103BB000384460602068002804DC4FF0FF3020604B
:103BC0000120ECE701AA6946304600F0F5FA0098BA
:103BD000A060BDF804203046009900F0D5FD00201B
:103BE000DDE700008017002010091840100B184076
:103BF00010B500BF0B48006900F000400028F9D064
:103C00000848006940F0010006490861642002F09C
:103C1000E1F900BF0348006900F001000028F9D174
:103C200010BD0000000018401648806948F23801B5
:103C300088431449886114480068144908431249AC
:103C400008600846006820F4FE60086008460068C6
:103C500020F4000008600846006820F004000860B6
:103C6000081D006820F00200091D086005488069F1
:103C70000749D1F8F41041F44051084301498861E3
:103C800070470000000018400008184003000001C1
:103C90007C1700201E48B0F8F80098B11D48006855
:103CA0001D4908401B490860084600681849B1F8DA
:103CB000FE10C1F308014FF4803242EA414108434B
:103CC000144908601248B0F8FA0018B91048B0F862
:103CD000FC00D8B10F48006840F2FC7188430D49E0
:103CE00008600B48B0F8FA0041000948B0F8FC0041
:103CF00041EA40010648B0F80001C0F3080041EA7B
:103D000080000449096808430249086070470000C0
:103D10007C17002030081840FFFF01FC30B5054635
:103D200025F0800405F08000002860D014BB6448B2
:103D3000006840F00060624908600846006800F0D2
:103D4000004020B10846006840F0804008605C48B0
:103D5000083000685A490831096808435849083151
:103D600008605748E438006820F001005449E439FD
:103D700008609EE052482030611E00EB4110006850
:103D800040F000624E48203000EB411002604C4889
:103D9000203000EB4110006800F0004058B1484866
:103DA000203000EB4110006840F080424448203051
:103DB00000EB4110026042482030611E00EB4110D0
:103DC00080683F492031621E01EB42118968084337
:103DD0003B49203101EB421188603948E4380068E2
:103DE0000121A14088433649E439086061E014BBF1
:103DF0003448006840F000603249086008460068B6
:103E000000F0004020B10846006840F080400860A3
:103E10002C48083000682B490831096808432949B3
:103E2000083108602648E438006820F480302449CE
:103E3000E43908603DE023482030611E00EB41106A
:103E4000006840F000621F48203000EB4110026023
:103E50001C48203000EB4110006800F0004058B1D1
:103E60001848203000EB4110006840F0904215489F
:103E7000203000EB4110026012482030611E00EB40
:103E8000411080680F492031621E01EB42118968A0
:103E900008430C49203101EB421188600848E4389E
:103EA000006804F1100101228A4090430449E4397A
:103EB0000860204600F014F92846FFF75BFD30BD8E
:103EC00000091840000B184000B50420054948704F
:103ED00000231A460449184600F0C8FD00F056F9C0
:103EE00000BD00007C1700203C17002000B5052015
:103EF0000449487000231A460349184600F0FAFCAA
:103F000000BD00007C170020FC16002030B50246E2
:103F100022F0800002F08003002B5FD028BB01F06C
:103F200003034FF4004444EA834300F00F0443EAE0
:103F3000845300F00F0443EAC423534C2468234302
:103F4000514C2360504B08331B684F4C0834246895
:103F500023434D4C083423604B4BE43B1B6843F038
:103F60000103494CE43C23608DE0474B2033441E61
:103F700003EB44131C68454B53F83030C3F30A334A
:103F800001F0030543EA854343F4004300F00F05C5
:103F900043EA855343F0805323433B4C2034451E72
:103FA00004EB45142360384B2033441E03EB4413C9
:103FB0009B68354C203404EB4514A4682343324CF1
:103FC000203404EB4514A3602F4BE43B1B68012411
:103FD000844023432C4CE43C236054E0E8B92C4B50
:103FE0001B6801F003044FF4004545EA8444234371
:103FF000274C2360264B08331B68254C0834246863
:104000002343234C083423601F4BE43B1B6843F4D9
:1040100080331D4CE43C236035E01D4B2033441EAF
:1040200003EB44131B68194C54F83040C4F30A34B2
:1040300001F0030544EA854444F4004444F080540C
:104040002343134C2034451E04EB45142360104BCE
:104050002033441E03EB44139C680D4B203303EBC9
:1040600045139B6823430A4C203404EB4514A3609A
:10407000054BE43B1B6800F110040125A5402B43D0
:10408000014CE43C236030BD00091840401800207A
:10409000000B18401048006840F400700E4908609A
:1040A00000BF0D48006800F008000028F9D00B4858
:1040B000006940F010000949086100BF0748006925
:1040C00000F010000028F9D10348006840F4806037
:1040D00001490860704700000408184000001840BB
:1040E0001A49496901F0400129B91949096841F0A3
:1040F0008001174A116000BF1449496901F040016D
:104100000029F9D000BF1149096901F000410029D7
:10411000F9D000BF0D49096901F020010029F9D14A
:1041200000F01F01202242EA8111084A116100BFFC
:104130000649096901F020010029F9D104490968FB
:1041400041F48071024A116070470000000018407D
:104150000408184000487047FC1600200448C06C52
:10416000C0F30210001D0121814088B27047000099
:10417000000018400448C06C00F00F000B30012113
:1041800001FA00F070470000000018400748084995
:1041900008600848091D086005481038006840F0AC
:1041A0000440034910390860704700001800086097
:1041B000100B1840FC1600202DE9F04307468846F6
:1041C000914627F08005314850F83500C0F30A3396
:1041D00007F0800058B32D48C03800EB051645B9EC
:1041E00032689A4201D2104600E018460246012485
:1041F0001CE03268FFF7BEFF904201D9104601E093
:10420000FFF7B8FF02469A4201D8012003E0581E8A
:104210001044B0FBF3F084B2FFF7A0FFA04204DA31
:10422000FFF79CFF044604FB03F200BF27E017489A
:10423000603800EB051615B91A4601241EE03268F5
:10424000FFF798FF904201D9104601E0FFF792FF77
:1042500002469A4201D8012003E0581E1044B0FBE8
:10426000F3F084B2FFF77AFFA04201DD204601E0BF
:10427000FFF774FF044604FB03F200BF00BFC8F859
:104280000020A9F80040BDE8F0830000401800209D
:104290003EB5504C50484078062873D2DFE800F015
:1042A00096035B738A90207800F01F0020BB607833
:1042B000052802D009281DD115E04848006820F4DF
:1042C000FE604649086008460068A17801F07F0159
:1042D00040EA0110414908603F48007840F0100072
:1042E0003D49087006E03C48007840F020003A491B
:1042F000087000BF00BF00BF00BF00208DF80000A5
:104300003548D0F80411684688470546102D08D175
:104310002178C90909B1802100E00021084600F098
:10432000D3FB022D16D1E08810B9FFF7CDFD11E0C7
:104330002078C00908B1022000E003202649487017
:1043400008464078032805D1E28800232149184611
:1043500000F0D0FA3BE08020FFF7ECFB88B10120B1
:104360008DF8000000208DF8040000210291012149
:104370008DF805101848D0F8041168468847FFF7F3
:10438000B5FD24E022E00020FFF7D4FB88B1012036
:104390008DF8000000208DF804000F48816E029116
:1043A00000218DF80510D0F8041168468847FFF702
:1043B0008BFD0CE0012008494870FFF7E7FE06E09E
:1043C000012005494870FFF7E1FE00E000BF00BF93
:1043D0003EBD0000FC1600207C170020000818409D
:1043E00010B5002000F024F810BD000070B50446A0
:1043F00002250CB9042070BD0020084908704870DF
:10440000142221460548F430FDF7AFFE04A000F069
:10441000BFFD00F09DFA2846EDE700007C17002064
:10442000726573657420696E69740D0A000000007E
:104430002DE9FE438146CF48466900244FF000082D
:1044400040693043CB49486106F48050002847D08A
:10445000C948006840F00060C749086000270CE0C8
:10446000C548203000EB4710006840F00061C248AA
:10447000203000EB471001607F1C052FF0D300F0C7
:104480002DFABE48006840F00110BC490860BB48E6
:104490000C38006840F00D00B8490C390860081D60
:1044A000006841F22D110843B44908390860B34847
:1044B0001C38006820F4FE60B0491C390860AD4823
:1044C000806940F44020AB49886102208DF80000EB
:1044D000AB48D0F80411684688470620A849087000
:1044E00006F4005050B30120A5494870A348E430B9
:1044F000006820F00300A149E43108609E4800688C
:1045000040F000409C490860FFF740FE9C48D0F80E
:10451000C40020F4007000F500709949C1F8C4008F
:1045200040219748D0F8C40061F316309449C1F88F
:10453000C4000846007840F00800087006F48020A7
:10454000002858D08E48007800F00800002852D08B
:104550008A48001F00688949096800EA01080025A7
:104560001FFA88F800BF43E028FA05F000F00100C8
:1045700000283CD0CDB98148EC30046804F001003B
:1045800078B17F48407801280BD07D4840780228D8
:1045900005D1E9B241F08000FFF7CCFA08B1FFF78E
:1045A00077FE7648EC30046021E07648691E00EB27
:1045B00041108468734800EB4110846004F00100EE
:1045C000A8B1E9B241F08000FFF7B4FA78B1012058
:1045D0008DF80000E8B28DF804000021029101215D
:1045E0008DF805106648D0F80411684688476D1CA0
:1045F000052DB9D900BF06F4002000286ED0604810
:10460000007800F00800002868D05C48001F0068AF
:104610005A49096800EA010800254FEA184800BF16
:1046200059E028FA05F000F00100002852D02DBB17
:10463000514808300468046004F0010078B104F4C3
:10464000004028B101204E494870FFF721FE41E0AB
:104650004B48407801283DD0FFF71AFE3AE004F0BD
:10466000200028B146484078032801D1FFF72CFCF0
:1046700004F0080070B3FFF789FD2BE03E482030BE
:10468000691E00EB411084683B48203000EB41106C
:10469000846004F00100E8B105F07F00FFF79EF9A7
:1046A00020B905F07F00FFF745FA98B101208DF899
:1046B0000000E8B28DF804003148643000EB0510CA
:1046C0004168029100218DF805102D48D0F80411A1
:1046D000684688476D1C052DA3D900BF06F0080069
:1046E00090B1274890F8F40000F0080060B1244829
:1046F000007800F0080038B103208DF80000204851
:10470000D0F804116846884706F40060A8B11C4838
:10471000007800F0080080B11948007840F00600E9
:1047200017490870012000F0BFF804208DF8000040
:104730001348D0F804116846884706F00040A8B135
:104740000F48007800F0080080B10D48007820F094
:1047500006000B490870002000F0A6F805208DF82F
:1047600000000748D0F80411684688470020BDE8DB
:10477000FE83000000001840000B18401C08184081
:104780007C1700202009184070B5034623F08000F4
:1047900003F08004002C4FD080B901F07F0402F0B8
:1047A000030544EAC5443D4D2C603C4C103C246854
:1047B00044F00444394D103D2C603CE0C2F309053F
:1047C0000C4665F3DF4444F00056344C1034451E6B
:1047D00004EB45142661314C103404EB4514246875
:1047E000C4F38144012C18D12C4C103404EB451433
:1047F00024682B4D2D6805F4807515B14FF0805558
:1048000001E04FF0005545F004452C43234D103591
:10481000461E05EB46152C600CE0204C1034451E5E
:1048200004EB4514246844F004461C4C103404EB9B
:104830004514266000BF2FE0A0B901F07F0444F0CA
:10484000C04412B14FF4002500E000252C43154D63
:104850002C60144C103C246844F00444114D103D6D
:104860002C6018E0C2F309050C4665F3DF440D4DDA
:104870001035461E05EB46152C610A4C1034451EBA
:1048800004EB4514246844F00446064C103404EB51
:104890004514266000BF00BF70BD0000100918401D
:1048A00008081840100B184010B50446012C06D11A
:1048B0000848006840F001000649086005E0064825
:1048C000006820F0010004490860142001F082FB18
:1048D00010BD0000000E18400408184000B510205C
:1048E000FFF7FEFBFFF7D6FBFFF7BCF800F084F8FC
:1048F00000BD00002DE9F04704460F46904699465A
:104900004FF0020A24F08005052D02DC07F00300B9
:1049100010B10420BDE8F08725B90C48006800F408
:10492000004607E009482030691E00EB411000688E
:1049300000F400460EB90820ECE724F080004B4656
:104940004246394600F02AF95046E3E7000B18408A
:1049500010B52048C06840F040001E49C8601EA045
:1049600000F016FBFFF744F91FA000F011FB1948F7
:10497000806840F02700174988600846C068C96809
:1049800021F4705141F0080141F4105108431149DC
:10499000C8600846806940F00600886100F0E6F8CB
:1049A0001020FFF79DFBFFF775FBFFF73DF9094866
:1049B0004069084949690843064948610846406812
:1049C000496808430349486000F016F8FFF762F9A8
:1049D00010BD000000001840636F7265207265739F
:1049E00065740D0A000000007265736574207375AC
:1049F000636365730D0A0000002014E04FF0FF327E
:104A0000194901EB00110A600022174901EB00115E
:104A10004A60154901EB00118A60134901EB00114E
:104A2000CA60411CC8B20628E8DB002018E04FF03D
:104A3000FF320D49603101EB00110A6000220A4982
:104A4000603101EB00114A600749603101EB001150
:104A50008A600549603101EB0011CA60411CC8B28F
:104A60000628E4DB70470000801700202DE9F0479E
:104A700004460F46904699464FF0020A24F08005FE
:104A8000052D02DC07F0030010B10420BDE8F0871B
:104A900025B90C48006800F4004607E009482030BA
:104AA000691E00EB4110006800F400460EB90820B2
:104AB000ECE744F080004B464246394600F06EF881
:104AC0005046E3E70009184010B50446012120468E
:104AD00000F008F8012002494870FFF757FB10BDAD
:104AE0007C170020F0B505460E4625F0800717B963
:104AF0001B4B1C4C08E01A482030791E00EB411378
:104B00001848203000EB411405F08000D8B1012E88
:104B100010D1186800F0004020B11868124908430D
:104B2000186003E0186840F4001018601020FFF7C8
:104B3000D7FA13E0186820F400101860186840F0E5
:104B4000805018600AE0012E04D1206840F4001063
:104B5000206003E0206820F400102060F0BD000019
:104B600000091840000B1840000020404022094B6B
:104B70005A62402141F400129A62002006E020317E
:104B800041F40013044A42F82030401C0528F6D3B3
:104B90007047000000001840040118402DE9FC4354
:104BA00007460E469046994627F0800407F080009D
:104BB00070B11A4800EB041514B91948066006E0F4
:104BC00017480C30611E00EB4110466100BF0FE03A
:104BD0001248603000EB041514B91248066006E074
:104BE00010480C30611E00EB4110466100BF00BF51
:104BF000C5F8008000206860C5F80C9001AA6946DD
:104C00003846FFF7D9FA0098A860BDF80420384666
:104C10000099FFF7B9FD0020BDE8FC838017002054
:104C200014091840140B184010B5124C01202061D3
:104C3000606111A0A0611349E1614FF480612162BC
:104C40000021A1626162E1620BA020630E496163F1
:104C50001021A16300212164E16361640BA1E01DC7
:104C6000FDF7A7FA0AA12046FDF7A3FA2020A071BC
:104C700010BD0000740000205465726D696E616C97
:104C800000000000BC000020BC040020525454006E
:104C9000534547474552000010B501460A69CB68A5
:104CA0009A4204D88C68641EE41AA01801E0D41A51
:104CB000601E10BD2DE9FC5F06460F4692469846E1
:104CC000DDE90C45002F01DA784200E038468346E2
:104CD0004FF0010903E09BFBFAFB09F10109D34501
:104CE000F9DAC84500D9C14634B1002F03DB05F01D
:104CF0000400042800D1641E05F0020010B1B8F1D0
:104D0000000F11D005F0010070B96CB108E0641E0D
:104D10002021304600F0BAF8F068002800DA02E0FE
:104D20000CB1A145F3D300BFF068002836DB002F9B
:104D300005DA7F422D21304600F0A8F807E005F0A3
:104D40000400042803D12B21304600F09FF8F068BE
:104D5000002823DB05F00200022814D105F0010031
:104D600088B9B8F1000F0ED16CB108E0641E302193
:104D7000304600F08BF8F068002800DA02E00CB151
:104D8000A145F3D300BFF068002807DB4346524635
:104D900039463046CDE9004500F002F8BDE8FC9FF9
:104DA0002DE9FC5F8046894615461E460C9CCDF8D1
:104DB00004900127BB4605E00198B0FBF5F0019097
:104DC0000BF1010B0198A842F6D25E4500D9B3461B
:104DD0000D9800F00100D0B9CCB10D9800F00200A0
:104DE000022803D116B93020009001E02020009065
:104DF00009E0641E4046009900F048F8D8F80C001D
:104E0000002800DA02E00CB1A345F2D300BFD8F8C5
:104E10000C00002835DB09E0012E01D9761E04E0E4
:104E2000B9FBF7FAAA4500D201E06F43F4E700BFEF
:104E300000BFB9FBF7FA0AFB1799134810F80A10DC
:104E4000404600F023F8D8F80C00002800DA03E010
:104E5000B7FBF5F7002FECD100BF0D9800F0010073
:104E600078B174B109E0641E2021404600F00EF8CC
:104E7000D8F80C00002800DA02E00CB1A345F2D308
:104E800000BFBDE8FC9F00000863000270B5044647
:104E90000E46A568681C6168814206D320684655A5
:104EA000681CA060E068401CE060D4E90110884202
:104EB0000DD1A26821682069FEF708FAA16888422E
:104EC00003D04FF0FF30E06001E00020A06070BD33
:104ED0002DE9F0470446894617464FF0000AE56879
:104EE00000BFD4F81080A84503D9A8EB0500461EE2
:104EF00004E0A5EB0800401CA1680E1AA068401B46
:104F0000B04201D9304601E0A068401B0646BE42CF
:104F100001D2304600E038460646616848193246FC
:104F20004946FDF722F9B244B144BF1B3544A0689D
:104F3000A84200D10025E560002FD2D15046BDE83F
:104F4000F0872DE9F047044689461546E668A068D3
:104F5000871BAF4208D9616888192A464946FDF780
:104F600004F97019E06010E0B8466168881942469B
:104F70004946FDF7FAF8A5EB070809EB0701424699
:104F80006068FDF7F2F8C4F80C80BDE8F087000017
:104F90000FB4054B10B503A9044A029800F0F4F8C9
:104FA00010BC5DF814FB00005D5E00027000002084
:104FB0007CB50C001D461646014601D0601E00E07F
:104FC0000020CDE90010064B6A462946304600F025
:104FD000DBF8002C02D0009A002111707CBD00008B
:104FE0008F58000202E008C8121F08C1002AFAD137
:104FF00070477047002001E001C1121F002AFBD159
:10500000704700002DE9FF5F82B00021DDE9043028
:10501000020DDDF840B0034318D044F61050A2F260
:10502000FF3242431514119801281FD0A5EB0B0045
:10503000401C5FEA000A4FF000064E4FDFF838913F
:10504000B046504615D5CAF1000413E0119801246A
:105050004AA3012801D16FEA0B010298119AC0E915
:105060000031C0E9024206B0BDE8F09FCBF100007C
:10507000DFE704460021404A491842EB0450CDE9DD
:10508000001012E0E00707D032463B464046494652
:10509000FDF752FA8046894632463B46104619468D
:1050A000FDF74AFA06460F466410002CEAD1DDE906
:1050B0000401DDE90023BAF1000F06DAFDF73CFA3E
:1050C00042464B46FDF738FA05E0FDF722F9424625
:1050D0004B46FDF71EF904460E460022284BFDF70D
:1050E000B5FA03D84FF0FF30014607E00022254B08
:1050F00020463146FDF766F8FDF790FA102409E0E6
:10510000002C0ADB0A220023FCF7FEFF039B30324F
:105110001A55641E50EA0102F2D1641C039AC4F1CC
:1051200011031444119A012A03D0012208430DD11E
:105130000AE0084304D000204FF0110B119072E7F1
:10514000A3EB0B056D1E0DE05B4504DD4FF0000287
:1051500005F1010504E003DA4FF00002A5F10105B5
:10516000002AECD002981199C0E90231C0E900454B
:1051700079E70000000014400000F03F300000001C
:105180000000F0430000E03F2DE9FF4F95B09A4644
:10519000884606460025EEE1252877D100242746DB
:1051A000F94A0121039400E0044316F8013F203B33
:1051B00001FA03F01042F7D130782A2811D06FF0AD
:1051C0002F033078A0F13002092A16D8039A44F050
:1051D000020402EB820203EB42021044761C0390AD
:1051E000EFE758F8042B0392002A03DA504244F404
:1051F0000054039044F00204761C30782E2816D117
:1052000016F8010F44F004042A280DD06FF02F0285
:105210003078A0F13003092B09D807EB870302EBA4
:105220004303C718761CF3E758F8047B761C3078E4
:105230006C280FD006DC4C2817D068280DD06A28BF
:1052400014D104E0742810D07A280FD10DE044F472
:1052500000140AE044F4801401E044F4401472782D
:10526000824202D104F58014761C761C30786628C0
:105270000BD013DC582877D009DC002875D04528DE
:10528000F6D04628F4D047281AD193E118E06328D5
:1052900035D0642879D0652812D18BE1702873D07D
:1052A00008DC6728F1D069286FD06E280DD06F28F0
:1052B00006D1ACE073282CD0752874D0782853D050
:1052C0005246179990476D1C54E1C4F302500228CE
:1052D00009D003280DD0D8F8001004280DD00D6097
:1052E00008F1040846E1D8F80010EA17C1E90052B5
:1052F000F6E7D8F800100D80F2E70D70F0E718F827
:10530000041B8DF8001000208DF80100EB460120F1
:1053100003E058F804BB4FF0FF3061074FF0000185
:1053200002D40DE009F101018946B9420FDA814545
:10533000F8DB1BF809100029F4D108E009F101019C
:1053400089468142FADB1BF809100029F6D103983F
:105350005346A0EB090721463846179A00F080FA19
:10536000284400EB090507E044E008E10DE01BF8E4
:10537000010B524617999047B9F10109F7D25346EC
:1053800021463846179AF2E039E00A21C4F3025266
:105390004FF0000B0091022A06D058F8040BC117F9
:1053A000032A09D00AE023E008F1070020F00702F1
:1053B000F2E80201904605E000B2C117042A01D1CB
:1053C00040B2C117002906DA0A460021404261EBCB
:1053D00002012D2202E0220504D52B228DF80420A3
:1053E000012203E0E20701D02022F7E7914657E0CF
:1053F0000A2100E010214FF0000B00910BE010217A
:105400004FF0000B44F004040827009103E008204B
:105410004FF0000B0090C4F30252022A05D058F856
:10542000040B0021032A08D008E008F1070020F04F
:105430000702F2E80201904603E080B2042A00D19C
:10544000C0B24FF0000922072AD53278702A07D05F
:10545000DDF800C08CF0100C5CEA0B0C05D00EE0FF
:1054600040228DF80420012208E050EA010306D012
:1054700030238DF804308DF8052002229146009BE0
:1054800083F0080353EA0B030AD150EA010201D169
:10549000620705D530228DF804204FF001097F1EE8
:1054A0003278582A04D039A20C920CAA02920BE04E
:1054B0003BA2F9E75B46009AFCF726FE0C9B9B5C3F
:1054C000029A521E0292137050EA0102F2D102981F
:1054D00004A9081A00F1200B600702D524F48034D7
:1054E00000E001275F4502DDA7EB0B0000E0002094
:1054F00000EB0B01009003984944401A0390E0032D
:1055000006D453462146179A039800F0A9F905449A
:10551000002706E001A85246C05D179990476D1C10
:105520007F1C4F45F6DBE0030CD553462146179A06
:10553000039800F095F9054404E03020524617998D
:1055400090476D1C0099481E00900029F5DC08E08A
:105550000298029952460078491C02911799904787
:105560006D1CBBF10001ABF1010BF1DC5BE100F064
:1055700065F90544761C307800287FF40DAE19B02B
:105580002846BDE8F08F0000092801003031323391
:10559000343536373839616263646566000000006F
:1055A0003031323334353637383941424344454659
:1055B00000000000600700D4062708F1070020F073
:1055C0000700F0E80223804603F0004C5FEA0C007D
:1055D00001D097A009E0200501D596A005E0E007DD
:1055E00001D095A001E0AFF24C001390307823F089
:1055F000004365280CD006DC452809D046281DD07C
:1056000047287FD13BE0662818D067287AD136E05A
:105610000021112F01DB112000E0781CCDE90001F1
:1056200004A90CA8FFF7EEFCDDE90D010C9A4FF080
:10563000000B07F10109109200914EE04FF000407D
:105640000097CDE9011004A90CA8FFF7DBFCDDE908
:105650000D020C9B0F994FF0000B91461093009296
:1056600011B9791C00EB0109B7EB090003D4C0F1B3
:10567000FF3B07F10109A9EB0700019042E0012F70
:1056800000DA01270021112F01DD112000E038464A
:10569000CDE9000104A90CA8FFF7B4FCDDE90D0178
:1056A0000C9A00914FF0000BB946109221070FD4CD
:1056B000009A4A4503DA914601E0A9F10109B9F1DE
:1056C000010F05DD109AA9F10101515C3029F4D0D8
:1056D000B84202DA10F1040F03DA0121CDE901101A
:1056E00010E0002803DC8344A9EB000102E0411C28
:1056F000494500DD8946A0EB0B00401C01904FF0AE
:1057000000400290200705D40198484502DB4FF085
:10571000FF30019000208DF84B0002980DF14B07EF
:10572000B0F1004F25D002200C902B200D90029854
:1057300000280CDA404202902D200D9007E00A214B
:105740000298FCF755FE3031029007F8011D0C99C4
:10575000481E0C900029F2DC02980028EFD1791E37
:105760000D980870307800F0200040F0450007F8F0
:10577000020D11A8C01BC01D02901398007800B143
:10578000012000EB0901019801EBE071029801444E
:105790000398401A401E0390E00306D45346214666
:1057A000179A039800F05CF805441398007818B134
:1057B0005246179990476D1CE00323D55346214666
:1057C000179A039800F04CF805441BE0BBF1000F5A
:1057D00007DB0098584504DD1098179910F80B0066
:1057E00001E0179930205246904701980BF1010BC8
:1057F000401E05F10105019004D12E205246179953
:1058000090476D1CB9F10001A9F10109DEDC05E04A
:1058100017F8010B5246179990476D1C0299481EC4
:1058200002900029F4DC53462146179A03989EE61D
:105830002D0000002B000000200000002DE9F041A9
:10584000044600251E461746880404D405E0394660
:105850002020B0476D1C641EF9D52846BDE8F081B4
:105860002DE9F041044600251E469046C80301D5A7
:10587000302700E02027880404D505E0414638465B
:10588000B0476D1C641EF9D52846BDE8F0814A6812
:10589000002A06D00A68531C0B6010704868401E2E
:1058A00048607047C26B0A43C26370470146486B49
:1058B000C0F305204A6BC2F3016240EA82107047D0
:1058C0000146C86B7047C26A0A6070470146486B60
:1058D000C0F3803070470146486BC0F3C05070473A
:1058E000C162704770B503460C461546E000B0FB38
:1058F000F5F2D109A2EBC112501C46085962B1F56C
:10590000803F00D211B94FF0FF3070BD4FF6FF70ED
:10591000814202D10020986201E0521A9E62D86A48
:10592000D8620020F1E701468869C0F30010704793
:1059300001468869C0F3C010704701468869C0F30A
:10594000401070470146C86B704770B505460C465D
:105950001646002028636864A86368606862A862CD
:10596000E8622846D4E90312FFF7BCFF10B14FF0FC
:10597000FF3070BD6078C0F38000C001217840EA3C
:105980004110A17840EA0110E17840EAC100617855
:1059900001F0030140EA4100E862A07A617A40EA3E
:1059A00001206863AE6320794002617940EA0120FA
:1059B000A1790843E17940EAC130217A40EA813097
:1059C00028630020D5E700002DE9F04107460226B4
:1059D0003878062875D2DFE800F007F503040506DD
:1059E00059E158E157E156E1FEF7B4FB044620784F
:1059F00000F01F0020B1012875D0022874D100E109
:105A00006078062844D008DC00286ED001280DD02C
:105A100003281AD0052869D106E0082867D009288C
:105A200022D01728F7D190E00226CEE0A07800F02F
:105A30000F0008B9012100E000219948006861F3D6
:105A40000000974908600226BFE0A07800F00F0030
:105A500008B1012100E000219148006861F30000D5
:105A60008F4908600226B0E08E48FEF72FF8064303
:105A70008C48C01DFEF72AF806438A491239B1F84E
:105A80001D20C87E00238849FEF734FF06439CE0B2
:105A900060880012012804D0022813D0032850D1B6
:105AA00026E01225E088A84201D2E08800E02846DE
:105AB0000546AAB200237D491846FEF7D7FF0643E4
:105AC00041E0E7E02025E088A84201D2E08800E03C
:105AD00028460546AAB20023724912391846FEF735
:105AE000C5FF06432FE072E08CE053E06BE05DE021
:105AF000A07830B1012808D002280AD0EE2810D1B1
:105B00000BE00425DFF8A8810BE01225DFF8A48163
:105B100007E01025DFF8A08103E01225DFF89C8163
:105B200000BF00BFE088A84201D2E08800E028461C
:105B30000546AAB2002341461846FEF797FF0643E2
:105B400001E0102600BF00BF3FE0207904280ED1FD
:105B50002825E088A84201D2E08800E028460546D2
:105B6000AAB2002356491846FEF780FF0643207963
:105B700005280ED18E25E088A84201D2E08800E0F9
:105B800028460546AAB200234E491846FEF76EFF86
:105B900006431AE001204C49087000204870002399
:105BA00002221846FEF762FF06430EE03D48123817
:105BB000407945490870002301221846FEF756FF38
:105BC000064302E02CE0102600BF00BF1CE0607816
:105BD000172812D1207905280ED18E25E088A842F9
:105BE00001D2E08800E028460546AAB200233549E4
:105BF0001846FEF73BFF064301E0102600BF00BF3A
:105C000002E001E0102600BF00BF022E07D0102ED8
:105C100005D031462DA0D4E9002300F005F93AE083
:105C2000787910B1012832D123E0387902281FD1C8
:105C3000397930A000F0F8F8002405E01A48015D39
:105C40002FA000F0F1F8641C0A2CF7D32EA000F06E
:105C5000EBF8332240212D48FCF799FA114912390B
:105C6000CA8A087D00231049FEF700FF064300BFE3
:105C70000EE03879012809D10A491239B1F81D20FE
:105C8000C87E00230849FEF735FE064300E000BF4A
:105C900000BF00E000BF00BF3046BDE8F08100005B
:105CA0006C0000203E6300027C1600201863000296
:105CB0004C630002506300026463000274630002DC
:105CC00088630002B06300023C1600205553422056
:105CD0006576656E742065786563206572726F7293
:105CE0002025782028307825782030782578290AD2
:105CF0000000000028256429646174613A200000D6
:105D000020307825782000000A000000BC16002012
:105D100000B585B00C48FDF75CFCFCF7A7FE00F071
:105D20006FF80AA0FFF734F914216846FCF736FA39
:105D30000A4800900A4804900AA0FFF729F968462B
:105D4000FEF754FB05B000BD0100040070696E2031
:105D5000636F6E6669670D0A00000000000800802E
:105D6000C9590002636F6E66696720696E69740DB8
:105D70000A00000070B504460D4600BF0548FFF755
:105D8000DCFD0128FAD021780248FDF7F1FD002062
:105D900070BD00000010014030B585B005460C46CE
:105DA00003208DF8000000208DF8010001208DF8FF
:105DB000020000208DF8030001208DF804008DF80A
:105DC00005008DF8060000208DF807008DF808000A
:105DD00001208DF809008DF80A0003950494302203
:105DE00069460248FFF7B1FD05B030BD0010014023
:105DF00070B504460D462946204600F07DFA70BD78
:105E00000748006840F07F004FF08041C1F89001E2
:105E10000448006840F00100024908607047000033
:105E200090010040006000400FB410B5A2B0802186
:105E300001A8FCF7B3F925A82190802101A8219B96
:105E4000249AFFF7B5F8044600202190214601A8C6
:105E500000F052FA22B010BC5DF814FB13B50C46EA
:105E600000216846FFF786FF00981CBD30B5034649
:105E700023FA01F401209040451E2C400CB120462D
:105E800030BD0120FCE7000010B504461148124A5D
:105E9000128820F8124010480088401C0E490880E3
:105EA00008460088092802DCB4F5806F10D10BA1E8
:105EB0000020FDF771FA002005E00021054A22F8D4
:105EC0001010411CC8B20A28F7DB002002490880E4
:105ED00010BD00000A0600205C0000202D2D2D2D95
:105EE0002D2D2D2D2D2D2D2D2D2D2D2D2D2D2D2DE2
:105EF0002D2D2D0D0A00000072B62A482A4908608F
:105F000062B64FF4A06101F00702274B1B1D186811
:105F10004FF6FF031840254B034343EA0220224B70
:105F20001B1D186000BF45F6C051481EB0F1807FB0
:105F300000D31CE0481E4FF0E022506150171F2292
:105F4000002804DBD3061C0E194B1C5407E0D306B3
:105F50001D0E154B103300F00F04241F1D5500BFFC
:105F600000204FF0E02290610720106100BF00F098
:105F700031F910A0FFF758FFFDF7A4F912A1002096
:105F8000FDF70AFAFFF7C4FE00BF4FF47A71084626
:105F9000FDF73CFC42F2107145F6C050FDF736FCAF
:105FA000F3E700000020000208ED00E00000FA0521
:105FB00000E400E0646562756720756172745F7467
:105FC0006573740D0A000000646562756720727461
:105FD000740D0A00002101E000BF491C8142FBD37F
:105FE00070470000F8B50746002000902648FFF7EC
:105FF00067FC054625A10020FDF7CEF905F010004D
:10600000B0B126A10020FDF7C7F92948FFF74EFCE3
:106010000646002409E069462548FFF754FC25A1FF
:106020000020009AFDF7B8F9641CB442F3D300BF16
:1060300005F0040070B108E069461348FFF743FC1F
:106040001CA10020009AFDF7A7F90F48FFF73EFCBE
:106050000028F1D0002408E0072C00D900241B48B8
:10606000015D0948FFF73CFC641C0748FFF733FC5F
:106070000028F1D0FF210448FFF714FC14A10020F0
:10608000FDF78AF90020F8BD000016403E3E3E694B
:106090006E70757420696E74200D0A003E3E3E736A
:1060A000706920656E6420696E7420656E0D0A004B
:1060B00000E000403E3E3E737069207278206461CB
:1060C00074613A307825780D0A00000062000020E3
:1060D0003E3E3E73706920656E640D0A000000004C
:1060E000F0B5024610464FEAE27C02EB5C7C4FEAD8
:1060F000EC0402F0070C802040FA0CF500264B1E41
:1061000001EB8100DFF830C00CEB8007385D2840E0
:1061100008B9701EF0BD0AE003EB8300DFF818C079
:106120000CEB8007385D284000B1761C5B1E002B0D
:10613000F2DA3046EEE700003E64000230B501249A
:1061400004FA02F304689C4301FA02F52C4304604C
:1061500030BDF0B501269640741E04FA03F6F543EF
:1061600006682E4001EA04079F403E430660F0BDEA
:10617000F0B503460A462A2B02DB4FF0FF30F0BD94
:1061800003EB8300124E06EB80040025511ED61748
:1061900002EB5676F610A65D02F0070C802747FA50
:1061A0000CF73E400EB9681EE9E70DE0CE1701EB93
:1061B0005676F610A65D01F0070C802747FA0CF71B
:1061C0003E4006B16D1C491E0029EFDA2846D6E78D
:1061D0003E64000210B50020FDF7F4F94FF40830DA
:1061E000FDF7F7F90F210120FCF7EAFC022101205D
:1061F000FCF7CAFC4FF4E1310148FFF7CDFD10BDBB
:1062000000366E0110B546E02448FFF79BFB0446BC
:1062100004B941E02148446404F01000B0B10CE03E
:106220001E490968C8B21E491E4A126888541D4991
:106230000968491C1B4A116000BF1848FFF773FB2F
:106240000128EDD118A10020FDF7A6F804F04000C8
:10625000B0B10CE011490968C8B21149114A12687D
:10626000885410490968491C0E4A116000BF0B4848
:10627000FFF759FB0128EDD10EA10020FDF78CF8A6
:1062800000200749074A1268885406490860044AF2
:106290000BA1FDF781F8B7E700BF10BD001001406A
:1062A000EC0400202400002066756C6C20696E6987
:1062B000740D0A0074696D65206F7574000000002C
:1062C0000A647374203D2025730A000070B50546EA
:1062D0000E4600240AE000BF0648FFF729FB00280D
:1062E000FAD0295D0348FDF743FB641CB442F2DB9E
:1062F00070BD00000010014070B504460D462946EF
:106300002046FFF7E3FF70BD303132333435363786
:10631000383941424344454612010002FF01014021
:10632000F1FF2FFA00000102000100000902200025
:10633000010100C0FA0904000002FF010100070585
:106340008102400000070502024000000403090426
:10635000120349006E006700630068006900700066
:10636000730000001003770069006E002D006400C8
:106370006500760012034D005300460054003100C2
:106380003000300017000000280000000001040069
:106390000100000000000000000157494E55534223
:1063A00000000000000000000000000000000000ED
:1063B0008E000000000105000100840000000100C3
:1063C0000000280044006500760069006300650055
:1063D00049006E0074006500720066006100630091
:1063E0006500470055004900440000004E000000D1
:1063F0007B00370038003900410034003200430090
:1064000037002D0046004200320035002D003400D8
:106410003400330042002D003900450037004500AC
:106420002D004100340032003600300046003300B9
:10643000370033003900380032007D000000DFFFF4
:10644000FFAAAA48808008020A7FFFFE0020080EEB
:106450001F90DFFFFF55552440400401067FFFFDDC
:106460000010040E9F90DFFFFFAAA89020200200DA
:10647000827FFFFC8008020E5FD0DFFFFF55564889
:106480001010010042FFFFFC4004010F1FB0FFFF8E
:10649000FFAAA926080800802B7FFFFC2002008E9F
:1064A0001F90DFFFFF55549304040040167FFFFC4C
:1064B0001001004E3F90DFFFFFAAAA48020200220F
:1064C000027FFFFC0800802E1FD0DFFFFF555526FE
:1064D00001010011027FFFFC0400401E9FB0DFFF9E
:1064E000FFAAA892800080088A7FFFFC0200280E85
:1064F0005F90DFFFFF55564A40004004467FFFFC97
:106500000100140F1F90DFFFFFAAA9262000200022
:10651000227FFFFC0080020E1FD0DFFFFF5554904A
:1065200010001000127FFFFC0040010E3FB0DFFFA3
:10653000FFAAAA49088008020A7FFFFE0020008EF9
:106540001F90DFFFFF55552504400401067FFFFD26
:106550000010004E9F90DFFFFFAAA89102200200CA
:10656000827FFFFC8008002E5FD0DFFFFF55564979
:1065700001100100427FFFFC4004001E1FB0DFFF3E
:10658000FFAAA925800800802A7FFFFC2002080EB0
:106590001F90DFFFFF55549040040040167FFFFC22
:1065A0001001040E3F90DFFFFF55424820020022F9
:1065B000027FFFFC0800820E1FD0DFFFFFAA8124AC
:1065C00010010011027FFFFC0400410E9FB0DFFFAD
:1065D000FF554091080080088A7FFFFC0200208E52
:1065E0005F90DFFFFFAAAA4B04004004467FFFFC38
:1065F0000100104E1F90DFFFFF55552702002000BD
:10660000227FFFFC0080002E1FD0D011F2AAA88BA1
:1066100001001000104047C4004000102AA0C80923
:10662000E955566480800800082027B20020080041
:106630001510C405E4AAA9104040040006101789EB
:10664000001004000A80C203F25554882020020082
:1066500000080FC4800802001540C101E9AAAA641D
:1066600010100100000407B0400401000AA0C0009F
:10667000005554000808008000000000200200803F
:106680000000C00000AAA8000404004000000000B0
:10669000100100400000C081E455551202020020A4
:1066A00008020788080080201510C041F2AAA888B7
:1066B00001010010040107C4040040100A80C02139
:1066C000E955566480008008020087B00200280067
:1066D0001540C00000AAA8004000400400000000CF
:1066E000010014000000C0000055540020002000EC
:1066F00000000000008002000000C00000AAA80006
:106700001000100000000000004001000000C80060
:106710000000000000000000002000000000000059
:106720000000D00000000000000000000040000059
:10673000000000000000C400000000000000000095
:1067400000100000000000000000C2000000000077
:106750000000000000080000000000000000C10070
:106760000000000000000000000400000000000025
:106770000000C080000000000000000000020000D7
:10678000000000000000595A5B5C5D5E5F6063645E
:1067900061620000000101010101020202020A0F10
:1067A0001400050A0F140A0F000503040506070864
:1067B000090A0D0E0B0C240D0000250D0000000D24
:1067C0000000090D0006120D000C1B0D0012140034
:1067D0000E0002000E080B000E0C1D000E10100023
:1067E0000F0007000F0619000F0822000F03110009
:1067F0001100080011061A001108230011030000FF
:10680000206800020000002074000000E44F000235
:106810009468000274000020141C0000F44F000271
:106820000000000046696E697368656420746F201B
:10683000726563656976652061206672616D6521A8
:106840000A0000000000000000000000001801190C
:10685000021A031B000C010D06120713340000205E
:10686000040000002C000020040000000A100000BA
:1068700001009600AA0032000000000000000000A5
:10688000000012233445566778890000000000009C
:046890000000000004
:04000005020020D500
:00000001FF
