:020000040200F8
:10200000400C0020ED200002F120000225270002F4
:10201000F5200002F7200002F92000020000000075
:10202000000000000000000000000000FB20000293
:10203000FD20000200000000FF200002F12F00023E
:10204000032100029128000203210002F126000270
:1020500001300002032100020321000203210002DB
:102060000321000203210002712B00020321000260
:10207000032100028530000229270002032100020B
:10208000032100024D2B0002492B0002452B0002C8
:10209000F5370002032100020321000203210002A0
:1020A000E92A000203210002792B00020321000229
:1020B0000321000203210002032100023530000247
:1020C000DD270002032100020321000200000100BD
:1020D00000A00200DFF810D000F0D0FA004800475E
:1020E000694F0002AFF30080400C00200548004714
:1020F000FEE7FEE7FEE7FEE7FEE7FEE7FEE7FEE7B8
:10210000FEE7FEE7D52000022DE9F05F054600203E
:1021100092469B4688460646814640241BE0284658
:1021200041464746224600F019F953465A46C01A1E
:10213000914110D311461846224600F000F92D1A9D
:1021400067EB01084F4622460120002100F0F7F816
:1021500017EB00094E41201EA4F10104DFDC4846C4
:1021600031462A464346BDE8F09F40EA01039B07FB
:1021700003D009E008C9121F08C0042AFAD203E0FC
:1021800011F8013B00F8013B521EF9D27047D2B260
:1021900001E000F8012B491EFBD270470022F6E750
:1021A00010B513460A4604461946FFF7F0FF2046CD
:1021B00010BD034611F8012B00F8012B002AF9D1BC
:1021C000184670472DE9FE4F804681EA0300C00F94
:1021D0000C46009021F0004123F00045B8EB0200CE
:1021E000A94105D24046214690461C460B46024670
:1021F00023F00040104347D0270DC7F30A00C3F374
:102200000A510290401A019040286BDAC3F3130080
:1022100040F4801B0098924620B10023D2EB030AC1
:1022200063EB0B0B01985946C0F14002504600F099
:1022300086F806460D4650465946019A00F09EF82B
:1022400010EB08006141002487EA115284EAE77329
:102250001A4340D0009A62B3019A012A4FEA07520A
:1022600015DC001B61EB02014FF0004202EA07524D
:10227000CDE90042001C41F5801132462B4600F0AA
:102280009EF803B0BDE8F08F40462146F9E7001BF9
:1022900061EB0201001C41F5801300185B4120181E
:1022A000A2F5001747EB030140EAD570B6196D415E
:1022B00011E06D084FEA360645EAC0754FEA07524D
:1022C000001B61EB0201001C41F5801149084FEA37
:1022D00030000019514132462B4603B0BDE8F04FA3
:1022E00000F05EB80098012240000023D0EB02020B
:1022F00063EBE073009821464FEAE074B8EB00000E
:1023000061EB0401E9E783F000435BE781F0004102
:1023100058E730B50B46014600202022012409E091
:1023200021FA02F59D4205D303FA02F5491B04FA8E
:1023300002F52844151EA2F10102F1DC30BD202A6D
:1023400004DB203A00FA02F1002070479140C2F10C
:10235000200320FA03F3194390407047202A04DB3E
:10236000203A21FA02F00021704721FA02F3D0400E
:10237000C2F120029140084319467047202A06DB2B
:10238000CB17203A41FA02F043EAE07306E041FA43
:1023900002F3D040C2F12002914008431946704731
:1023A00010B5141E73F1000408DA401C41F100015D
:1023B00092185B411A4301D120F0010010BD2DE9B4
:1023C000F04D92469B4611B1B1FA81F202E0B0FAAB
:1023D00080F220329046FFF7B2FF04460F4640EAF3
:1023E0000A0041EA0B0153465A46084313D01146EE
:1023F00053EA010019D0C8F140025046FFF7AEFF82
:1024000005460E46504659464246FFF798FF084398
:1024100005D0012004E020463946BDE8F08D0020BB
:10242000054346EAE0762C4337430A986305E40AFD
:10243000A0EB08000022FD0A44EA47540A3002D506
:1024400000200146E9E7010510196941DDE9084569
:1024500000196941BDE8F04DA2E72DE9FE4F81EA80
:10246000030404F0004421F0004100944FF0000BFD
:1024700023F0004350EA01045ED052EA03045BD02B
:10248000C3F30A54C1F30A552C44A4F2F334019463
:10249000A0FB0254C1F3130141F48011C3F31303F1
:1024A00043F4801301FB024400FB034E840A970AA5
:1024B00044EA815447EA8357A4FB076802958D0AD2
:1024C00005FB07854FEA932C04FB0C542705029D5E
:1024D0004FEA065847EA1637B5EB08056EEB070CCE
:1024E000870E920E47EA811742EA8312A7FB020188
:1024F000B6EB0B0164EB00042B0D43EA0C335E18C2
:1025000044EB1C50DA465146E7FB0201C5F31304C5
:102510004FEA0B3343EA14534FEA0432019C43EA77
:102520000603A4F10C040294009CCDE900B4FFF76B
:1025300046FF03B0BDE8F08F00200146F9E72DE922
:10254000F04D81EA030404F0004B21F000451446ED
:102550004FF0000A23F0004150EA050220D054EA6F
:1025600001021DD0C5F30A570246C5F31303C1F398
:102570001300C1F30A5640F4801543F48013A7EB0F
:102580000608101BD64608F2FD3873EB050002D38F
:1025900008F1010801E092185B41B8F1000F03DA7D
:1025A00000200146BDE8F08D00204FF48011064662
:1025B00084460EE0171B73EB050705D3121B63EB74
:1025C000050306434CEA010C49084FEA3000921813
:1025D0005B4150EA0107EDD152EA030012D082EAD2
:1025E000040083EA0501084305D0101BAB4106D265
:1025F0000122002306E000224FF0004302E06FF0CA
:10260000010253101AEB06004CEB085110EB0A00C4
:1026100041EB0B01BDE8F04DFFF7C2BEC1F30A521A
:10262000C1F3130140F2FF3341F480119A4202DA00
:1026300000200146704740F233439A42A2F23342EF
:1026400002DC5242FFF78ABEFFF779BE30B5041EA6
:1026500071F1000404DB4FF00044404264EB0101DF
:10266000141E73F1000405DB1C464FF00043524278
:1026700063EB0403994208BF904230BD064C074DFE
:1026800006E0E06840F0010394E807009847103442
:10269000AC42F6D3FFF722FDCC5C0002EC5C0002FA
:1026A000152801D3074900E0074901D3A0F115001F
:1026B0004A6E4FF0010303FA00F342EA03024A664E
:1026C000704700000060014000500140152801D310
:1026D000054900E0054901D3A0F11500496E21FA32
:1026E00000F101F00100704700600140005001401E
:1026F00010B50920FFF7EAFF002808D004A1002048
:1027000000F0ACFABDE810400920FFF7C9BF10BDCA
:10271000696E74206770696F3020746967676572CD
:102720000D0A0000FEE7000070B5184E304600F0BC
:1027300046F80446000703D50821304600F032F879
:10274000A0070BD50025304600F032F8024610A154
:10275000002000F083FA6D1C042DF4DBA00508D4E2
:1027600070BD304600F024F802460CA1002000F0B5
:1027700075FA304600F01FF80028F2D03046BDE868
:1027800070404FF4007100F00DB8000000300140BF
:102790003E3E3E20253032580A0000003E202530C3
:1027A00032580A008269C1F309010A438261704705
:1027B000006AC0B27047806900F00100704780690C
:1027C000C0F30900704781617047806900F0030021
:1027D0007047C069C0F304207047000070B50D4E0B
:1027E0003046FFF7F2FF01463046FFF7ECFF304678
:1027F000FFF7EFFF0546002409E0304600F012F82D
:10280000024605A1002000F029FA641CE4B2AC42A3
:10281000F3D370BD00000140646174613A307825E3
:10282000780D0A000069704710B5062101220248A0
:1028300000F016F8C0B210BD14A0004010B5002181
:102840000B22024800F00CF880B210BD1CA0004022
:10285000052101221346014800F00BB810A00040EA
:102860004FF0FF33C2F120020068D340C840184047
:10287000704730B54FF0FF34C2F12002D4400268F7
:1028800004FA01F52340AA438B401A43026030BD8D
:1028900010B5FFF7DDFF0DE0FFF7D0FF044602465D
:1028A00007A1002000F0DAF90AA002F00BFB204695
:1028B00002F02CFBFFF7B8FF0028EDD010BD0000A0
:1028C0006B65792064617461207472673A30782591
:1028D000780A0000310D0A0070B50F23C478017822
:1028E0000122F4B1144C2468457804F4E064C4F582
:1028F000E064240AC4F10406E3408478B5401C4037
:102900002C4301F1E021230181F80034007800F02C
:102910001F018A404009800000F1E020C0F800213A
:1029200070BD01F01F0082404809800000F1E020E6
:10293000C0F8802170BD00000CED00E0024901EB01
:102940000010406E70470000005000402DE9F0413B
:1029500004462048069F00EB82064FF0FF357F2C8F
:102960002AD0C81701EB5070C21001F007004FF0D9
:10297000800C2CFA00FC601E04EB840E164C002127
:1029800004EB8E0E1EF802E01EEA0C0F01D1294660
:102990000FE0002816DB00BF00EB800504EB850587
:1029A000AD5C15EA0C0F00D0491C401EF4D500297F
:1029B00008DA0846BDE8F081F9B2DAB20B463046D3
:1029C000294603E0FCB2DAB23046234602F06FFE3D
:1029D0000020EFE7406000400A59000238B50C467D
:1029E00050B1012807D1002005230422672100905F
:1029F0002046FFF7ABFF38BD0F20052303226521DA
:102A00000090F5E72DE9F0410A464FF0FF352A28FE
:102A100010D2334B00EB800103EB810303EBD206B2
:102A2000511E02F0070736788022002422FA07F7A9
:102A30003E4203D129460846BDE8F081002911DB5A
:102A4000CD1701EB557503EBE50501F007062D7871
:102A500022FA06F6354200D0641C491EF0D521004A
:102A6000E9D400E02146162809D800F00302C2EBA1
:102A7000C2031C4A20F00300104407222BE0172851
:102A800005D0184C18341B2806D818380FE0154804
:102A90001523062214301EE01D2803D8A8220FE0BB
:102AA000204618E00F4C1C34202806D81E3800EBB6
:102AB00040004006030E0622F2E7232805D88E22A6
:102AC00002EB8000C3B20422EAE740004838C3B2F8
:102AD00004480222203002F0EAFD0020ACE70000AA
:102AE0000A5900020060004010B5002000F022F8F2
:102AF000C0F30214214607A002F0E4F907E0002029
:102B0000FFF71CFF014607A002F0DCF9641E002C51
:102B1000F5DC10BD7265616420636F756E743A20D8
:102B200025780A0072656164206E756D3A202578FB
:102B30000A000000024901EB4010406870470000A5
:102B40000050004002F0E6BA02F0D0BB02F0BABC7E
:102B5000024901EB8010006A7047000000900040BD
:102B6000024901EB8010C0687047000000900040EF
:102B7000002002F04FBA000010B5084C204600F0CB
:102B80001CF8002808D006A1002000F067F82046B5
:102B9000BDE8104000F00CB810BD000000C00140BE
:102BA0007274696D657220696E740D0A0000000010
:102BB000816841F04001816070478068C0F38510F2
:102BC000704701F03DB900002DE9F04107460B4880
:102BD00015460E46007808B901F032F9EFF311847A
:102BE000202080F311882A463146384600F008F844
:102BF000E1B281F31188BDE8F08100006C00002093
:102C000070B50E46144900EB400001EBC0051446B8
:102C1000E86A183520B101280FD0022805D113E049
:102C2000284601F041F9A04201D2002411E02246D9
:102C30003146284601F05EFA0BE0284601F034F9EF
:102C4000A042F4D20446F2E73146284601F025FAC4
:102C50000446204670BD00006C0000200FB408B58B
:102C600004A900916A46039900F003F801B05DF8E9
:102C700014FB2DE9F04198B0064607A802904020C9
:102C80000025CDE90305CDE9055690460C4614F81C
:102C9000011B002973D0252908D002A801F0DEF914
:102CA00005980028F3DA18B0BDE8F0810020012172
:102CB0002278232A1ED02B2A19D02D2A02D0302A7E
:102CC00008D102E040F0010001E040F00200641C85
:102CD0000029EDD100222178A1F130030A2B0CD27A
:102CE00002EB820201EB4202303A641CF3E740F04F
:102CF0000400ECE740F00800E9E70023CFB22E2FF4
:102D00000BD114F8011FA1F130070A2F05D203EBF4
:102D1000830301EB4303303BF3E76C290DD06829B3
:102D20000BD0702954D00BDC252916D0582931D06E
:102D300063290CD0642913D114E014F8011FECE7C7
:102D4000732934D075291BD0782909D122E0D8F80D
:102D50000000011DC8F80010017802A801F07EF9FA
:102D6000641C9DE7D8F800100F1DC8F800700968B2
:102D7000CDE900200A2202A801F0A2F8F0E733E032
:102D8000D8F800100F1DC8F800700968CDE90020C0
:102D90000A2208E0D8F800100F1DC8F80070096872
:102DA000CDE90020102202A801F0EEF8D8E7D8F80B
:102DB0000000011DC8F80010076817F8011B002962
:102DC000CED002A801F04AF905980028F5DAC7E745
:102DD000D8F80000011DC8F8001001680820CDE9EE
:102DE000000503461022DEE7059800287FF75BAF59
:102DF000049820B1024607A93046FFF7E5FEDDE959
:102E00000410084405904EE7012100F011B870B598
:102E100000240546012606FA04F0284202D0204686
:102E2000FFF7F2FF641CE4B2162CF4D370BD00006F
:102E300070B5484C0246474808340D46162A72D2EF
:102E4000DFE802F00B0D151B21272D3843874C4F6F
:102E5000555B6167696F727B8181152200E01622E4
:102E6000294602F01BFC12222946204655E0022288
:102E7000294602F013FC0022F6E70322294602F05D
:102E80000DFC0122F0E70122294602F007FC112285
:102E9000EAE70522294602F001FC0A22E4E72D4870
:102EA00009222946001D02F0F9FB2A480C22294676
:102EB000483032E00A22294602F0F0FB132229466C
:102EC000204602F0EBFB1422CEE70C22294602F04A
:102ED000E5FB204800222946001F1EE00E2229465D
:102EE00027E00F22294602F0D9FB0C22BCE7102272
:102EF000294602F0D3FB0822B6E71122294602F048
:102F0000CDFB0422B0E71222294602F0C7FB0522BE
:102F1000AAE7132200E000222946BDE8704002F033
:102F2000BDBB0622F8E714E00A4C0522743429469A
:102F3000204602F0B3FB072296E71C22294602F046
:102F4000ADFB152290E70422294602F0A7FB0222DE
:102F50008AE770BD0C00004070B50D46044600F0D5
:102F600011F8A0FB050122460023FFF7CDF803214D
:102F7000801CB0FBF1F0002803D000E000BF401E31
:102F8000FCD170BD70B5094CA06940000AD500F0B5
:102F90000FF80546A0690422142101F0AEFFB5FB2D
:102FA000F0F070BDBDE8704000F01AB8002010408D
:102FB0000A4810B5C369D8020ED5C3F34502C3F35E
:102FC000C530424300F00CF8C3F3C711A0FB010168
:102FD0000023FFF799F810BD002010BD000010403D
:102FE00001480069014870470020104000366E011A
:102FF00002480168491C0160704700000000002081
:1030000010B508A10020FFF729FE094C0022114647
:10301000204600F023F820460F22BDE81040002192
:1030200000F02AB874696D657230206973720A0005
:103030000020004010B505A10020FFF70FFE0F2271
:10304000BDE810400021044800F016B874696D65B1
:103050007231206973720A000030004010B5C369F4
:1030600089000F248C40A343C36102F00F028A4001
:10307000C1690A43C26110BD02F00F0289008A4093
:103080008261704702F03CBB0160704710B50406D6
:10309000094B20F080004FF000014FF0FF3203EBAE
:1030A000001004D5C0E90121C160016110BDC0E973
:1030B0001921C166016710BDB806002030B5002295
:1030C00020F080010406144D20F0800005EB401331
:1030D000124D05EB001006D5001D11B1D3F81019E3
:1030E00005E00F4914E0643089B1D3F8101BC1F337
:1030F0001201037B9B0708D58268511A41604FF08B
:10310000FF310160002101228160104630BD054978
:10311000096801F07F01ECE700001840B8060020C4
:1031200010091840100B184030B5144900200870E1
:1031300048700146802000F0FDFD0024641C44F02E
:103140008005E8B2002100F0F5FDE8B200F0FEF8DD
:10315000E4B2052CF2D30021084600F0EBFD002478
:10316000641C04F07F050021284600F0E3FD28469A
:1031700000F0ECF8E4B2052CF2D330BDB806002024
:1031800030B58178124A21F0800102EBC104437806
:10319000D4F8C410022563F38B21C4F8C4108288CC
:1031A00062F31631C4F8C4108278120602D541F4D5
:1031B000807101E021F4807144F8C41FC1788078E7
:1031C00000F064F9206840F400702060284630BDAB
:1031D000B80600203CB51F4C054620F080010306D0
:1031E00020F0800204EB42101B4C04EB021406D5C5
:1031F000241D11B1D0F8100905E0184817E0643417
:10320000A1B1D0F8100BC0F312012068421C0BD002
:10321000A268511A401A2060626800281144616057
:1032200009DC4FF0FF30206001203CBD0C480068F5
:1032300000F07F01E9E76A4601A9284600F008FA94
:103240000199A160BDF80020284600F03DFC002057
:103250003CBD000000001840B806002010091840CE
:10326000100B184010B5074C20690028FCDA2069C3
:1032700040F001002061642001F0C4FE2069C00715
:10328000FCD110BD000018401249886948F238028C
:103290009043886110480268104B1A43026002682C
:1032A00022F4FE620260026822F4000202600268F8
:1032B00022F004020260001D026822F00202026095
:1032C0008869074AD2F8F420104340F440508861DE
:1032D000704700000000184000081840030000017B
:1032E000B806002030B516481649B0F8F82072B17B
:1032F0000A68154B1A400A600A68B0F8FE304FF4AD
:103300008034C3F3080344EA43431A430A600C4A77
:10331000B0F8FA30B2F8FC200BB9002A0FD00C68D4
:1033200040F2FC75AC430C60B0F8000113435A0046
:10333000C0F3080042EA80000A681043086030BD0C
:10334000B806002030081840FFFF01FC70B50446A5
:103350003D4D3C4A24F0800120F0800026064FF0CD
:10336000010305EB411131D5C8B1D1F8005945F041
:103370000065C1F80059D1F80059002D05DAD1F8DF
:10338000005945F08045C1F80059D1F80859D1F8E5
:1033900008693543C1F808591168834032E029496A
:1033A000E4310B6843F000630B600B68002B03DA19
:1033B0000B6843F080430B602249EC310B680D68C9
:1033C0002B430B60116821F001011CE018B3D1F808
:1033D000005B45F00065C1F8005BD1F8005B002D93
:1033E00005DAD1F8005B45F09045C1F8005BD1F8F3
:1033F000085BD1F8086B3543C1F8085B116800F130
:103400001005AB409943116000F0D0F82046BDE8AC
:103410007040FFF73BBE0D490B6843F000630B6043
:103420000B68002B03DA0B6843F080430B600749FD
:1034300008310B680D682B430B60116821F4803153
:10344000E1E700001C08184000001840000B18407D
:10345000074900B50420487000231A4601F5A471FD
:10346000184600F037FC5DF804EB00F0DDB8000012
:10347000B80600200520044900231A46487001F5CB
:103480008471184600F09EBBB8060020F0B5354C9C
:1034900020F08002070620F0800304EB4310324C3A
:1034A00001F0030604EBC304304D31494FF0010332
:1034B0002CD5C2B1D0F80079D4F8C440C4F30A3492
:1034C0002743B40402F00F0644EA865427432F43EF
:1034D000C0F80079D0F80849D0F808592C43C0F852
:1034E0000849086828E02248E430026842EA864237
:1034F00042F4004202601E48EC30026803681A433E
:103500000260086840F001000860F0BDBAB1D0F870
:10351000007BD4F8C440C4F30A34274345EA864408
:103520002743C0F8007BD0F8084BD0F8085B2C4349
:10353000C0F8084B0868103293401843E4E70D4880
:1035400002684FF4004343EA86431A430260094885
:103550000830026803681A430260086840F480304B
:10356000D2E7000000001840B806002000800010DC
:103570001C081840000B18400A48016841F400710B
:10358000016001680907FCD507490A6942F0100289
:103590000A610A69D206FCD4016841F480610160C5
:1035A0007047000004081840000018400F4A516995
:1035B0004B060F4903D40B6843F080030B6053693B
:1035C0005B06FCD51369002BFCDA13699B06FCD45F
:1035D00000F01F00202343EA80101061106980066C
:1035E000FCD4086840F48070086070470000184000
:1035F0000408184000487047C00700200448C06C09
:103600000121C0F30210001D814088B27047000004
:10361000000018400348C06C00F00F0101200B317E
:103620008840704700001840074906480860091D97
:103630000648086004481038016841F00441016000
:103640007047000018000860100B1840C0070020E9
:1036500070B50E46264B20F0800103EBC103244CCD
:10366000D3F8C430C3F30A35030620F0800004EB1E
:1036700000101DD5436851B1FFF7CCFF984202D826
:10368000FFF7C8FF0346AB4205D8012007E0AB4275
:1036900017D2012428E05819401EB0FBF5F084B27F
:1036A000FFF7ACFFA0421FD2FFF7A8FF044619E0C6
:1036B000643031B10368FFF7ADFF984203D9184673
:1036C00003E02B46E5E7FFF7A5FFA84201D801205C
:1036D00003E02844401EB0FBF5F084B2FFF78EFFF4
:1036E000A042E1D904FB05F33360148070BD0000F3
:1036F000B8060020FEB53C4D0026A5F584740127D0
:103700006078062838D2DFE800F0370345586A6A47
:10371000287810F01F0F19D13449687809780528E6
:1037200002D0092812D10EE03148026822F4FE626C
:1037300002600268AB7803F07F0342EA0312026082
:1037400041F0100001E041F0200020708DF8006091
:10375000D4F8041168468847102808D002280BD1F5
:10376000EA8852B1287800060AD5022009E02878B4
:1037700000F0800000F0D0FAFEBDFFF769FEFEBD4C
:10378000032060700328FAD100231749184600F07F
:1037900019FAFEBD8020FFF71DFD0028F9D08DF835
:1037A00004608DF8007002968DF80570D4F804114D
:1037B00068468847FFF75EFEFEBD0020FFF70AFD62
:1037C0000028F9D08DF800708DF80460A06E02908A
:1037D0008DF80560D4F8041168468847CDE7677016
:1037E000FFF722FFFEBD0000C0070020B806002042
:1037F00000081840002000F021B8000010B5022495
:1038000080B1094900220A704A7001460648142214
:10381000F430FEF7AAFC05A000F08EFC00F0F2F9EF
:10382000204610BD042010BDB806002072657365E7
:103830007420696E69740D0A000000002DE9FE4FC6
:10384000DFF87092D9F81460D9F814103143C9F830
:103850001410994FDFF86482994CF00438D5386819
:1038600040F00060386000204FEA090505EB401287
:10387000D2F8201B41F00061C2F8201B401C052833
:10388000F4D300F093F9D8F8001041F00111C8F812
:1038900000108A480C38016841F00D010160001DDC
:1038A000016841F22D121143016084481C380168FF
:1038B00021F4FE610160A86940F44020A861022063
:1038C0008DF80000D4F8041168468847062020705F
:1038D000B0044FF0010B1AD5784884F801B0E430F9
:1038E000016821F003010160386840F00040386051
:1038F000FFF79AFED4F8C400402140F4007061F351
:103900001630C4F8C400207840F008002070DFF8BA
:10391000B4A170032CD52078000729D5DAF800006F
:10392000D8F80010084000251FFA80F727FA05F0A4
:10393000C0071AD0E5B309EB4511D1F80809C1F861
:103940000809C00711D0E8B240F08000FFF742FC40
:1039500058B18DF8045000218DF800B002918DF817
:1039600005B0D4F80411684688476D1C052DDDD9D3
:10397000300368D52078000765D5DAF80000D8F85C
:10398000001000250840070C27FA05F0C00757D0A3
:1039900025B309EB4511D1F8080BC1F8080BC00796
:1039A0004ED005F07F008046FFF788FBA0BB34E0D7
:1039B000FFE74248EC300568E8070AD06078012844
:1039C00007D0022803D18020FFF704FC08B1FFF7DD
:1039D00091FE3A48EC3005600125A7E736480830EB
:1039E00005680560E8070AD0280402D584F801B00C
:1039F00002E0607801280DD0FFF77CFE0AE0A806FF
:103A000004D56078032801D1FFF722FD280701D5EE
:103A1000FFF70AFE0125B7E703E04046FFF7DAFBB0
:103A200070B104EB05108DF800B08DF80450806E75
:103A3000029000208DF80500D4F8041168468847EC
:103A40006D1C052DA0D930070DD594F8F4000007A2
:103A500009D52078000706D503208DF80000D4F89A
:103A600004116846884730050FD5207801070CD52A
:103A700040F006002070012000F084F804208DF84A
:103A80000000D4F8041168468847002E0FDA207829
:103A900001070CD520F006002070002000F072F81D
:103AA00005208DF80000D4F80411684688470020EE
:103AB000BDE8FE8F00001840000B18401C0818409D
:103AC000B806002018081840F0B520F0800506065A
:103AD000284F20F0800001F07F03C2F3090407EBB8
:103AE000401029D585B164F3DF4141F00051C0F8A1
:103AF0001019D0F80019C1F381410129D0F800193B
:103B00000BD041F0044114E01B4902F0030043EAEA
:103B1000C04008601848103826E0184A1268D205DC
:103B200002D54FF0805201E04FF0005242F00442C3
:103B30001143C0F80019F0BD55B164F3DF41C0F87E
:103B4000101BD0F8001B41F00441C0F8001BF0BD71
:103B500012B14FF4002000E000200949034343F074
:103B6000C040086006481038016841F00441016017
:103B7000F0BD000000001840100918400808184067
:103B8000100B1840012807D00648016821F00101F8
:103B90000160142001F036BA0348016841F00101C8
:103BA000F6E7000004081840000E184000B5102089
:103BB000FFF7FCFCFFF7E0FCFFF7B6FA5DF804EB5B
:103BC00000F068B870B5022520F08000052801D803
:103BD0008C0701D0042070BD58B1084E06EB40148C
:103BE000D4F8004B14F4004F06D000F0F1F828464A
:103BF00070BD034C2468F5E7082070BD0000184034
:103C0000000B184010B51A4CE06840F04000E0602E
:103C100018A000F091FAFFF725FB1AA000F08CFA2B
:103C2000A06840F02700A060E068E16842F2084226
:103C300021F4705111430843E060A06940F0060090
:103C4000A06100F0ADF81020FFF7B0FCFFF794FC86
:103C5000FFF71AFB60696169084360616068616829
:103C60000843606000F016F8BDE81040FFF73ABB6B
:103C700000001840636F72652072657365740D0AE9
:103C8000000000007265736574207375636365736B
:103C90000D0A0000002210B50D491046531E00BF4A
:103CA00001EB0214521CC4E90130E060D2B2206181
:103CB000062AF5D35FF0000201EB0214521CC4E99E
:103CC0001930E066D2B22067062AF5D310BD000095
:103CD000B806002070B5022520F08004052C01D81C
:103CE0008E0701D0042070BD6CB1094E06EB441460
:103CF000D4F8004914F4004F08D040F0800000F0E0
:103D000067F8284670BD034C2468F3E7082070BDAF
:103D1000000018400009184000B5012100F00AF821
:103D20000349012048705DF804EBFFF77DBC0000FB
:103D3000B806002010B4174A174B30F0800403D0A7
:103D400002EB441203EB4413000618D51068012956
:103D500008D020F400101060106840F0805010600F
:103D600010BC70470028106802DA0C49084301E0D3
:103D700040F40010106010BC1020FFF717BC18684A
:103D8000012903D020F400101860E9E740F4001086
:103D9000FAE7000000091840000B1840000020401E
:103DA000094A10B540205062014608489062002040
:103DB000203102EB800441F40013C4F80431401CAC
:103DC0000528F5D310BD0000000018404000200079
:103DD000FCB5DFF85CC0054620F08006070620F041
:103DE00080040CEB4410DFF84CC00CEB041406D537
:103DF000241D16B1C0F8141905E00F4816E064340C
:103E00009EB1C0F8141B0020E360C4E900206A469C
:103E100001A92846FFF71CFC0199A160BDF800200C
:103E20002846FFF751FE0020FCBD04480160EAE788
:103E300000001840B806002014091840140B184060
:103E400010B5124C01202061606111A0A06104F145
:103E50004800E0614FF4806020620020A0620CA165
:103E60006062C4E90B0104F589616163102120647B
:103E7000C4E90E10606409A1E01DFEF79AF908A1DB
:103E80002046FEF796F92020A07110BD6C0000209E
:103E90005465726D696E616C0000000052545400EC
:103EA00053454747455200000269C1688A4203D81A
:103EB0008068401A104400E0501A401E704700000D
:103EC0002DE9FC5F0E008146DDE90C47C6F10000DC
:103ED00098469346824600D40846012503E000BF79
:103EE00090FBFBF06D1C5845FADAA84500D9454611
:103EF00024B1002E01DB780700D5641EB80702D577
:103F0000B8F1000F0FD0F8070DD164B1A5420AD265
:103F100020214846641E00F0A1F8D9F80C000028C2
:103F2000F3DABDE8FC9FD9F80C000028F9DB002E7D
:103F300002DA56462D2102E0780707D52B214846A4
:103F400000F08CF8D9F80C000028EADB07F0030039
:103F500002280FD1B8F1000F0CD15CB1A54209D2F3
:103F600030214846641E00F079F8D9F80C0000288A
:103F7000F3DAD6E7CDE9004743465A46314648468C
:103F800000F002F8CDE700002DE9F84F8246DDE9A8
:103F90000A4B0126984691460D460846374602E0F0
:103FA000B0FBF9F07F1C4845FAD2B84500D9474626
:103FB0005FEACB7017D1B4B15FEA8B7002D5B8F16C
:103FC000000F02D0202000900BE03020FBE750468D
:103FD000641E009900F042F8DAF80C00002838DB83
:103FE0000CB1A742F3D3DAF80C00002831DB00BF94
:103FF000B8F1010F02D9A8F1010803E0B5FBF6F012
:10400000484502D306FB09F6F2E7DFF84C8000BF13
:10401000B5FBF6F000FB165518F80010504600F0FE
:104020001DF8DAF80C00002803DBB6FBF9F6002EC9
:10403000EED15FEACB700CD0002C0AD0A74208D298
:1040400020215046641E00F009F8DAF80C00002820
:10405000F2DABDE8F88F0000D457000210B504462C
:10406000D4E90130421C934205D323681954A2605D
:10407000E068401CE060D4E90102824209D1216875
:104080002069FEF7A1FDA168884203D04FF0FF3000
:10409000E06010BD0020A06010BD2DE9F047C468AD
:1040A0001746894606464FF000083069A04201D9FC
:1040B000051B02E0B168201A0D1AB0686D1E001BC6
:1040C000A84200D80546BD4200D33D4670682A4646
:1040D00020444946FEF749F8B0687F1B2C44A844A9
:1040E000A944A04200D10024F460002FDDD1404655
:1040F000BDE8F0872DE9F04104468846D4E902077F
:10410000C51BE168606816460844B54206D94146B9
:10411000FEF72BF8B819E060BDE8F0812A46414669
:10412000FEF723F8761B08EB050132466068FEF7C0
:104130001CF8E660F0E700000FB4054B10B503A9CA
:10414000044A029800F0F4F810BC5DF814FB00007B
:10415000ED4E0002680000207CB50C001D4616469E
:10416000014601D0601E00E00020CDE90010064BA2
:104170006A462946304600F0DBF8002C02D0009A4F
:10418000002111707CBD0000374A000202E008C81F
:10419000121F08C1002AFAD170477047002001E0C1
:1041A00001C1121F002AFBD1704700002DE9FF5FFB
:1041B00082B00021DDE90430020DDDF840B0034398
:1041C00018D044F61050A2F2FF3242431514119851
:1041D00001281FD0A5EB0B00401C5FEA000A4FF03E
:1041E00000064E4FDFF83891B046504615D5CAF15B
:1041F000000413E0119801244AA3012801D16FEAB9
:104200000B010298119AC0E90031C0E9024206B0E0
:10421000BDE8F09FCBF10000DFE704460021404AF3
:10422000491842EB0450CDE9001012E0E00707D036
:1042300032463B4640464946FEF70FF980468946DE
:1042400032463B4610461946FEF707F906460F462A
:104250006410002CEAD1DDE90401DDE90023BAF1A4
:10426000000F06DAFEF7F9F842464B46FEF7F5F87E
:1042700005E0FEF764F942464B46FEF760F9044656
:104280000E460022284BFEF7E1F903D84FF0FF302D
:10429000014607E00022254B20463146FDF792FFFC
:1042A000FEF7BCF9102409E0002C0ADB0A220023E7
:1042B000FDF72AFF039B30321A55641E50EA0102B3
:1042C000F2D1641C039AC4F111031444119A012A17
:1042D00003D0012208430DD10AE0084304D0002096
:1042E0004FF0110B119072E7A3EB0B056D1E0DE063
:1042F0005B4504DD4FF0000205F1010504E003DA3F
:104300004FF00002A5F10105002AECD002981199A6
:10431000C0E90231C0E9004579E70000000014401F
:104320000000F03F300000000000F0430000E03FDC
:104330002DE9FF4F95B09A46884606460025EEE1E6
:10434000252877D100242746F94A0121039400E06B
:10435000044316F8013F203B01FA03F01042F7D165
:1043600030782A2811D06FF02F033078A0F1300276
:10437000092A16D8039A44F0020402EB820203EBE6
:1043800042021044761C0390EFE758F8042B039286
:10439000002A03DA504244F40054039044F002042B
:1043A000761C30782E2816D116F8010F44F004043C
:1043B0002A280DD06FF02F023078A0F13003092B9E
:1043C00009D807EB870302EB4303C718761CF3E712
:1043D00058F8047B761C30786C280FD006DC4C280B
:1043E00017D068280DD06A2814D104E0742810D0A2
:1043F0007A280FD10DE044F400140AE044F480144C
:1044000001E044F440147278824202D104F5801431
:10441000761C761C307866280BD013DC582877D0B1
:1044200009DC002875D04528F6D04628F4D0472866
:104430001AD193E118E0632835D0642879D0652833
:1044400012D18BE1702873D008DC6728F1D069287D
:104450006FD06E280DD06F2806D1ACE073282CD019
:10446000752874D0782853D05246179990476D1C00
:1044700054E1C4F30250022809D003280DD0D8F823
:10448000001004280DD00D6008F1040846E1D8F8AA
:104490000010EA17C1E90052F6E7D8F800100D80C5
:1044A000F2E70D70F0E718F8041B8DF800100020FB
:1044B0008DF80100EB46012003E058F804BB4FF0F3
:1044C000FF3061074FF0000102D40DE009F1010156
:1044D0008946B9420FDA8145F8DB1BF8091000293B
:1044E000F4D108E009F1010189468142FADB1BF8A9
:1044F00009100029F6D103985346A0EB090721467D
:104500003846179A00F080FA284400EB090507E0C6
:1045100044E008E10DE01BF8010B52461799904763
:10452000B9F10109F7D2534621463846179AF2E00D
:1045300039E00A21C4F302524FF0000B0091022A25
:1045400006D058F8040BC117032A09D00AE023E06B
:1045500008F1070020F00702F2E80201904605E0AA
:1045600000B2C117042A01D140B2C117002906DAEE
:104570000A460021404261EB02012D2202E02205A1
:1045800004D52B228DF80420012203E0E20701D09C
:104590002022F7E7914657E00A2100E010214FF072
:1045A000000B00910BE010214FF0000B44F00404CD
:1045B0000827009103E008204FF0000B0090C4F39F
:1045C0000252022A05D058F8040B0021032A08D011
:1045D00008E008F1070020F00702F2E80201904627
:1045E00003E080B2042A00D1C0B24FF000092207D4
:1045F0002AD53278702A07D0DDF800C08CF0100C74
:104600005CEA0B0C05D00EE040228DF8042001225C
:1046100008E050EA010306D030238DF804308DF80D
:10462000052002229146009B83F0080353EA0B0306
:104630000AD150EA010201D1620705D530228DF876
:1046400004204FF001097F1E3278582A04D039A285
:104650000C920CAA02920BE03BA2F9E75B46009A8F
:10466000FDF752FD0C9B9B5C029A521E0292137046
:1046700050EA0102F2D1029804A9081A00F1200BB5
:10468000600702D524F4803400E001275F4502DD95
:10469000A7EB0B0000E0002000EB0B01009003985B
:1046A0004944401A0390E00306D453462146179A22
:1046B000039800F0A9F90544002706E001A8524636
:1046C000C05D179990476D1C7F1C4F45F6DBE003DA
:1046D0000CD553462146179A039800F095F90544E6
:1046E00004E030205246179990476D1C0099481EEF
:1046F00000900029F5DC08E0029802995246007803
:10470000491C0291179990476D1CBBF10001ABF158
:10471000010BF1DC5BE100F065F90544761C3078B3
:1047200000287FF40DAE19B02846BDE8F08F0000D8
:104730000928010030313233343536373839616277
:10474000636465660000000030313233343536373B
:10475000383941424344454600000000600700D418
:10476000062708F1070020F00700F0E80223804642
:1047700003F0004C5FEA0C0001D097A009E020058F
:1047800001D596A005E0E00701D095A001E0AFF2C9
:104790004C001390307823F0004365280CD006DCE1
:1047A000452809D046281DD047287FD13BE0662800
:1047B00018D067287AD136E00021112F01DB1120B3
:1047C00000E0781CCDE9000104A90CA8FFF7EEFC7D
:1047D000DDE90D010C9A4FF0000B07F10109109271
:1047E00000914EE04FF000400097CDE9011004A980
:1047F0000CA8FFF7DBFCDDE90D020C9B0F994FF0D5
:10480000000B91461093009211B9791C00EB01093D
:10481000B7EB090003D4C0F1FF3B07F10109A9EB95
:104820000700019042E0012F00DA01270021112F3B
:1048300001DD112000E03846CDE9000104A90CA8F3
:10484000FFF7B4FCDDE90D010C9A00914FF0000B6D
:10485000B946109221070FD4009A4A4503DA9146CF
:1048600001E0A9F10109B9F1010F05DD109AA9F1E3
:104870000101515C3029F4D0B84202DA10F1040F82
:1048800003DA0121CDE9011010E0002803DC8344A4
:10489000A9EB000102E0411C494500DD8946A0EB7F
:1048A0000B00401C01904FF000400290200705D4FF
:1048B0000198484502DB4FF0FF30019000208DF851
:1048C0004B0002980DF14B07B0F1004F25D00220AC
:1048D0000C902B200D90029800280CDA4042029098
:1048E0002D200D9007E00A210298FDF712FD3031CE
:1048F000029007F8011D0C99481E0C900029F2DC6B
:1049000002980028EFD1791E0D980870307800F0D9
:10491000200040F0450007F8020D11A8C01BC01D83
:1049200002901398007800B1012000EB0901019872
:1049300001EBE071029801440398401A401E039075
:10494000E00306D453462146179A039800F05CF81A
:1049500005441398007818B15246179990476D1C7A
:10496000E00323D553462146179A039800F04CF8EC
:1049700005441BE0BBF1000F07DB0098584504DD40
:104980001098179910F80B0001E017993020524643
:10499000904701980BF1010B401E05F101050190B4
:1049A00004D12E205246179990476D1CB9F1000191
:1049B000A9F10109DEDC05E017F8010B5246179951
:1049C00090476D1C0299481E02900029F4DC534662
:1049D0002146179A03989EE62D0000002B00000048
:1049E000200000002DE9F041044600251E46174630
:1049F000880404D405E039462020B0476D1C641EAD
:104A0000F9D52846BDE8F0812DE9F041044600259E
:104A10001E469046C80301D5302700E020278804B1
:104A200004D505E041463846B0476D1C641EF9D5F3
:104A30002846BDE8F0814A68002A06D00A68531C5F
:104A40000B6010704868401E48607047C26B0A4394
:104A5000C2637047416B406BC1F30521C0F3016035
:104A600041EA80107047C06B7047C06A08607047A9
:104A7000406BC0F380307047406BC0F3C05070474C
:104A8000C1627047C900B1FBF2F2D109A2EBC112B9
:104A9000521C52084162B1F5803F0CD259B1A1F5C8
:104AA0007F43FF3B04D08262C16AC162002070472D
:104AB00000218162F8E74FF0FF3070478069C0F352
:104AC000001070478069C0F3C01070478069C0F360
:104AD00040107047C06B704770B505460020164601
:104AE0000C4628636864A86368606862A862E8622C
:104AF000D4E903122846FFF7C5FF10B14FF0FF308D
:104B000070BD60782278C0F38001C90141EA42118A
:104B1000A27800F0030041EA0211E27841EAC20102
:104B200041EA4000E862B4F8090040BA6863AE6345
:104B3000A0792179E27940EA41206179090241EACC
:104B4000C2310843217A40EA81302863002070BDD9
:104B500070B50178022402290DD2DFE801F001D4FA
:104B6000FEF748FD0546007810F01F0004D001282C
:104B700070D002287AD1F9E0697801227C480629B0
:104B800037D009DC002967D07A4801290BD00329E6
:104B90000FD005296AD1E9E008297DD0092913D071
:104BA000172963D164E0A978090705D008E00160FE
:104BB000DCE0A978090703D0016841F00101F6E7BC
:104BC000016821F00101F2E76B48FEF7D9FA40F0E5
:104BD00002046948C01DFEF7D3FA654940EA04069D
:104BE0000023402240310220FEF7ECFF40EA060499
:104BF0007EE06888010A012904D002290BD003292C
:104C000034D111E0EA881220122A00D302465A4910
:104C10000023263967E0EA882020202A00D30246B4
:104C20005549002312395EE010F0FF0006D001283C
:104C300008D002280AD0EE2812D10EE04E490426F0
:104C40002A390DE04C4912260E3109E04A49102656
:104C5000223105E039E009E02CE0474912263231E3
:104C6000EA88B24200D3324600233CE010247DE0C3
:104C7000287904280CD1EA882820282A00D3024663
:104C80003D49002346311846FFF724F840F002045E
:104C9000287905282CD100E012E0EA888E208E2A9F
:104CA00000D30246344900236E311846FFF712F84C
:104CB00004431DE00021027041700B46022202E015
:104CC0000270002301222A490DE068781728CDD10F
:104CD000287905284AD1EA888E208E2A00D30246F8
:104CE000254900236E310020FEF7F4FF40F0020456
:104CF000022C3BD0102C39D0D5E9002321461FA02F
:104D000000F0E0F832E0417911B101292ED121E023
:104D1000017902292AD123A000F0D4F8144E0025ED
:104D2000403623A0715D00F0CDF86D1C0A2DF8D33C
:104D300021A000F0C7F80E48332240218030FDF753
:104D400026FA0B490023402240318120FEF7C2FFA2
:104D500004430BE00079012808D1054900234022D3
:104D600040310220FEF72EFF40F00204204670BDC5
:104D7000F8050020640000200E5800025553422020
:104D80006576656E742065786563206572726F72F2
:104D90002025782028307825782030782578290A31
:104DA0000000000028256429646174613A20000035
:104DB00020307825782000000A00000000B587B078
:104DC0001248FEF724F814208DF8140001208DF805
:104DD000150002218DF816108DF8170005A8FDF7B3
:104DE0007BFD00F05FF80AA0FFF7A6F914216846E2
:104DF000FDF7D4F90A4800900A4804900AA0FFF78A
:104E00009BF96846FEF7FAFC07B000BD01000400FC
:104E100070696E20636F6E6669670D0A000000009E
:104E200000080080514B0002636F6E66696720695D
:104E30006E69740D0A00000070B5064D04462846E0
:104E4000FFF744FE0128FAD021782846FEF71CF926
:104E5000002070BD0010014000B585B003228DF820
:104E60000020012200238DF804208DF801308DF8F8
:104E700005208DF808308DF802208DF806208DF879
:104E800009208DF80A208DF803308DF80730CDE920
:104E90000301302269460248FFF71EFE05B000BD3F
:104EA000001001404FF08040D0F8901141F07F0198
:104EB000C0F890110248016841F00101016070479B
:104EC000006000400FB4802100B5A1B06846FDF736
:104ED00065F923AB80216846229AFFF73DF9014628
:104EE000684600F075FC21B05DF814FB13B5002195
:104EF0006846FFF7A1FF00981CBDC8400121914002
:104F0000491E084000D101207047000070B50E4CCA
:104F10000C4D218825F81100491C89B221800929EE
:104F200002D8B0F5806F0CD108A10020FDF796FEE5
:104F30000020014625F81010401CC0B20A28F9D301
:104F4000218070BDE4050020380000202D2D2D2D7E
:104F50002D2D2D2D2D2D2D2D2D2D2D2D2D2D2D2D81
:104F60002D2D2D0D0A00000072B61A481A4908604E
:104F700062B61949091D08684FF6FF021040174A2A
:104F80001043086045F6C0544FF0E020611E4161B7
:104F9000134AF82182F8141D002181610721016163
:104FA00000F094FB0FA0FFF78DFFFDF70AFE12A1A2
:104FB0000020FDF753FEFFF701FF4FF47A7642F22F
:104FC000107530463146FDF7C7FF29462046FDF7EC
:104FD000C3FFF6E70020000208ED00E00000FA053C
:104FE0000FE000E0646562756720756172745F743C
:104FF0006573740D0A000000646562756720727441
:10500000740D0A00002101E000BF491C8142FBD35E
:10501000704700002DE9F8430020284D00902846F5
:10502000FFF721FD064626A10020FDF717FEF0063A
:1050300017D527A10020FDF711FEDFF8A880404614
:10504000FFF708FD0746002409E069464046FFF7E0
:105050000CFD25A10020009AFDF700FE641CBC4257
:10506000F3D3700709D40DE069462846FFF7FDFC2D
:105070001DA10020009AFDF7F1FD2846FFF7F8FC7E
:105080000028F1D000241E4E07E0072C00D9002490
:105090002846315DFFF7F4FC641C2846FFF7ECFC62
:1050A0000028F2D0FF212846FFF7D0FC15A10020F0
:1050B000FDF7D4FD0020BDE8F88300000000164095
:1050C0003E3E3E696E70757420696E74200D0A0054
:1050D0003E3E3E73706920656E6420696E74206583
:1050E0006E0D0A0000E000403E3E3E737069207283
:1050F0007820646174613A307825780D0A000000E8
:105100005C0000203E3E3E73706920656E640D0AAF
:105110000000000070B50020FDF71AFD04460020D5
:10512000FDF71EFD0546214620A0FFF705F8A9B2B0
:1051300022A0FFF701F82648008A81B21FA0FEF7DF
:10514000FBFFA00502D523A0FEF7F6FFE00502D580
:1051500027A0FEF7F1FF200602D52CA0FEF7ECFFFA
:10516000600602D530A0FEF7E7FFA00602D535A005
:10517000FEF7E2FFE00602D539A0FEF7DDFF2007CB
:1051800002D53EA0FEF7D8FF600702D542A0FEF789
:10519000D3FFA00702D547A0FEF7CEFFE00702D05D
:1051A0004BA0FEF7C9FF002070BD0000737461744E
:1051B000653A307825780D0A000000007063617050
:1051C0002076616C653A307825780D0A0000000081
:1051D00000900040514445435F494E545F4255465C
:1051E0005F46554C4C5F53544154450D0A00000036
:1051F000514445435F494E545F5044435F454E44DC
:105200005F53544154450D0A000000005144454687
:105210005F494E545F45545247535F434D425F537D
:10522000544154450D0A0000514445435F494E54D2
:105230005F4C445242535F434D425F535441544587
:105240000D0A0000514445435F494E545F4C44529F
:1052500041535F434D425F53544154450D0A000092
:10526000514445435F494E545F435043535F434D60
:10527000425F53544154450D0A00000051444543D8
:105280005F494E545F435042535F434D425F535416
:105290004154450D0A000000514445435F494E54B6
:1052A0005F435041535F434D425F53544154450D5A
:1052B0000A000000514445435F494E545F4C4F562D
:1052C00046535F434D425F53544154450D0A00001D
:1052D000514445435F494E545F434F5646535F43E5
:1052E0004D425F53544154450D0A000070B50020F3
:1052F000FDF72EFC04460020FDF732FC0546214652
:1053000020A0FEF719FFA9B222A0FEF715FF26483C
:10531000B0F8500081B21FA0FEF70EFFA00502D525
:1053200022A0FEF709FFE00502D527A0FEF704FF43
:10533000200602D52BA0FEF7FFFE600602D530A0A6
:10534000FEF7FAFEA00602D534A0FEF7F5FEE00651
:1053500002D539A0FEF7F0FE200702D53DA0FEF7EA
:10536000EBFE600702D542A0FEF7E6FEA00702D5DD
:1053700046A0FEF7E1FEE00702D04BA0FEF7DCFE00
:10538000002070BD73746174653A307825780D0A19
:1053900000000000706361702076616C653A3078BF
:1053A00025780D0A0000000000900040514445435C
:1053B0005F494E545F4255465F46554C4C5F5354CF
:1053C0004154450D0A000000514445435F494E5485
:1053D0005F5044435F454E445F53544154450D0A6A
:1053E00000000000514445465F494E545F45545209
:1053F00047535F434D425F53544154450D0A0000EB
:10540000514445435F494E545F4C445242535F43BD
:105410004D425F53544154450D0A000051444543E9
:105420005F494E545F4C445241535F434D425F537A
:10543000544154450D0A0000514445435F494E54C0
:105440005F435043535F434D425F53544154450DB6
:105450000A000000514445435F494E545F435042A7
:10546000535F434D425F53544154450D0A000000C1
:10547000514445435F494E545F435041535F434D50
:10548000425F53544154450D0A00000051444543C6
:105490005F494E545F4C4F5646535F434D425F53F6
:1054A000544154450D0A0000514445435F494E5450
:1054B0005F434F5646535F434D425F5354415445FB
:1054C0000D0A000070B50020FDF742FB04460020E5
:1054D000FDF746FB0546214620A0FEF72DFEA9B2AA
:1054E00022A0FEF729FE2648008A81B21FA0FEF7FF
:1054F00023FEA00502D523A0FEF71EFEE00502D57F
:1055000027A0FEF719FE200602D52CA0FEF714FEF8
:10551000600602D530A0FEF70FFEA00602D535A02A
:10552000FEF70AFEE00602D539A0FEF705FE2007C9
:1055300002D53EA0FEF700FE600702D542A0FEF7AE
:10554000FBFDA00702D547A0FEF7F6FDE00702D05D
:105550004BA0FEF7F1FD002070BD00007374617474
:10556000653A307825780D0A00000000706361709C
:105570002076616C653A307825780D0A00000000CD
:1055800000900040514445435F494E545F425546A8
:105590005F46554C4C5F53544154450D0A00000082
:1055A000514445435F494E545F5044435F454E4428
:1055B0005F53544154450D0A0000000051444546D4
:1055C0005F494E545F45545247535F434D425F53CA
:1055D000544154450D0A0000514445435F494E541F
:1055E0005F4C445242535F434D425F5354415445D4
:1055F0000D0A0000514445435F494E545F4C4452EC
:1056000041535F434D425F53544154450D0A0000DE
:10561000514445435F494E545F435043535F434DAC
:10562000425F53544154450D0A0000005144454324
:105630005F494E545F435042535F434D425F535462
:105640004154450D0A000000514445435F494E5402
:105650005F435041535F434D425F53544154450DA6
:105660000A000000514445435F494E545F4C4F5679
:1056700046535F434D425F53544154450D0A000069
:10568000514445435F494E545F434F5646535F4331
:105690004D425F53544154450D0A000010B501239B
:1056A000046893409C4391400C43046010BD30B5A6
:1056B00001249440641E04FA03F2D5430268214099
:1056C0002A4099400A43026030BD000010B5002016
:1056D000FDF79AFB4FF40830FDF799FB0F210120ED
:1056E000FDF790F902210120FDF778F9BDE810409F
:1056F0004FF4E1310148FFF7AFBB000000366E0107
:105700002DE9F0411A4E1B4F1B4D3046FFF7E2F9D1
:1057100004002BD07464E00605D40DE031682868DD
:105720003954401C28603046FFF7C8F90128F5D1EC
:1057300012A10020FDF792FA600605D40DE0306852
:1057400029687854491C29603046FFF7B7F90128C9
:10575000F5D10DA10020FDF781FA29680020054A46
:1057600078540CA12860FDF779FACEE7BDE8F08106
:1057700000100140E40400200400002066756C6CF9
:1057800020696E69740D0A0074696D65206F757407
:10579000000000000A647374203D2025730A000095
:1057A0002DE9F0410E4607460024084D09E0284641
:1057B000FFF788F90028FAD0395D2846FDF764FC28
:1057C000641CB442F3DBBDE8F0810000001001402E
:1057D000FFF7E6BF3031323334353637383941429E
:1057E000434445460403090412010002FF0101403D
:1057F000F1FF2FFA00000102000100000902200061
:10580000010100C0FA0904000002FF0101000705C0
:105810008102400000070502024000001203490017
:105820006E0067006300680069007000730000008C
:105830001003770069006E002D006400650076009B
:1058400012034D0053004600540031003000300078
:105850001700000028000000000104000100000003
:1058600000000000000157494E555342000000005F
:105870000000000000000000000000008E0000009A
:105880000001050001008400000001000000280064
:1058900044006500760069006300650049006E0001
:1058A00074006500720066006100630065004700D7
:1058B00055004900440000004E0000007B00370006
:1058C00038003900410034003200430037002D0019
:1058D00046004200320035002D0034003400330011
:1058E00042002D0039004500370045002D004100E1
:1058F00034003200360030004600330037003300F9
:105900003900380032007D000000DFFFFFAAAA48FE
:10591000808008020A7FFFFE0020080E1F90DFFF34
:10592000FF55552440400401067FFFFD0010040E82
:105930009F90DFFFFFAAA89020200200827FFFFC3B
:105940008008020E5FD0DFFFFF555648101001009F
:1059500042FFFFFC4004010F1FB0FFFFFFAAA92672
:10596000080800802B7FFFFC2002008E1F90DFFFC5
:10597000FF55549304040040167FFFFC1001004EB5
:105980003F90DFFFFFAAAA4802020022027FFFFC2D
:105990000800802E1FD0DFFFFF55552601010011A2
:1059A000027FFFFC0400401E9FB0DFFFFFAAA89209
:1059B000800080088A7FFFFC0200280E5F90DFFFD6
:1059C000FF55564A40004004467FFFFC0100140F7B
:1059D0001F90DFFFFFAAA92620002000227FFFFCE6
:1059E0000080020E1FD0DFFFFF5554901000100002
:1059F000127FFFFC0040010E3FB0DFFFFFAAAA4963
:105A0000088008020A7FFFFE0020008E1F90DFFF43
:105A1000FF55552504400401067FFFFD0010004E90
:105A20009F90DFFFFFAAA89102200200827FFFFC67
:105A30008008002E5FD0DFFFFF555649011001009E
:105A4000427FFFFC4004001E1FB0DFFFFFAAA92514
:105A5000800800802A7FFFFC2002080E1F90DFFFD5
:105A6000FF55549040040040167FFFFC1001040EC7
:105A70003F90DFFFFF55424820020022027FFFFCDB
:105A80000800820E1FD0DFFFFFAA81241001001141
:105A9000027FFFFC0400410E9FB0DFFFFF554091E5
:105AA000080080088A7FFFFC0200208E5F90DFFFE5
:105AB000FFAAAA4B04004004467FFFFC0100104EE1
:105AC0001F90DFFFFF55552702002000227FFFFCBB
:105AD0000080002E1FD0D011F2AAA88B0100100068
:105AE000104047C4004000102AA0C809E955566478
:105AF00080800800082027B2002008001510C40587
:105B0000E4AAA91040400400061017890010040000
:105B10000A80C203F25554882020020000080FC4F6
:105B2000800802001540C101E9AAAA641010010012
:105B3000000407B0400401000AA0C0000055540052
:105B40000808008000000000200200800000C00063
:105B500000AAA8000404004000000000100100405A
:105B60000000C081E4555512020200200802078897
:105B7000080080201510C041F2AAA8880101001079
:105B8000040107C4040040100A80C021E95556648E
:105B900080008008020087B0020028001540C00085
:105BA00000AAA8004000400400000000010014000A
:105BB0000000C0000055540020002000000000003C
:105BC000008002000000C00000AAA8001000100021
:105BD00000000000004001000000C80000000000BC
:105BE0000000000000200000000000000000D000C5
:105BF0000000000000000000004000000000000065
:105C00000000C400000000000000000000100000C0
:105C1000000000000000C2000000000000000000C2
:105C200000080000000000000000C10000000000AB
:105C30000000000000040000000000000000C08020
:105C40000000000000000000000200000000000052
:105C50000000595A5B5C5D5E5F60636461620000D6
:105C6000000101010101020202020A0F1400050AEB
:105C70000F140A0F0005030405060708090A0D0E94
:105C80000B0C240D0000250D0000000D0000090D77
:105C90000006120D000C1B0D001214000E00020075
:105CA0000E080B000E0C1D000E1010000F00070058
:105CB0000F0619000F0822000F0311001100080041
:105CC00011061A001108230011030000EC5C000209
:105CD000000000206C0000008C410002585D0002B2
:105CE0006C000020D40B00009C410002000000006A
:105CF0000000000046696E697368656420746F2057
:105D0000726563656976652061206672616D6521E3
:105D10000A0000180119021A031B000C010D0612DB
:105D200007130000000000002E0000200400000007
:105D300026000020040000000A1000000100960068
:105D4000AA0032000000000012233445566778890B
:085D500000000000000000004B
:04000005020020D500
:00000001FF
