:020000040200F8
:1020000038180020ED200002F1200002752800029F
:10201000F5200002F7200002F92000020000000075
:10202000000000000000000000000000FB20000293
:10203000FD20000200000000FF2000029D3200028F
:102040000321000259290002032100024528000251
:10205000AD3200020321000203210002032100022D
:102060000321000203210002112C000203210002BF
:10207000032100023733000279280002B927000249
:1020800003210002032100020321000203210002B8
:1020900003210002032100020321000203210002A8
:1020A000AD2B0002032100021D2C000203210002BF
:1020B000032100020321000203210002ED3200028D
:1020C0000321000203210002B126000200000100EA
:1020D00000A00200DFF810D000F0D0FA004800475E
:1020E000D9410002AFF300803818002005480047AE
:1020F000FEE7FEE7FEE7FEE7FEE7FEE7FEE7FEE7B8
:10210000FEE7FEE7D52000022DE9F05F054600203E
:1021100092469B4688460646814640241BE0284658
:1021200041464746224600F088F953465A46C01AAF
:10213000914110D311461846224600F06FF92D1A2E
:1021400067EB01084F4622460120002100F066F9A6
:1021500017EB00094E41201EA4F10104DFDC4846C4
:1021600031462A464346BDE8F09F40EA01039B07FB
:1021700003D009E008C9121F08C0042AFAD203E0FC
:1021800011F8013B00F8013B521EF9D27047D2B260
:1021900001E000F8012B491EFBD270470022F6E750
:1021A00010B513460A4604461946FFF7F0FF2046CD
:1021B00010BD034611F8012B00F8012B002AF9D1BC
:1021C000184670472DE9FE4F804681EA0300C00F94
:1021D0000C46009021F0004123F00045B8EB0200CE
:1021E000A94105D24046214690461C460B46024670
:1021F00023F00040104347D0270DC7F30A00C3F374
:102200000A510290401A019040286BDAC3F3130080
:1022100040F4801B0098924620B10023D2EB030AC1
:1022200063EB0B0B01985946C0F14002504600F099
:10223000F5F806460D4650465946019A00F00DF94C
:1022400010EB08006141002487EA115284EAE77329
:102250001A4340D0009A62B3019A012A4FEA07520A
:1022600015DC001B61EB02014FF0004202EA07524D
:10227000CDE90042001C41F5801132462B4600F0AA
:102280000DF903B0BDE8F08F40462146F9E7001B89
:1022900061EB0201001C41F5801300185B4120181E
:1022A000A2F5001747EB030140EAD570B6196D415E
:1022B00011E06D084FEA360645EAC0754FEA07524D
:1022C000001B61EB0201001C41F5801149084FEA37
:1022D00030000019514132462B4603B0BDE8F04FA3
:1022E00000F0CDB80098012240000023D0EB02029C
:1022F00063EBE073009821464FEAE074B8EB00000E
:1023000061EB0401E9E783F000435BE781F0004102
:1023100058E72DE9F04D81EA030404F0004B21F069
:10232000004514464FF0000A23F0004150EA050230
:1023300020D054EA01021DD0C5F30A570246C5F366
:102340001303C1F31300C1F30A5640F4801543F49C
:102350008013A7EB0608101BD64608F2FD3873EB76
:10236000050002D308F1010801E092185B41B8F1C1
:10237000000F03DA00200146BDE8F08D00204FF485
:102380008011064684460EE0171B73EB050705D344
:10239000121B63EB050306434CEA010C49084FEAA4
:1023A000300092185B4150EA0107EDD152EA030078
:1023B00012D082EA040083EA0501084305D0101B0D
:1023C000AB4106D20122002306E000224FF0004379
:1023D00002E06FF0010253101AEB06004CEB0851BB
:1023E00010EB0A0041EB0B01BDE8F04D00F047B8DF
:1023F00030B50B46014600202022012409E021FAD5
:1024000002F59D4205D303FA02F5491B04FA02F5D1
:102410002844151EA2F10102F1DC30BD202A04DBA4
:10242000203A00FA02F1002070479140C2F12003E7
:1024300020FA03F3194390407047202A04DB203A26
:1024400021FA02F00021704721FA02F3D040C2F1D4
:1024500020029140084319467047202A06DBCB171B
:10246000203A41FA02F043EAE07306E041FA02F34F
:10247000D040C2F12002914008431946704710B580
:10248000141E73F1000408DA401C41F10001921897
:102490005B411A4301D120F0010010BD2DE9F04D40
:1024A00092469B4611B1B1FA81F202E0B0FA80F295
:1024B00020329046FFF7B2FF04460F4640EA0A007A
:1024C00041EA0B0153465A46084313D0114653EADA
:1024D000010019D0C8F140025046FFF7AEFF054693
:1024E0000E46504659464246FFF798FF084305D02E
:1024F000012004E020463946BDE8F08D0020054368
:1025000046EAE0762C4337430A986305E40AA0EBD9
:1025100008000022FD0A44EA47540A3002D5002090
:102520000146E9E7010510196941DDE9084500198F
:102530006941BDE8F04DA2E72DE9FE4F81EA0304B1
:1025400004F0004421F0004100944FF0000B23F010
:10255000004350EA01045ED052EA03045BD0C3F3A7
:102560000A54C1F30A552C44A4F2F3340194A0FB9D
:102570000254C1F3130141F48011C3F3130343F474
:10258000801301FB024400FB034E840A970A44EACD
:10259000815447EA8357A4FB076802958D0A05FB1F
:1025A00007854FEA932C04FB0C542705029D4FEA44
:1025B000065847EA1637B5EB08056EEB070C870E91
:1025C000920E47EA811742EA8312A7FB0201B6EB9B
:1025D0000B0164EB00042B0D43EA0C335E1844EB53
:1025E0001C50DA465146E7FB0201C5F313044FEADB
:1025F0000B3343EA14534FEA0432019C43EA0603C7
:10260000A4F10C040294009CCDE900B4FFF746FF4E
:1026100003B0BDE8F08F00200146F9E7C1F30A528C
:10262000C1F3130140F2FF3341F480119A4202DA00
:1026300000200146704740F233439A42A2F23342EF
:1026400002DC5242FFF7F9BEFFF7E8BE30B5041EC8
:1026500071F1000404DB4FF00044404264EB0101DF
:10266000141E73F1000405DB1C464FF00043524278
:1026700063EB0403994208BF904230BD064C074DFE
:1026800006E0E06840F0010394E807009847103442
:10269000AC42F6D3FFF722FD5C4A00027C4A0002FE
:1026A0000146C86CC0F30220704701464869704774
:1026B00038B50D48FFF7F4FF04460AE00A48FFF773
:1026C000F4FF00900421684601F01EFD601EC4B2B4
:1026D00000BF0548FFF7E4FF0028EFD100210248C2
:1026E00000F09EF938BD000000A0014030B5012483
:1026F00004FA02F304689C4301FA02F52C430460D7
:1027000030BD000010B501F0010313B10123834077
:1027100000E000231A4601F002032BB100F1080388
:10272000012404FA03F300E000231A4301F0040338
:102730002BB100F11003012404FA03F300E000239D
:102740001A43014B1A6310BD00C0004070B5054626
:102750000C462668206820F001002060094901EB42
:1027600045101C222146FFF700FD2660054800EBBE
:102770004510006840F00101024800EB451001607F
:1027800070BD000040C0004001460A4B1A6B22FA9F
:1027900001F303F00100CB1D22FA03F303F002035F
:1027A000184301F10E0322FA03F303F00403184364
:1027B0007047000000C0004010B50020FFF7E4FFA4
:1027C000044621460020FFF79DFF012003490870C1
:1027D00003490020FFF7BAFF10BD00007800002079
:1027E0001814002010B5152801DB084B00E0084B39
:1027F0001946152802DBA0F1150300E003461A462E
:102800004B6E0124944023434B6610BD0060014091
:10281000005001400146152901DB084800E0084846
:102820000246152902DBA1F1150000E00846034627
:10283000506ED84000F00100704700000060014079
:102840000050014010B50920FFF7E4FF30B104A1AA
:10285000002000F087FA0920FFF7C4FF10BD000038
:10286000696E74206770696F30207469676765727C
:102870000D0A000000BFFEE710B5002001F010FDBA
:1028800010BD8269C1F309031A43826170478162F6
:1028900070470146086AC0B270470162704701463E
:1028A000886900F00100704701468869C0F3400064
:1028B000704701468869C0F3090070474269C1F357
:1028C00009039A434261704770B5062401252A46E0
:1028D0002146034800F022F8C6B2304670BD000021
:1028E00014A0004070B500240B252A462146034859
:1028F00000F014F886B2304670BD00001CA0004005
:1029000070B505240125012633462A462146024892
:1029100000F010F870BD000010A0004030B5034674
:102920004FF0FF34C2F12005EC401D68CD4005EAB0
:10293000040030BD70B514464FF0FF32C4F12005DD
:10294000EA40056802FA01F6B54303EA02068E4042
:102950003543056070BD000010B5FFF7D1FF0DE0F5
:10296000FFF7C0FF0446224607A1002000F0FAF955
:102970000AA001F0D1FB204601F0F6FBFFF7A4FF0F
:102980000028EDD010BD00006B6579206461746192
:10299000207472673A307825780A0000310D0A00F9
:1029A00070B5002100230F22C47804B3154C2468AD
:1029B00004F4E064C4F5E064210AC1F10403CA40F0
:1029C000447804FA03F184781440214309010E4C41
:1029D0000678A155047804F01F050124AC40057861
:1029E0006D11AD0005F1E025C5F8004109E004785E
:1029F00004F01F050124AC40044D0678761145F81B
:102A0000264070BD0CED00E000E400E080E100E055
:102A10000146024800EB01104068704760500040DA
:102A200070B504460D46002229462046FFF75EFE9B
:102A3000012229462046FFF759FE70BD2DE9F047D7
:102A40000546884616461F46DDF820907F2D0CD19E
:102A5000104901EB860009F0FF03FAB24FF0FF3195
:102A600001F037FD0020BDE8F0872946404601F01F
:102A7000C1FC0446002C01DA2046F4E7054901EBCD
:102A8000860009F0FF03FAB2214601F022FD002082
:102A9000E9E700004060004038B505460C4615B136
:102AA000012D12D108E00F2005230322652100909B
:102AB0002046FFF7C3FF09E0002005230422672119
:102AC00000902046FFF7BAFF00E000BF00BF38BD0E
:102AD00070B504460E463146204601F009FD054614
:102AE000002D01DA284670BD162C0CDC04F0030121
:102AF000C1EBC103A1102C4A02EB81000722294639
:102B000001F0E7FC4DE0172C07D1152306222946DA
:102B10002548143001F0DDFC43E01B2C0CDCA4F153
:102B2000180000EB40004006030E062229461E480E
:102B3000183001F0CEFC34E01D2C0BDCA4F11C009D
:102B400080001830C3B2042229461748183001F01B
:102B5000C0FC26E0202C0CDCA4F11E0000EB4000A1
:102B60004006030E062229460F481C3001F0B1FC36
:102B700017E0232C0BDCA4F1210080001230C3B23B
:102B80000422294608481C3001F0A3FC09E0A4F106
:102B900024004006030E022229460348203001F09B
:102BA00098FC00209FE7000000600040F8B500207E
:102BB00000F026F8054600950098C0F3021421465F
:102BC00007A001F0A9FA08E00020FFF721FF064660
:102BD000314607A001F0A0FA641E002CF4DCF8BD19
:102BE0007265616420636F756E743A2025780A00FF
:102BF00072656164206E756D3A2025780A000000C8
:102C00000146024800EB4110406870470050004008
:102C100010B5002001F0DCFB10BD000010B5064827
:102C200000F023F830B105A1002000F09BF8024825
:102C300000F011F810BD000000C001407274696D11
:102C4000657220696E740D0A00000000816841F011
:102C5000010181607047816841F0400181607047E7
:102C6000816841F010018160704701468868C0F3B7
:102C700085107047816841F00201816070474160B2
:102C80007047826822F0080242EA8102826070473F
:102C900010B500F057FB10BD2DE9F04104460D467C
:102CA000164600BF0D48007808B900F04BFB00BF86
:102CB000EFF311800746202080F3118800BF00BF8A
:102CC00032462946204600F00BF88046F8B280F3E1
:102CD000118800BF00BF4046BDE8F0817C000020A5
:102CE0002DE9F047074688461646C24607EB4701DE
:102CF0001B4800EBC109D9F8140020B1012811D0FC
:102D0000022826D11EE0484600F054FB0546B54295
:102D100001D2002405E0344632465146484600F0D0
:102D20009EFC18E0484600F045FB0546B54201D23E
:102D3000284600E03046044622465146484600F008
:102D40008EFC08E032465146484600F04FFC0446EF
:102D500001E0002400BF00BF2046BDE8F08700006E
:102D6000940000200FB438B5044606A800906A46C7
:102D70002046059900F007F80546002000902846F7
:102D800038BC5DF814FB2DE9F04F99B082460D4632
:102D9000144603A814904020159000201690CDF8FA
:102DA00060A0179000BF2E786D1C06B9DDE0252EBF
:102DB00079D100274FF0010900BF2E78232E12D0C1
:102DC0002B2E0CD02D2E02D0302E10D103E047F048
:102DD00001076D1C0EE047F002076D1C0AE047F08A
:102DE00004076D1C06E047F008076D1C02E04FF079
:102DF000000900BF00BFB9F1000FDED14FF000089D
:102E000000BF2E78302E01DB392E00DD07E06D1C6F
:102E1000A6F1300008EB880100EB4108F1E700BFA4
:102E2000002013902E782E2E12D16D1C00BF2E780C
:102E3000302E01DB392E00DD09E06D1CA6F13000DB
:102E4000139901EB810100EB41001390EFE700BF04
:102E50002E7800BF6C2E01D0682E02D16D1C2E780A
:102E600000E000E0F6E700BF702E5DD008DC252E04
:102E70006AD0582E35D0632E09D0642E69D113E064
:102E8000732E3CD0752E1DD0782E62D128E021689B
:102E9000081D2060D1F8009009F0FF0B594614A8D6
:102EA00000F082FB56E058E02168081D2060D1F850
:102EB0000090CDE900870A22494614A8139B00F030
:102EC00087FA47E02168081D2060D1F80090CDE91D
:102ED00000870A22494614A8139B00F0EFFA39E054
:102EE00000BF2168081D2060D1F80090CDE900875F
:102EF0001022494614A8139B00F0E0FA2AE021684A
:102F0000081D2060D1F800B000BF9BF800600BF1F5
:102F1000010B06B906E0314614A800F045FB1798EE
:102F20000028F2DA00BF15E02168081D2060D1F802
:102F30000090002008210B461022CDE900104946E0
:102F400014A800F0BBFA05E0252114A800F02CFB22
:102F500000E000BF00BF6D1C03E0314614A800F084
:102F600023FB17980028BFF61EAF00BF1798002854
:102F70000ADD169820B103A95046169AFFF78CFE79
:102F8000DDE9161008441790179819B0BDE8F08FC6
:102F900010B504460121204600F012F810BD70B5AE
:102FA0000546002408E00120A040284010B120463A
:102FB000FFF7EEFF601CC4B2162CF4DB70BD0000FE
:102FC00070B504460D46162C72D2DFE804F00B17DC
:102FD000232F3B47535F72FE7E8A96A2AEBAC0C6CD
:102FE000CCD9E5F215222946794801F067FA122278
:102FF00029467748083001F061FAE7E016222946B1
:10300000734801F05BFA122229467148083001F03A
:1030100055FADBE0022229466D4801F04FFA002202
:1030200029466B48083001F049FACFE003222946CF
:10303000674801F043FA012229466548083001F04B
:103040003DFAC3E001222946614801F037FA112216
:1030500029465F48083001F031FAB7E005222946D9
:103060005B4801F02BFA0A2229465948083001F042
:1030700025FAABE009222946554801F01FFA0C2237
:1030800029465348483001F019FA9FE00A222946A0
:103090004F4801F013FA132229464D48083001F039
:1030A0000DFA142229464A48083001F007FA8DE04B
:1030B0008BE00C222946464801F000FA00222946FE
:1030C0004348001F01F0FAF980E00E2229464048EB
:1030D00001F0F4F9072229463D48083001F0EEF9E5
:1030E00074E00F2229463A4801F0E8F90C222946FB
:1030F0003748083001F0E2F968E0102229463448E8
:1031000001F0DCF9082229463148083001F0D6F9EF
:103110005CE0112229462E4801F0D0F9042229460C
:103120002B48083001F0CAF950E0122229462848FD
:1031300001F0C4F9052229462548083001F0BEF9FE
:1031400044E013222946224801F0B8F93EE000226B
:1031500029461F4801F0B2F938E0062229461C48EA
:1031600001F0ACF932E0052229461948743001F02B
:10317000A5F9072229461648743001F09FF925E089
:103180001C222946124801F099F9152229461048B7
:10319000083001F093F919E0042229460C4801F0A7
:1031A0008DF9022229460A48083001F087F90DE01E
:1031B000FFE704222946064801F080F90222294649
:1031C0000348083001F07AF900E000BF00BF70BD8D
:1031D0000C0000402DE9F04704460E4600F018F8B8
:1031E0008146A9FB06700146224600233846FEF7B9
:1031F0008BFF0546A81C0321B0FBF1F50DB9BDE816
:10320000F08700E000BF681E051EFBD100BFF6E797
:1032100010B50A48806900F0804058B100F010F8FD
:103220000446064988690422142100F08FFFB4FB8C
:10323000F0F010BD00F024F8FBE700000020104083
:103240002DE9F0410D48C46904F4801098B1C4F32D
:103250004500C4F3C53100FB01F500F011F8C4F3DB
:10326000C711A0FB016001462A4600233046FEF745
:103270004BFFBDE8F0810020FBE70000000010409C
:1032800004480069C0F3002109B1034870470248AF
:10329000FCE700000020104000366E010248006884
:1032A000401C0149086070470000002010B508A1CB
:1032B0000020FFF757FD094809A102680020FFF729
:1032C00051FD0F220021084800F02EF810BD00002B
:1032D00074696D657230206973720A007000002095
:1032E0006461746125780A000020004010B507A1D0
:1032F0000020FFF737FD084A08A10020FFF732FD44
:103300000F220021074800F00FF810BD74696D65A9
:103310007231206973720A00700000206164647267
:1033200025780A000030004010B502F00F038C0031
:10333000A340836110BD10B501F026F910BD0160F6
:103340007047000010B5124C03202061012060611D
:1033500010A0A0611249E1614FF4FA7121620021CD
:10336000A1626162E1620BA020630E4961631021DA
:10337000A16300212164E16361640BA1E01DFEF7FC
:1033800018FF0AA12046FEF714FF2020A07110BDEF
:103390007C0000205465726D696E616C0000000055
:1033A000C4000020B802002052545400534547473F
:1033B0004552000010B501460A69CB689A4204D80C
:1033C0008C68641EE41AA01801E0D41A601E10BDB7
:1033D0002DE9FC5F06460F4692469846DDE90C450E
:1033E000002F01DA784200E0384683464FF00109A9
:1033F00003E09BFBFAFB09F10109D345F9DAC84563
:1034000000D9C14634B1002F03DB05F004000428C5
:1034100000D1641E05F0020010B1B8F1000F11D008
:1034200005F0010070B96CB108E0641E202130463F
:1034300000F0BAF8F068002800DA02E00CB1A1450B
:10344000F3D300BFF068002836DB002F05DA7F4297
:103450002D21304600F0A8F807E005F0040004280C
:1034600003D12B21304600F09FF8F068002823DBC1
:1034700005F00200022814D105F0010088B9B8F166
:10348000000F0ED16CB108E0641E3021304600F010
:103490008BF8F068002800DA02E00CB1A145F3D304
:1034A00000BFF068002807DB4346524639463046E5
:1034B000CDE9004500F002F8BDE8FC9F2DE9FC5F76
:1034C0008046894615461E460C9CCDF8049001277F
:1034D000BB4605E00198B0FBF5F001900BF1010B44
:1034E0000198A842F6D25E4500D9B3460D9800F087
:1034F0000100D0B9CCB10D9800F00200022803D130
:1035000016B93020009001E02020009009E0641EF0
:103510004046009900F048F8D8F80C00002800DA7E
:1035200002E00CB1A345F2D300BFD8F80C0000288C
:1035300035DB09E0012E01D9761E04E0B9FBF7FA6C
:10354000AA4500D201E06F43F4E700BF00BFB9FB1A
:10355000F7FA0AFB1799134810F80A10404600F0D2
:1035600023F8D8F80C00002800DA03E0B7FBF5F7E1
:10357000002FECD100BF0D9800F0010078B174B1BC
:1035800009E0641E2021404600F00EF8D8F80C0037
:10359000002800DA02E00CB1A345F2D300BFBDE879
:1035A000FC9F00008C46000270B504460E46A568DC
:1035B000681C6168814206D320684655681CA0607B
:1035C000E068401CE060D4E9011088420DD1A26897
:1035D00021682069FFF760FBA168884203D04FF0A3
:1035E000FF30E06001E00020A06070BD2DE9F047F1
:1035F0000446894617464FF0000AE56800BFD4F834
:103600001080A84503D9A8EB0500461E04E0A5EBF1
:103610000800401CA1680E1AA068401BB04201D9E6
:10362000304601E0A068401B0646BE4201D230464B
:1036300000E0384606466168481932464946FEF7BA
:1036400094FDB244B144BF1B3544A068A84200D1E8
:103650000025E560002FD2D15046BDE8F0872DE966
:10366000F047044689461546E668A068871BAF42C6
:1036700008D9616888192A464946FEF776FD70190F
:10368000E06010E0B8466168881942464946FEF796
:103690006CFDA5EB070809EB070142466068FEF7E1
:1036A00064FDC4F80C80BDE8F08700007CB50C0018
:1036B0001D461646014601D0601E00E00020CDE9FF
:1036C0000010064B6A462946304600F0EFF8002C01
:1036D00002D0009A002111707CBD0000B33F0002AF
:1036E00010B5002804DBCA06130E054A135406E081
:1036F000CA06140E034A00F00F031B1FD45410BD5A
:1037000000E400E018ED00E002E008C8121F08C164
:10371000002AFAD170477047002001E001C1121F52
:10372000002AFBD1704700002DE9FF5F82B0002125
:10373000DDE90430020DDDF840B0034318D044F653
:103740001050A2F2FF3242431514119801281FD0E5
:10375000A5EB0B00401C5FEA000A4FF000064E4F3D
:10376000DFF83891B046504615D5CAF1000413E091
:10377000119801244AA3012801D16FEA0B01029894
:10378000119AC0E90031C0E9024206B0BDE8F09FDD
:10379000CBF10000DFE704460021404A491842EB24
:1037A0000450CDE9001012E0E00707D032463B4656
:1037B00040464946FEF7C0FE8046894632463B46B3
:1037C00010461946FEF7B8FE06460F466410002C58
:1037D000EAD1DDE90401DDE90023BAF1000F06DAE0
:1037E000FEF7AAFE42464B46FEF7A6FE05E0FEF7B0
:1037F00090FD42464B46FEF78CFD04460E460022E5
:10380000284BFEF723FF03D84FF0FF30014607E0B7
:103810000022254B20463146FEF7D4FCFEF7FEFE83
:10382000102409E0002C0ADB0A220023FEF76CFCBE
:10383000039B30321A55641E50EA0102F2D1641C17
:10384000039AC4F111031444119A012A03D00122EE
:1038500008430DD10AE0084304D000204FF0110BBB
:10386000119072E7A3EB0B056D1E0DE05B4504DDC7
:103870004FF0000205F1010504E003DA4FF0000209
:10388000A5F10105002AECD002981199C0E9023196
:10389000C0E9004579E70000000014400000F03F57
:1038A000300000000000F0430000E03F2DE9FF4F32
:1038B00095B09A46884606460025EEE1252877D140
:1038C00000242746F94A0121039400E0044316F836
:1038D000013F203B01FA03F01042F7D130782A284B
:1038E00011D06FF02F033078A0F13002092A16D8DA
:1038F000039A44F0020402EB820203EB42021044FA
:10390000761C0390EFE758F8042B0392002A03DAA1
:10391000504244F40054039044F00204761C307882
:103920002E2816D116F8010F44F004042A280DD0D1
:103930006FF02F023078A0F13003092B09D807EB84
:10394000870302EB4303C718761CF3E758F8047BA0
:10395000761C30786C280FD006DC4C2817D06828ED
:103960000DD06A2814D104E0742810D07A280FD121
:103970000DE044F400140AE044F4801401E044F43F
:1039800040147278824202D104F58014761C761CB1
:10399000307866280BD013DC582877D009DC002853
:1039A00075D04528F6D04628F4D047281AD193E19F
:1039B00018E0632835D0642879D0652812D18BE1CE
:1039C000702873D008DC6728F1D069286FD06E2882
:1039D0000DD06F2806D1ACE073282CD0752874D098
:1039E000782853D05246179990476D1C54E1C4F380
:1039F0000250022809D003280DD0D8F8001004285E
:103A00000DD00D6008F1040846E1D8F80010EA175F
:103A1000C1E90052F6E7D8F800100D80F2E70D700A
:103A2000F0E718F8041B8DF8001000208DF8010055
:103A3000EB46012003E058F804BB4FF0FF3061076C
:103A40004FF0000102D40DE009F101018946B942AD
:103A50000FDA8145F8DB1BF809100029F4D108E0E2
:103A600009F1010189468142FADB1BF8091000299E
:103A7000F6D103985346A0EB090721463846179A1A
:103A800000F080FA284400EB090507E044E008E173
:103A90000DE01BF8010B524617999047B9F1010947
:103AA000F7D2534621463846179AF2E039E00A2108
:103AB000C4F302524FF0000B0091022A06D058F8CE
:103AC000040BC117032A09D00AE023E008F107001C
:103AD00020F00702F2E80201904605E000B2C117AB
:103AE000042A01D140B2C117002906DA0A46002192
:103AF000404261EB02012D2202E0220504D52B2277
:103B00008DF80420012203E0E20701D02022F7E72C
:103B1000914657E00A2100E010214FF0000B009180
:103B20000BE010214FF0000B44F004040827009133
:103B300003E008204FF0000B0090C4F30252022A69
:103B400005D058F8040B0021032A08D008E008F13A
:103B5000070020F00702F2E80201904603E080B27D
:103B6000042A00D1C0B24FF0000922072AD53278CA
:103B7000702A07D0DDF800C08CF0100C5CEA0B0C4A
:103B800005D00EE040228DF80420012208E050EA22
:103B9000010306D030238DF804308DF80520022271
:103BA0009146009B83F0080353EA0B030AD150EAC5
:103BB000010201D1620705D530228DF804204FF0B3
:103BC00001097F1E3278582A04D039A20C920CAA1F
:103BD00002920BE03BA2F9E75B46009AFEF794FAEB
:103BE0000C9B9B5C029A521E0292137050EA0102D7
:103BF000F2D1029804A9081A00F1200B600702D53F
:103C000024F4803400E001275F4502DDA7EB0B00C0
:103C100000E0002000EB0B01009003984944401A9B
:103C20000390E00306D453462146179A039800F008
:103C3000A9F90544002706E001A85246C05D17997E
:103C400090476D1C7F1C4F45F6DBE0030CD55346B7
:103C50002146179A039800F095F9054404E03020B6
:103C60005246179990476D1C0099481E00900029F4
:103C7000F5DC08E00298029952460078491C02914E
:103C8000179990476D1CBBF10001ABF1010BF1DC02
:103C90005BE100F065F90544761C307800287FF47C
:103CA0000DAE19B02846BDE8F08F000009280100CC
:103CB00030313233343536373839616263646566A2
:103CC0000000000030313233343536373839414264
:103CD0004344454600000000600700D4062708F171
:103CE000070020F00700F0E80223804603F0004CB4
:103CF0005FEA0C0001D097A009E0200501D596A04D
:103D000005E0E00701D095A001E0AFF24C00139070
:103D1000307823F0004365280CD006DC452809D014
:103D200046281DD047287FD13BE0662818D0672859
:103D30007AD136E00021112F01DB112000E0781C40
:103D4000CDE9000104A90CA8FFF7EEFCDDE90D01A7
:103D50000C9A4FF0000B07F10109109200914EE010
:103D60004FF000400097CDE9011004A90CA8FFF71F
:103D7000DBFCDDE90D020C9B0F994FF0000B914627
:103D80001093009211B9791C00EB0109B7EB0900FF
:103D900003D4C0F1FF3B07F10109A9EB0700019033
:103DA00042E0012F00DA01270021112F01DD11204F
:103DB00000E03846CDE9000104A90CA8FFF7B4FCE7
:103DC000DDE90D010C9A00914FF0000BB9461092FD
:103DD00021070FD4009A4A4503DA914601E0A9F180
:103DE0000109B9F1010F05DD109AA9F10101515C3A
:103DF0003029F4D0B84202DA10F1040F03DA0121BD
:103E0000CDE9011010E0002803DC8344A9EB000198
:103E100002E0411C494500DD8946A0EB0B00401C37
:103E200001904FF000400290200705D401984845CA
:103E300002DB4FF0FF30019000208DF84B0002981C
:103E40000DF14B07B0F1004F25D002200C902B2034
:103E50000D90029800280CDA404202902D200D901F
:103E600007E00A210298FEF7C3FA3031029007F802
:103E7000011D0C99481E0C900029F2DC02980028C4
:103E8000EFD1791E0D980870307800F0200040F0D6
:103E9000450007F8020D11A8C01BC01D0290139821
:103EA000007800B1012000EB0901019801EBE071FD
:103EB000029801440398401A401E0390E00306D480
:103EC00053462146179A039800F05CF8054413986E
:103ED000007818B15246179990476D1CE00323D51E
:103EE00053462146179A039800F04CF805441BE00E
:103EF000BBF1000F07DB0098584504DD10981799B7
:103F000010F80B0001E017993020524690470198B5
:103F10000BF1010B401E05F10105019004D12E208B
:103F20005246179990476D1CB9F10001A9F101099A
:103F3000DEDC05E017F8010B5246179990476D1C1F
:103F40000299481E02900029F4DC53462146179A34
:103F500003989EE62D0000002B00000020000000CA
:103F60002DE9F041044600251E461746880404D476
:103F700005E039462020B0476D1C641EF9D528465F
:103F8000BDE8F0812DE9F041044600251E4690462B
:103F9000C80301D5302700E02027880404D505E0B8
:103FA00041463846B0476D1C641EF9D52846BDE829
:103FB000F0814A68002A06D00A68531C0B60107012
:103FC0004868401E48607047C26B0A43C26370472E
:103FD0000146C86B704770B503460C461546E000B5
:103FE000B0FBF5F2D109A2EBC112501C4608596290
:103FF000B1F5803F00D211B94FF0FF3070BD4FF6E0
:10400000FF70814202D10020986201E0521A9E6244
:10401000D86AD8620020F1E701468869C0F3001031
:10402000704701468869C0F3C01070470146C86BED
:10403000704770B505460C46164600202863686434
:10404000A86368606862A862E8622846D4E903123F
:10405000FFF7C1FF10B14FF0FF3070BD6078C0F3C3
:104060008000C001217840EA4110A17840EA0110A7
:10407000E17840EAC100617801F0030140EA4100C3
:10408000E862A07A617A40EA01206863AE63207931
:104090004002617940EA0120A1790843E17940EAD0
:1040A000C130217A40EA813028630020D5E7000042
:1040B00030B585B005460C4603208DF80000002081
:1040C0008DF8010001208DF8020000208DF803001A
:1040D00001208DF804008DF805008DF80600002001
:1040E0008DF807008DF8080001208DF809008DF883
:1040F0000A0003950494302269460248FFF799FFAD
:1041000005B030BD0010014070B504460D4629468B
:10411000204600F0B3FA70BD0FB410B5A2B08021F4
:1041200001A8FEF73BF825A82190802101A8219B3A
:10413000249AFFF7BBFA044600202190214601A8EB
:1041400000F09CFA22B010BC5DF814FB30B50346B9
:1041500023FA01F401209040451E2C400CB120466A
:1041600030BD0120FCE7000010B504461148124A9A
:10417000128820F8124010480088401C0E49088020
:1041800008460088092802DCB4F5806F10D10BA125
:104190000020FEF7E7FD002005E00021054A22F897
:1041A0001010411CC8B20A28F7DB00200249088021
:1041B00010BD0000020400206C0000202D2D2D2DCC
:1041C0002D2D2D2D2D2D2D2D2D2D2D2D2D2D2D2D1F
:1041D0002D2D2D0D0A00000072B6264826490860D4
:1041E00062B6FEF755FD4FF4A06101F00702224BC5
:1041F0001B1D18684FF6FF031840204B034343EA8A
:1042000002201D4B1B1D186000BF45F6C054601EE8
:10421000B0F1807F00D30FE0601E4FF0E0214861D5
:104220001F214FF0FF30FFF75BFA00204FF0E02135
:1042300088610720086100BF1F214FF0FF30FFF7A2
:104240004FFA00F087F90EA0FFF766FF11A10020DA
:10425000FEF788FD00F026F900BF4FF47A7108469A
:10426000FEF7B8FF42F2107145F6C050FEF7B2FFFC
:10427000F3E700000020000208ED00E00000FA056E
:10428000646562756720756172745F746573740D1F
:104290000A0000006465627567207274740D0A007C
:1042A00070B505464248FEF704FB044604F00200E0
:1042B000E8B140480078012819D111E03C48FEF7E8
:1042C000EEFA00B112E03A48FEF7E3FA3A4909681B
:1042D0003A4A1278885439480078401C37490870A7
:1042E00036480078364909788842E7DB00BF04F099
:1042F000010048B32F48007830BB11E02C48FEF78E
:10430000D3FA00B112E02F4800682F4A1278815C7E
:104310002748FEF7C2FA2C480078401C2A4908704A
:1043200029480078294909788842E7DB00BF2648F8
:10433000007826490978884206D101211C48FEF7F9
:10434000BDFA00202049087004F4007038B3194801
:104350000078012817D10CE01548FEF79AFA1649A3
:104360000968164A1278885414480078401C13498A
:10437000087012480078124909788842ECDB002066
:104380000E49087006E000200F4908700421084813
:10439000FEF77DFA4FF400710548FEF772FA04F05B
:1043A000080018B108210248FEF76BFA002070BD22
:1043B0000030014038000020340000202F00002091
:1043C0002E000020300000202D0000202C000020B6
:1043D00070B505460648FFF7FBFD044604F01000E3
:1043E00018B110210248FFF7EFFD002070BD00005A
:1043F00000001640F0B5024610464FEAE27C02EBA0
:104400005C7C4FEAEC0402F0070C802040FA0CF5CB
:1044100000264B1E01EB8100DFF830C00CEB80075B
:10442000385D284008B9701EF0BD0AE003EB830038
:10443000DFF818C00CEB8007385D284000B1761C0F
:104440005B1E002BF2DA3046EEE700009C460002CD
:1044500010B54FF48010FEF7A2FD07490748FEF79C
:104460000EFC00210548FEF70CFC0448FEF702FC98
:104470000248FEF7F5FB10BD00366E0100C001409A
:1044800008B51A208DF8000001208DF801000320E6
:104490008DF8020001208DF803006846FEF780FACF
:1044A00008BD0000FFF7ECFFFFF7D2FF0248FEF760
:1044B000CDFB00BFFEE7000000C0014030B5012485
:1044C00004FA02F304689C4301FA02F52C430460E9
:1044D00030BDF0B501269640741E04FA03F6F5438C
:1044E00006682E4001EA04079F403E430660F0BD87
:1044F000F0B503460A462A2B02DB4FF0FF30F0BD31
:1045000003EB8300124E06EB80040025511ED617E4
:1045100002EB5676F610A65D02F0070C802747FAEC
:104520000CF73E400EB9681EE9E70DE0CE1701EB2F
:104530005676F610A65D01F0070C802747FA0CF7B7
:104540003E4006B16D1C491E0029EFDA2846D6E729
:104550009C46000210B50020FEF71AFD4FF408300B
:10456000FEF71DFD0F210120FEF7B2FA0221012006
:10457000FEF792FA02490348FFF79AFD10BD0000CA
:1045800040420F0000366E0110B546E02448FFF7A8
:104590004DFD044604B941E02148446404F0100094
:1045A000B0B10CE01E490968C8B21E491E4A126823
:1045B00088541D490968491C1B4A116000BF1848EE
:1045C000FFF72AFD0128EDD118A10020FEF7CAFB54
:1045D00004F04000B0B10CE011490968C8B21149BB
:1045E000114A1268885410490968491C0E4A116022
:1045F00000BF0B48FFF710FD0128EDD10EA10020F0
:10460000FEF7B0FB00200749074A126888540649A4
:104610000860044A0BA1FEF7A5FBB7E700BF10BD79
:1046200000100140E40200202400002066756C6C3C
:1046300020696E69740D0A0074696D65206F757468
:10464000000000000A647374203D2025730A0000F6
:1046500070B505460E4600240AE000BF0648FFF785
:10466000E0FC0028FAD0295D0348FEF768FE641CD0
:10467000B442F2DB70BD00000010014070B504468A
:104680000D4629462046FFF7E3FF70BD3031323337
:10469000343536373839414243444546DFFFFFAAB7
:1046A000AA48808008020A7FFFFE0020080E1F90A3
:1046B000DFFFFF55552440400401067FFFFD001039
:1046C000040E9F90DFFFFFAAA89020200200827FA7
:1046D000FFFC8008020E5FD0DFFFFF555648101028
:1046E000010042FFFFFC4004010F1FB0FFFFFFAAC3
:1046F000A926080800802B7FFFFC2002008E1F9057
:10470000DFFFFF55549304040040167FFFFC1001A7
:10471000004E3F90DFFFFFAAAA4802020022027F5C
:10472000FFFC0800802E1FD0DFFFFF55552601013A
:104730000011027FFFFC0400401E9FB0DFFFFFAAB4
:10474000A892800080088A7FFFFC0200280E5F90FC
:10475000DFFFFF55564A40004004467FFFFC010042
:10476000140F1F90DFFFFFAAA92620002000227F40
:10477000FFFC0080020E1FD0DFFFFF555490100099
:104780001000127FFFFC0040010E3FB0DFFFFFAAC8
:10479000AA49088008020A7FFFFE0020008E1F90B1
:1047A000DFFFFF55552504400401067FFFFD001083
:1047B000004E9F90DFFFFFAAA89102200200827F97
:1047C000FFFC8008002E5FD0DFFFFF555649011027
:1047D0000100427FFFFC4004001E1FB0DFFFFFAA64
:1047E000A925800800802A7FFFFC2002080E1F9068
:1047F000DFFFFF55549040040040167FFFFC10017E
:10480000040E3F90DFFFFF55424820020022027F46
:10481000FFFC0800820E1FD0DFFFFFAA81241001D9
:104820000011027FFFFC0400410E9FB0DFFFFF5527
:104830004091080080088A7FFFFC0200208E5F9074
:10484000DFFFFFAAAA4B04004004467FFFFC0100E3
:10485000104E1F90DFFFFF55552702002000227FDA
:10486000FFFC0080002E1FD0D011F2AAA88B0100FF
:104870001000104047C4004000102AA0C809E955A4
:10488000566480800800082027B200200800151018
:10489000C405E4AAA91040400400061017890010BE
:1048A00004000A80C203F255548820200200000848
:1048B0000FC4800802001540C101E9AAAA641010C3
:1048C0000100000407B0400401000AA0C000005528
:1048D0005400080800800000000020020080000052
:1048E000C00000AAA800040400400000000010015D
:1048F00000400000C081E455551202020020080269
:104900000788080080201510C041F2AAA88801017C
:104910000010040107C4040040100A80C021E955BA
:10492000566480008008020087B00200280015400D
:10493000C00000AAA80040004004000000000100E0
:1049400014000000C00000555400200020000000AA
:104950000000008002000000C00000AAA8001000B3
:10496000100000000000004001000000C80000002E
:104970000000000000000020000000000000000017
:10498000D000000000000000000000400000000017
:1049900000000000C4000000000000000000001043
:1049A0000000000000000000C20000000000000045
:1049B000000000080000000000000000C10000002E
:1049C00000000000000000040000000000000000E3
:1049D000C080000000000000000000020000000095
:1049E00000000000595A5B5C5D5E5F606364616259
:1049F0000000000101010101020202020A0F14007D
:104A0000050A0F140A0F0005030405060708090A22
:104A10000D0E0B0C240D0000250D0000000D0000F4
:104A2000090D0006120D000C1B0D001214000E00E3
:104A300002000E080B000E0C1D000E1010000F00DF
:104A400007000F0619000F0822000F0311001100C4
:104A5000080011061A001108230011037C4A000205
:104A6000000000207C00000008370002F84A000225
:104A70007C000020BC170000183700020000000076
:104A800046696E697368656420746F20726563653A
:104A90006976652061206672616D65210A000000FB
:104AA0000000000000000000000000000000000006
:104AB000000000000002000000180119021A031B88
:104AC000000C010D06120713440000200400000032
:104AD0003C000020040000000A10000001009600C5
:104AE000AA003200000000000000000079563412D5
:084AF0000000000000000000BE
:04000005020020D500
:00000001FF
